{
  "_format": "hh-sol-artifact-1",
  "contractName": "DocumentNFT",
  "sourceName": "contracts/03_NftContract.sol",
  "abi": [
    {
      "inputs": [
        {
          "internalType": "address",
          "name": "identityContractAddress",
          "type": "address"
        },
        {
          "internalType": "address",
          "name": "documentVerificationAddress",
          "type": "address"
        }
      ],
      "stateMutability": "nonpayable",
      "type": "constructor"
    },
    {
      "inputs": [
        {
          "internalType": "address",
          "name": "sender",
          "type": "address"
        },
        {
          "internalType": "uint256",
          "name": "tokenId",
          "type": "uint256"
        },
        {
          "internalType": "address",
          "name": "owner",
          "type": "address"
        }
      ],
      "name": "ERC721IncorrectOwner",
      "type": "error"
    },
    {
      "inputs": [
        {
          "internalType": "address",
          "name": "operator",
          "type": "address"
        },
        {
          "internalType": "uint256",
          "name": "tokenId",
          "type": "uint256"
        }
      ],
      "name": "ERC721InsufficientApproval",
      "type": "error"
    },
    {
      "inputs": [
        {
          "internalType": "address",
          "name": "approver",
          "type": "address"
        }
      ],
      "name": "ERC721InvalidApprover",
      "type": "error"
    },
    {
      "inputs": [
        {
          "internalType": "address",
          "name": "operator",
          "type": "address"
        }
      ],
      "name": "ERC721InvalidOperator",
      "type": "error"
    },
    {
      "inputs": [
        {
          "internalType": "address",
          "name": "owner",
          "type": "address"
        }
      ],
      "name": "ERC721InvalidOwner",
      "type": "error"
    },
    {
      "inputs": [
        {
          "internalType": "address",
          "name": "receiver",
          "type": "address"
        }
      ],
      "name": "ERC721InvalidReceiver",
      "type": "error"
    },
    {
      "inputs": [
        {
          "internalType": "address",
          "name": "sender",
          "type": "address"
        }
      ],
      "name": "ERC721InvalidSender",
      "type": "error"
    },
    {
      "inputs": [
        {
          "internalType": "uint256",
          "name": "tokenId",
          "type": "uint256"
        }
      ],
      "name": "ERC721NonexistentToken",
      "type": "error"
    },
    {
      "inputs": [
        {
          "internalType": "address",
          "name": "owner",
          "type": "address"
        }
      ],
      "name": "OwnableInvalidOwner",
      "type": "error"
    },
    {
      "inputs": [
        {
          "internalType": "address",
          "name": "account",
          "type": "address"
        }
      ],
      "name": "OwnableUnauthorizedAccount",
      "type": "error"
    },
    {
      "anonymous": false,
      "inputs": [
        {
          "indexed": true,
          "internalType": "address",
          "name": "owner",
          "type": "address"
        },
        {
          "indexed": true,
          "internalType": "address",
          "name": "approved",
          "type": "address"
        },
        {
          "indexed": true,
          "internalType": "uint256",
          "name": "tokenId",
          "type": "uint256"
        }
      ],
      "name": "Approval",
      "type": "event"
    },
    {
      "anonymous": false,
      "inputs": [
        {
          "indexed": true,
          "internalType": "address",
          "name": "owner",
          "type": "address"
        },
        {
          "indexed": true,
          "internalType": "address",
          "name": "operator",
          "type": "address"
        },
        {
          "indexed": false,
          "internalType": "bool",
          "name": "approved",
          "type": "bool"
        }
      ],
      "name": "ApprovalForAll",
      "type": "event"
    },
    {
      "anonymous": false,
      "inputs": [
        {
          "indexed": false,
          "internalType": "uint256",
          "name": "_fromTokenId",
          "type": "uint256"
        },
        {
          "indexed": false,
          "internalType": "uint256",
          "name": "_toTokenId",
          "type": "uint256"
        }
      ],
      "name": "BatchMetadataUpdate",
      "type": "event"
    },
    {
      "anonymous": false,
      "inputs": [
        {
          "indexed": false,
          "internalType": "uint256",
          "name": "_tokenId",
          "type": "uint256"
        }
      ],
      "name": "MetadataUpdate",
      "type": "event"
    },
    {
      "anonymous": false,
      "inputs": [
        {
          "indexed": true,
          "internalType": "uint256",
          "name": "tokenId",
          "type": "uint256"
        },
        {
          "indexed": true,
          "internalType": "address",
          "name": "recipient",
          "type": "address"
        },
        {
          "indexed": false,
          "internalType": "string",
          "name": "tokenURI",
          "type": "string"
        }
      ],
      "name": "Minted",
      "type": "event"
    },
    {
      "anonymous": false,
      "inputs": [
        {
          "indexed": true,
          "internalType": "address",
          "name": "previousOwner",
          "type": "address"
        },
        {
          "indexed": true,
          "internalType": "address",
          "name": "newOwner",
          "type": "address"
        }
      ],
      "name": "OwnershipTransferred",
      "type": "event"
    },
    {
      "anonymous": false,
      "inputs": [
        {
          "indexed": true,
          "internalType": "address",
          "name": "from",
          "type": "address"
        },
        {
          "indexed": true,
          "internalType": "address",
          "name": "to",
          "type": "address"
        },
        {
          "indexed": true,
          "internalType": "uint256",
          "name": "tokenId",
          "type": "uint256"
        }
      ],
      "name": "Transfer",
      "type": "event"
    },
    {
      "inputs": [
        {
          "internalType": "address",
          "name": "to",
          "type": "address"
        },
        {
          "internalType": "uint256",
          "name": "tokenId",
          "type": "uint256"
        }
      ],
      "name": "approve",
      "outputs": [],
      "stateMutability": "nonpayable",
      "type": "function"
    },
    {
      "inputs": [
        {
          "internalType": "address",
          "name": "owner",
          "type": "address"
        }
      ],
      "name": "balanceOf",
      "outputs": [
        {
          "internalType": "uint256",
          "name": "",
          "type": "uint256"
        }
      ],
      "stateMutability": "view",
      "type": "function"
    },
    {
      "inputs": [
        {
          "internalType": "uint256",
          "name": "tokenId",
          "type": "uint256"
        }
      ],
      "name": "getApproved",
      "outputs": [
        {
          "internalType": "address",
          "name": "",
          "type": "address"
        }
      ],
      "stateMutability": "view",
      "type": "function"
    },
    {
      "inputs": [
        {
          "internalType": "address",
          "name": "owner",
          "type": "address"
        },
        {
          "internalType": "address",
          "name": "operator",
          "type": "address"
        }
      ],
      "name": "isApprovedForAll",
      "outputs": [
        {
          "internalType": "bool",
          "name": "",
          "type": "bool"
        }
      ],
      "stateMutability": "view",
      "type": "function"
    },
    {
      "inputs": [
        {
          "internalType": "uint256",
          "name": "documentId",
          "type": "uint256"
        },
        {
          "internalType": "string",
          "name": "uri",
          "type": "string"
        }
      ],
      "name": "mintNFT",
      "outputs": [],
      "stateMutability": "nonpayable",
      "type": "function"
    },
    {
      "inputs": [],
      "name": "name",
      "outputs": [
        {
          "internalType": "string",
          "name": "",
          "type": "string"
        }
      ],
      "stateMutability": "view",
      "type": "function"
    },
    {
      "inputs": [],
      "name": "owner",
      "outputs": [
        {
          "internalType": "address",
          "name": "",
          "type": "address"
        }
      ],
      "stateMutability": "view",
      "type": "function"
    },
    {
      "inputs": [
        {
          "internalType": "uint256",
          "name": "tokenId",
          "type": "uint256"
        }
      ],
      "name": "ownerOf",
      "outputs": [
        {
          "internalType": "address",
          "name": "",
          "type": "address"
        }
      ],
      "stateMutability": "view",
      "type": "function"
    },
    {
      "inputs": [],
      "name": "renounceOwnership",
      "outputs": [],
      "stateMutability": "nonpayable",
      "type": "function"
    },
    {
      "inputs": [
        {
          "internalType": "address",
          "name": "from",
          "type": "address"
        },
        {
          "internalType": "address",
          "name": "to",
          "type": "address"
        },
        {
          "internalType": "uint256",
          "name": "tokenId",
          "type": "uint256"
        }
      ],
      "name": "safeTransferFrom",
      "outputs": [],
      "stateMutability": "nonpayable",
      "type": "function"
    },
    {
      "inputs": [
        {
          "internalType": "address",
          "name": "from",
          "type": "address"
        },
        {
          "internalType": "address",
          "name": "to",
          "type": "address"
        },
        {
          "internalType": "uint256",
          "name": "tokenId",
          "type": "uint256"
        },
        {
          "internalType": "bytes",
          "name": "data",
          "type": "bytes"
        }
      ],
      "name": "safeTransferFrom",
      "outputs": [],
      "stateMutability": "nonpayable",
      "type": "function"
    },
    {
      "inputs": [
        {
          "internalType": "address",
          "name": "operator",
          "type": "address"
        },
        {
          "internalType": "bool",
          "name": "approved",
          "type": "bool"
        }
      ],
      "name": "setApprovalForAll",
      "outputs": [],
      "stateMutability": "nonpayable",
      "type": "function"
    },
    {
      "inputs": [
        {
          "internalType": "bytes4",
          "name": "interfaceId",
          "type": "bytes4"
        }
      ],
      "name": "supportsInterface",
      "outputs": [
        {
          "internalType": "bool",
          "name": "",
          "type": "bool"
        }
      ],
      "stateMutability": "view",
      "type": "function"
    },
    {
      "inputs": [],
      "name": "symbol",
      "outputs": [
        {
          "internalType": "string",
          "name": "",
          "type": "string"
        }
      ],
      "stateMutability": "view",
      "type": "function"
    },
    {
      "inputs": [],
      "name": "tokenCount",
      "outputs": [
        {
          "internalType": "uint256",
          "name": "",
          "type": "uint256"
        }
      ],
      "stateMutability": "view",
      "type": "function"
    },
    {
      "inputs": [
        {
          "internalType": "uint256",
          "name": "tokenId",
          "type": "uint256"
        }
      ],
      "name": "tokenURI",
      "outputs": [
        {
          "internalType": "string",
          "name": "",
          "type": "string"
        }
      ],
      "stateMutability": "view",
      "type": "function"
    },
    {
      "inputs": [
        {
          "internalType": "address",
          "name": "from",
          "type": "address"
        },
        {
          "internalType": "address",
          "name": "to",
          "type": "address"
        },
        {
          "internalType": "uint256",
          "name": "tokenId",
          "type": "uint256"
        }
      ],
      "name": "transferFrom",
      "outputs": [],
      "stateMutability": "nonpayable",
      "type": "function"
    },
    {
      "inputs": [
        {
          "internalType": "address",
          "name": "recipient",
          "type": "address"
        },
        {
          "internalType": "uint256",
          "name": "tokenId",
          "type": "uint256"
        }
      ],
      "name": "transferNFT",
      "outputs": [],
      "stateMutability": "nonpayable",
      "type": "function"
    },
    {
      "inputs": [
        {
          "internalType": "address",
          "name": "newOwner",
          "type": "address"
        }
      ],
      "name": "transferOwnership",
      "outputs": [],
      "stateMutability": "nonpayable",
      "type": "function"
    }
  ],
  "bytecode": "0x60c06040523480156200001157600080fd5b5060405162003594380380620035948339818101604052810190620000379190620002f1565b336040518060400160405280600b81526020017f446f63756d656e744e46540000000000000000000000000000000000000000008152506040518060400160405280600481526020017f444e4654000000000000000000000000000000000000000000000000000000008152508160009081620000b59190620005b2565b508060019081620000c79190620005b2565b505050600073ffffffffffffffffffffffffffffffffffffffff168173ffffffffffffffffffffffffffffffffffffffff16036200013f5760006040517f1e4fbdf7000000000000000000000000000000000000000000000000000000008152600401620001369190620006aa565b60405180910390fd5b6200015081620001c160201b60201c565b508173ffffffffffffffffffffffffffffffffffffffff1660808173ffffffffffffffffffffffffffffffffffffffff16815250508073ffffffffffffffffffffffffffffffffffffffff1660a08173ffffffffffffffffffffffffffffffffffffffff16815250505050620006c7565b6000600760009054906101000a900473ffffffffffffffffffffffffffffffffffffffff16905081600760006101000a81548173ffffffffffffffffffffffffffffffffffffffff021916908373ffffffffffffffffffffffffffffffffffffffff1602179055508173ffffffffffffffffffffffffffffffffffffffff168173ffffffffffffffffffffffffffffffffffffffff167f8be0079c531659141344cd1fd0a4f28419497f9722a3daafe3b4186f6b6457e060405160405180910390a35050565b600080fd5b600073ffffffffffffffffffffffffffffffffffffffff82169050919050565b6000620002b9826200028c565b9050919050565b620002cb81620002ac565b8114620002d757600080fd5b50565b600081519050620002eb81620002c0565b92915050565b600080604083850312156200030b576200030a62000287565b5b60006200031b85828601620002da565b92505060206200032e85828601620002da565b9150509250929050565b600081519050919050565b7f4e487b7100000000000000000000000000000000000000000000000000000000600052604160045260246000fd5b7f4e487b7100000000000000000000000000000000000000000000000000000000600052602260045260246000fd5b60006002820490506001821680620003ba57607f821691505b602082108103620003d057620003cf62000372565b5b50919050565b60008190508160005260206000209050919050565b60006020601f8301049050919050565b600082821b905092915050565b6000600883026200043a7fffffffffffffffffffffffffffffffffffffffffffffffffffffffffffffffff82620003fb565b620004468683620003fb565b95508019841693508086168417925050509392505050565b6000819050919050565b6000819050919050565b6000620004936200048d62000487846200045e565b62000468565b6200045e565b9050919050565b6000819050919050565b620004af8362000472565b620004c7620004be826200049a565b84845462000408565b825550505050565b600090565b620004de620004cf565b620004eb818484620004a4565b505050565b5b81811015620005135762000507600082620004d4565b600181019050620004f1565b5050565b601f82111562000562576200052c81620003d6565b6200053784620003eb565b8101602085101562000547578190505b6200055f6200055685620003eb565b830182620004f0565b50505b505050565b600082821c905092915050565b6000620005876000198460080262000567565b1980831691505092915050565b6000620005a2838362000574565b9150826002028217905092915050565b620005bd8262000338565b67ffffffffffffffff811115620005d957620005d862000343565b5b620005e58254620003a1565b620005f282828562000517565b600060209050601f8311600181146200062a576000841562000615578287015190505b62000621858262000594565b86555062000691565b601f1984166200063a86620003d6565b60005b8281101562000664578489015182556001820191506020850194506020810190506200063d565b8683101562000684578489015162000680601f89168262000574565b8355505b6001600288020188555050505b505050505050565b620006a481620002ac565b82525050565b6000602082019050620006c1600083018462000699565b92915050565b60805160a051612ea7620006ed60003960006105ab015260006104cf0152612ea76000f3fe608060405234801561001057600080fd5b50600436106101215760003560e01c8063715018a6116100ad578063a22cb46511610071578063a22cb465146102f4578063b88d4fde14610310578063c87b56dd1461032c578063e985e9c51461035c578063f2fde38b1461038c57610121565b8063715018a6146102745780638da5cb5b1461027e57806394ab67fe1461029c57806395d89b41146102b85780639f181b5e146102d657610121565b80631a0c8fa0116100f45780631a0c8fa0146101c057806323b872dd146101dc57806342842e0e146101f85780636352211e1461021457806370a082311461024457610121565b806301ffc9a71461012657806306fdde0314610156578063081812fc14610174578063095ea7b3146101a4575b600080fd5b610140600480360381019061013b9190611fb6565b6103a8565b60405161014d9190611ffe565b60405180910390f35b61015e610409565b60405161016b91906120a9565b60405180910390f35b61018e60048036038101906101899190612101565b61049b565b60405161019b919061216f565b60405180910390f35b6101be60048036038101906101b991906121b6565b6104b7565b005b6101da60048036038101906101d5919061232b565b6104cd565b005b6101f660048036038101906101f19190612387565b610716565b005b610212600480360381019061020d9190612387565b610818565b005b61022e60048036038101906102299190612101565b610838565b60405161023b919061216f565b60405180910390f35b61025e600480360381019061025991906123da565b61084a565b60405161026b9190612416565b60405180910390f35b61027c610904565b005b610286610918565b604051610293919061216f565b60405180910390f35b6102b660048036038101906102b191906121b6565b610942565b005b6102c061099a565b6040516102cd91906120a9565b60405180910390f35b6102de610a2c565b6040516102eb9190612416565b60405180910390f35b61030e6004803603810190610309919061245d565b610a32565b005b61032a6004803603810190610325919061253e565b610a48565b005b61034660048036038101906103419190612101565b610a65565b60405161035391906120a9565b60405180910390f35b610376600480360381019061037191906125c1565b610a77565b6040516103839190611ffe565b60405180910390f35b6103a660048036038101906103a191906123da565b610b0b565b005b6000634906490660e01b7bffffffffffffffffffffffffffffffffffffffffffffffffffffffff1916827bffffffffffffffffffffffffffffffffffffffffffffffffffffffff19161480610402575061040182610b91565b5b9050919050565b60606000805461041890612630565b80601f016020809104026020016040519081016040528092919081815260200182805461044490612630565b80156104915780601f1061046657610100808354040283529160200191610491565b820191906000526020600020905b81548152906001019060200180831161047457829003601f168201915b5050505050905090565b60006104a682610c73565b506104b082610cfb565b9050919050565b6104c982826104c4610d38565b610d40565b5050565b7f000000000000000000000000000000000000000000000000000000000000000073ffffffffffffffffffffffffffffffffffffffff166323e9da46336040518263ffffffff1660e01b8152600401610526919061216f565b602060405180830381865afa158015610543573d6000803e3d6000fd5b505050506040513d601f19601f820116820180604052508101906105679190612676565b6105a6576040517f08c379a000000000000000000000000000000000000000000000000000000000815260040161059d90612715565b60405180910390fd5b6000807f000000000000000000000000000000000000000000000000000000000000000073ffffffffffffffffffffffffffffffffffffffff166380ede329856040518263ffffffff1660e01b81526004016106029190612416565b600060405180830381865afa15801561061f573d6000803e3d6000fd5b505050506040513d6000823e3d601f19601f8201168201806040525081019061064891906127cf565b509350509250508061068f576040517f08c379a0000000000000000000000000000000000000000000000000000000008152600401610686906128b2565b60405180910390fd5b600860008154809291906106a290612901565b91905055506106b382600854610d52565b6106bf60085484610e4b565b8173ffffffffffffffffffffffffffffffffffffffff166008547f3b8a974a6971dbe70c8718ec80406b2790d2aa5477b6a5bed3d94fa19e06d60d8560405161070891906120a9565b60405180910390a350505050565b600073ffffffffffffffffffffffffffffffffffffffff168273ffffffffffffffffffffffffffffffffffffffff16036107885760006040517f64a0ae9200000000000000000000000000000000000000000000000000000000815260040161077f919061216f565b60405180910390fd5b600061079c8383610797610d38565b610ea7565b90508373ffffffffffffffffffffffffffffffffffffffff168173ffffffffffffffffffffffffffffffffffffffff1614610812578382826040517f64283d7b00000000000000000000000000000000000000000000000000000000815260040161080993929190612949565b60405180910390fd5b50505050565b61083383838360405180602001604052806000815250610a48565b505050565b600061084382610c73565b9050919050565b60008073ffffffffffffffffffffffffffffffffffffffff168273ffffffffffffffffffffffffffffffffffffffff16036108bd5760006040517f89c62b640000000000000000000000000000000000000000000000000000000081526004016108b4919061216f565b60405180910390fd5b600360008373ffffffffffffffffffffffffffffffffffffffff1673ffffffffffffffffffffffffffffffffffffffff168152602001908152602001600020549050919050565b61090c6110c1565b6109166000611148565b565b6000600760009054906101000a900473ffffffffffffffffffffffffffffffffffffffff16905090565b61094c338261120e565b61098b576040517f08c379a0000000000000000000000000000000000000000000000000000000008152600401610982906129f2565b60405180910390fd5b610996338383611312565b5050565b6060600180546109a990612630565b80601f01602080910402602001604051908101604052809291908181526020018280546109d590612630565b8015610a225780601f106109f757610100808354040283529160200191610a22565b820191906000526020600020905b815481529060010190602001808311610a0557829003601f168201915b5050505050905090565b60085481565b610a44610a3d610d38565b838361147f565b5050565b610a53848484610716565b610a5f848484846115ee565b50505050565b6060610a70826117a5565b9050919050565b6000600560008473ffffffffffffffffffffffffffffffffffffffff1673ffffffffffffffffffffffffffffffffffffffff16815260200190815260200160002060008373ffffffffffffffffffffffffffffffffffffffff1673ffffffffffffffffffffffffffffffffffffffff16815260200190815260200160002060009054906101000a900460ff16905092915050565b610b136110c1565b600073ffffffffffffffffffffffffffffffffffffffff168173ffffffffffffffffffffffffffffffffffffffff1603610b855760006040517f1e4fbdf7000000000000000000000000000000000000000000000000000000008152600401610b7c919061216f565b60405180910390fd5b610b8e81611148565b50565b60007f80ac58cd000000000000000000000000000000000000000000000000000000007bffffffffffffffffffffffffffffffffffffffffffffffffffffffff1916827bffffffffffffffffffffffffffffffffffffffffffffffffffffffff19161480610c5c57507f5b5e139f000000000000000000000000000000000000000000000000000000007bffffffffffffffffffffffffffffffffffffffffffffffffffffffff1916827bffffffffffffffffffffffffffffffffffffffffffffffffffffffff1916145b80610c6c5750610c6b826118b8565b5b9050919050565b600080610c7f83611922565b9050600073ffffffffffffffffffffffffffffffffffffffff168173ffffffffffffffffffffffffffffffffffffffff1603610cf257826040517f7e273289000000000000000000000000000000000000000000000000000000008152600401610ce99190612416565b60405180910390fd5b80915050919050565b60006004600083815260200190815260200160002060009054906101000a900473ffffffffffffffffffffffffffffffffffffffff169050919050565b600033905090565b610d4d838383600161195f565b505050565b600073ffffffffffffffffffffffffffffffffffffffff168273ffffffffffffffffffffffffffffffffffffffff1603610dc45760006040517f64a0ae92000000000000000000000000000000000000000000000000000000008152600401610dbb919061216f565b60405180910390fd5b6000610dd283836000610ea7565b9050600073ffffffffffffffffffffffffffffffffffffffff168173ffffffffffffffffffffffffffffffffffffffff1614610e465760006040517f73c6ac6e000000000000000000000000000000000000000000000000000000008152600401610e3d919061216f565b60405180910390fd5b505050565b80600660008481526020019081526020016000209081610e6b9190612bbe565b507ff8e1a15aba9398e019f0b49df1a4fde98ee17ae345cb5f6b5e2c27f5033e8ce782604051610e9b9190612416565b60405180910390a15050565b600080610eb384611922565b9050600073ffffffffffffffffffffffffffffffffffffffff168373ffffffffffffffffffffffffffffffffffffffff1614610ef557610ef4818486611b24565b5b600073ffffffffffffffffffffffffffffffffffffffff168173ffffffffffffffffffffffffffffffffffffffff1614610f8657610f3760008560008061195f565b6001600360008373ffffffffffffffffffffffffffffffffffffffff1673ffffffffffffffffffffffffffffffffffffffff168152602001908152602001600020600082825403925050819055505b600073ffffffffffffffffffffffffffffffffffffffff168573ffffffffffffffffffffffffffffffffffffffff1614611009576001600360008773ffffffffffffffffffffffffffffffffffffffff1673ffffffffffffffffffffffffffffffffffffffff168152602001908152602001600020600082825401925050819055505b846002600086815260200190815260200160002060006101000a81548173ffffffffffffffffffffffffffffffffffffffff021916908373ffffffffffffffffffffffffffffffffffffffff160217905550838573ffffffffffffffffffffffffffffffffffffffff168273ffffffffffffffffffffffffffffffffffffffff167fddf252ad1be2c89b69c2b068fc378daa952ba7f163c4a11628f55a4df523b3ef60405160405180910390a4809150509392505050565b6110c9610d38565b73ffffffffffffffffffffffffffffffffffffffff166110e7610918565b73ffffffffffffffffffffffffffffffffffffffff16146111465761110a610d38565b6040517f118cdaa700000000000000000000000000000000000000000000000000000000815260040161113d919061216f565b60405180910390fd5b565b6000600760009054906101000a900473ffffffffffffffffffffffffffffffffffffffff16905081600760006101000a81548173ffffffffffffffffffffffffffffffffffffffff021916908373ffffffffffffffffffffffffffffffffffffffff1602179055508173ffffffffffffffffffffffffffffffffffffffff168173ffffffffffffffffffffffffffffffffffffffff167f8be0079c531659141344cd1fd0a4f28419497f9722a3daafe3b4186f6b6457e060405160405180910390a35050565b60008061121a83610838565b9050600073ffffffffffffffffffffffffffffffffffffffff168173ffffffffffffffffffffffffffffffffffffffff160361128b576040517f08c379a000000000000000000000000000000000000000000000000000000000815260040161128290612cb6565b60405180910390fd5b8073ffffffffffffffffffffffffffffffffffffffff168473ffffffffffffffffffffffffffffffffffffffff1614806112f857508373ffffffffffffffffffffffffffffffffffffffff166112e08461049b565b73ffffffffffffffffffffffffffffffffffffffff16145b8061130957506113088185610a77565b5b91505092915050565b600073ffffffffffffffffffffffffffffffffffffffff168273ffffffffffffffffffffffffffffffffffffffff16036113845760006040517f64a0ae9200000000000000000000000000000000000000000000000000000000815260040161137b919061216f565b60405180910390fd5b600061139283836000610ea7565b9050600073ffffffffffffffffffffffffffffffffffffffff168173ffffffffffffffffffffffffffffffffffffffff160361140557816040517f7e2732890000000000000000000000000000000000000000000000000000000081526004016113fc9190612416565b60405180910390fd5b8373ffffffffffffffffffffffffffffffffffffffff168173ffffffffffffffffffffffffffffffffffffffff1614611479578382826040517f64283d7b00000000000000000000000000000000000000000000000000000000815260040161147093929190612949565b60405180910390fd5b50505050565b600073ffffffffffffffffffffffffffffffffffffffff168273ffffffffffffffffffffffffffffffffffffffff16036114f057816040517f5b08ba180000000000000000000000000000000000000000000000000000000081526004016114e7919061216f565b60405180910390fd5b80600560008573ffffffffffffffffffffffffffffffffffffffff1673ffffffffffffffffffffffffffffffffffffffff16815260200190815260200160002060008473ffffffffffffffffffffffffffffffffffffffff1673ffffffffffffffffffffffffffffffffffffffff16815260200190815260200160002060006101000a81548160ff0219169083151502179055508173ffffffffffffffffffffffffffffffffffffffff168373ffffffffffffffffffffffffffffffffffffffff167f17307eab39ab6107e8899845ad3d59bd9653f200f220920489ca2b5937696c31836040516115e19190611ffe565b60405180910390a3505050565b60008373ffffffffffffffffffffffffffffffffffffffff163b111561179f578273ffffffffffffffffffffffffffffffffffffffff1663150b7a02611632610d38565b8685856040518563ffffffff1660e01b81526004016116549493929190612d2b565b6020604051808303816000875af192505050801561169057506040513d601f19601f8201168201806040525081019061168d9190612d8c565b60015b611714573d80600081146116c0576040519150601f19603f3d011682016040523d82523d6000602084013e6116c5565b606091505b50600081510361170c57836040517f64a0ae92000000000000000000000000000000000000000000000000000000008152600401611703919061216f565b60405180910390fd5b805181602001fd5b63150b7a0260e01b7bffffffffffffffffffffffffffffffffffffffffffffffffffffffff1916817bffffffffffffffffffffffffffffffffffffffffffffffffffffffff19161461179d57836040517f64a0ae92000000000000000000000000000000000000000000000000000000008152600401611794919061216f565b60405180910390fd5b505b50505050565b60606117b082610c73565b5060006006600084815260200190815260200160002080546117d190612630565b80601f01602080910402602001604051908101604052809291908181526020018280546117fd90612630565b801561184a5780601f1061181f5761010080835404028352916020019161184a565b820191906000526020600020905b81548152906001019060200180831161182d57829003601f168201915b50505050509050600061185b611be8565b905060008151036118705781925050506118b3565b6000825111156118a557808260405160200161188d929190612df5565b604051602081830303815290604052925050506118b3565b6118ae84611bff565b925050505b919050565b60007f01ffc9a7000000000000000000000000000000000000000000000000000000007bffffffffffffffffffffffffffffffffffffffffffffffffffffffff1916827bffffffffffffffffffffffffffffffffffffffffffffffffffffffff1916149050919050565b60006002600083815260200190815260200160002060009054906101000a900473ffffffffffffffffffffffffffffffffffffffff169050919050565b80806119985750600073ffffffffffffffffffffffffffffffffffffffff168273ffffffffffffffffffffffffffffffffffffffff1614155b15611acc5760006119a884610c73565b9050600073ffffffffffffffffffffffffffffffffffffffff168373ffffffffffffffffffffffffffffffffffffffff1614158015611a1357508273ffffffffffffffffffffffffffffffffffffffff168173ffffffffffffffffffffffffffffffffffffffff1614155b8015611a265750611a248184610a77565b155b15611a6857826040517fa9fbf51f000000000000000000000000000000000000000000000000000000008152600401611a5f919061216f565b60405180910390fd5b8115611aca57838573ffffffffffffffffffffffffffffffffffffffff168273ffffffffffffffffffffffffffffffffffffffff167f8c5be1e5ebec7d5bd14f71427d1e84f3dd0314c0f7b2291e5b200ac8c7c3b92560405160405180910390a45b505b836004600085815260200190815260200160002060006101000a81548173ffffffffffffffffffffffffffffffffffffffff021916908373ffffffffffffffffffffffffffffffffffffffff16021790555050505050565b611b2f838383611c68565b611be357600073ffffffffffffffffffffffffffffffffffffffff168373ffffffffffffffffffffffffffffffffffffffff1603611ba457806040517f7e273289000000000000000000000000000000000000000000000000000000008152600401611b9b9190612416565b60405180910390fd5b81816040517f177e802f000000000000000000000000000000000000000000000000000000008152600401611bda929190612e19565b60405180910390fd5b505050565b606060405180602001604052806000815250905090565b6060611c0a82610c73565b506000611c15611be8565b90506000815111611c355760405180602001604052806000815250611c60565b80611c3f84611d29565b604051602001611c50929190612df5565b6040516020818303038152906040525b915050919050565b60008073ffffffffffffffffffffffffffffffffffffffff168373ffffffffffffffffffffffffffffffffffffffff1614158015611d2057508273ffffffffffffffffffffffffffffffffffffffff168473ffffffffffffffffffffffffffffffffffffffff161480611ce15750611ce08484610a77565b5b80611d1f57508273ffffffffffffffffffffffffffffffffffffffff16611d0783610cfb565b73ffffffffffffffffffffffffffffffffffffffff16145b5b90509392505050565b606060006001611d3884611df7565b01905060008167ffffffffffffffff811115611d5757611d56612200565b5b6040519080825280601f01601f191660200182016040528015611d895781602001600182028036833780820191505090505b509050600082602001820190505b600115611dec578080600190039150507f3031323334353637383961626364656600000000000000000000000000000000600a86061a8153600a8581611de057611ddf612e42565b5b04945060008503611d97575b819350505050919050565b600080600090507a184f03e93ff9f4daa797ed6e38ed64bf6a1f0100000000000000008310611e55577a184f03e93ff9f4daa797ed6e38ed64bf6a1f0100000000000000008381611e4b57611e4a612e42565b5b0492506040810190505b6d04ee2d6d415b85acef81000000008310611e92576d04ee2d6d415b85acef81000000008381611e8857611e87612e42565b5b0492506020810190505b662386f26fc100008310611ec157662386f26fc100008381611eb757611eb6612e42565b5b0492506010810190505b6305f5e1008310611eea576305f5e1008381611ee057611edf612e42565b5b0492506008810190505b6127108310611f0f576127108381611f0557611f04612e42565b5b0492506004810190505b60648310611f325760648381611f2857611f27612e42565b5b0492506002810190505b600a8310611f41576001810190505b80915050919050565b6000604051905090565b600080fd5b600080fd5b60007fffffffff0000000000000000000000000000000000000000000000000000000082169050919050565b611f9381611f5e565b8114611f9e57600080fd5b50565b600081359050611fb081611f8a565b92915050565b600060208284031215611fcc57611fcb611f54565b5b6000611fda84828501611fa1565b91505092915050565b60008115159050919050565b611ff881611fe3565b82525050565b60006020820190506120136000830184611fef565b92915050565b600081519050919050565b600082825260208201905092915050565b60005b83811015612053578082015181840152602081019050612038565b60008484015250505050565b6000601f19601f8301169050919050565b600061207b82612019565b6120858185612024565b9350612095818560208601612035565b61209e8161205f565b840191505092915050565b600060208201905081810360008301526120c38184612070565b905092915050565b6000819050919050565b6120de816120cb565b81146120e957600080fd5b50565b6000813590506120fb816120d5565b92915050565b60006020828403121561211757612116611f54565b5b6000612125848285016120ec565b91505092915050565b600073ffffffffffffffffffffffffffffffffffffffff82169050919050565b60006121598261212e565b9050919050565b6121698161214e565b82525050565b60006020820190506121846000830184612160565b92915050565b6121938161214e565b811461219e57600080fd5b50565b6000813590506121b08161218a565b92915050565b600080604083850312156121cd576121cc611f54565b5b60006121db858286016121a1565b92505060206121ec858286016120ec565b9150509250929050565b600080fd5b600080fd5b7f4e487b7100000000000000000000000000000000000000000000000000000000600052604160045260246000fd5b6122388261205f565b810181811067ffffffffffffffff8211171561225757612256612200565b5b80604052505050565b600061226a611f4a565b9050612276828261222f565b919050565b600067ffffffffffffffff82111561229657612295612200565b5b61229f8261205f565b9050602081019050919050565b82818337600083830152505050565b60006122ce6122c98461227b565b612260565b9050828152602081018484840111156122ea576122e96121fb565b5b6122f58482856122ac565b509392505050565b600082601f830112612312576123116121f6565b5b81356123228482602086016122bb565b91505092915050565b6000806040838503121561234257612341611f54565b5b6000612350858286016120ec565b925050602083013567ffffffffffffffff81111561237157612370611f59565b5b61237d858286016122fd565b9150509250929050565b6000806000606084860312156123a05761239f611f54565b5b60006123ae868287016121a1565b93505060206123bf868287016121a1565b92505060406123d0868287016120ec565b9150509250925092565b6000602082840312156123f0576123ef611f54565b5b60006123fe848285016121a1565b91505092915050565b612410816120cb565b82525050565b600060208201905061242b6000830184612407565b92915050565b61243a81611fe3565b811461244557600080fd5b50565b60008135905061245781612431565b92915050565b6000806040838503121561247457612473611f54565b5b6000612482858286016121a1565b925050602061249385828601612448565b9150509250929050565b600067ffffffffffffffff8211156124b8576124b7612200565b5b6124c18261205f565b9050602081019050919050565b60006124e16124dc8461249d565b612260565b9050828152602081018484840111156124fd576124fc6121fb565b5b6125088482856122ac565b509392505050565b600082601f830112612525576125246121f6565b5b81356125358482602086016124ce565b91505092915050565b6000806000806080858703121561255857612557611f54565b5b6000612566878288016121a1565b9450506020612577878288016121a1565b9350506040612588878288016120ec565b925050606085013567ffffffffffffffff8111156125a9576125a8611f59565b5b6125b587828801612510565b91505092959194509250565b600080604083850312156125d8576125d7611f54565b5b60006125e6858286016121a1565b92505060206125f7858286016121a1565b9150509250929050565b7f4e487b7100000000000000000000000000000000000000000000000000000000600052602260045260246000fd5b6000600282049050600182168061264857607f821691505b60208210810361265b5761265a612601565b5b50919050565b60008151905061267081612431565b92915050565b60006020828403121561268c5761268b611f54565b5b600061269a84828501612661565b91505092915050565b7f556e617574686f72697a65643a204f6e6c792068696768657220617574686f7260008201527f69746965732063616e206d696e74000000000000000000000000000000000000602082015250565b60006126ff602e83612024565b915061270a826126a3565b604082019050919050565b6000602082019050818103600083015261272e816126f2565b9050919050565b600081519050612744816120d5565b92915050565b6000815190506127598161218a565b92915050565b600061277261276d8461227b565b612260565b90508281526020810184848401111561278e5761278d6121fb565b5b612799848285612035565b509392505050565b600082601f8301126127b6576127b56121f6565b5b81516127c684826020860161275f565b91505092915050565b600080600080600060a086880312156127eb576127ea611f54565b5b60006127f988828901612735565b955050602061280a8882890161274a565b945050604086015167ffffffffffffffff81111561282b5761282a611f59565b5b612837888289016127a1565b935050606061284888828901612661565b92505060806128598882890161274a565b9150509295509295909350565b7f446f63756d656e74206e6f742076657269666965640000000000000000000000600082015250565b600061289c601583612024565b91506128a782612866565b602082019050919050565b600060208201905081810360008301526128cb8161288f565b9050919050565b7f4e487b7100000000000000000000000000000000000000000000000000000000600052601160045260246000fd5b600061290c826120cb565b91507fffffffffffffffffffffffffffffffffffffffffffffffffffffffffffffffff820361293e5761293d6128d2565b5b600182019050919050565b600060608201905061295e6000830186612160565b61296b6020830185612407565b6129786040830184612160565b949350505050565b7f556e617574686f72697a6564207472616e736665723a204e6f74206f776e657260008201527f206f7220617070726f7665640000000000000000000000000000000000000000602082015250565b60006129dc602c83612024565b91506129e782612980565b604082019050919050565b60006020820190508181036000830152612a0b816129cf565b9050919050565b60008190508160005260206000209050919050565b60006020601f8301049050919050565b600082821b905092915050565b600060088302612a747fffffffffffffffffffffffffffffffffffffffffffffffffffffffffffffffff82612a37565b612a7e8683612a37565b95508019841693508086168417925050509392505050565b6000819050919050565b6000612abb612ab6612ab1846120cb565b612a96565b6120cb565b9050919050565b6000819050919050565b612ad583612aa0565b612ae9612ae182612ac2565b848454612a44565b825550505050565b600090565b612afe612af1565b612b09818484612acc565b505050565b5b81811015612b2d57612b22600082612af6565b600181019050612b0f565b5050565b601f821115612b7257612b4381612a12565b612b4c84612a27565b81016020851015612b5b578190505b612b6f612b6785612a27565b830182612b0e565b50505b505050565b600082821c905092915050565b6000612b9560001984600802612b77565b1980831691505092915050565b6000612bae8383612b84565b9150826002028217905092915050565b612bc782612019565b67ffffffffffffffff811115612be057612bdf612200565b5b612bea8254612630565b612bf5828285612b31565b600060209050601f831160018114612c285760008415612c16578287015190505b612c208582612ba2565b865550612c88565b601f198416612c3686612a12565b60005b82811015612c5e57848901518255600182019150602085019450602081019050612c39565b86831015612c7b5784890151612c77601f891682612b84565b8355505b6001600288020188555050505b505050505050565b50565b6000612ca0600083612024565b9150612cab82612c90565b600082019050919050565b60006020820190508181036000830152612ccf81612c93565b9050919050565b600081519050919050565b600082825260208201905092915050565b6000612cfd82612cd6565b612d078185612ce1565b9350612d17818560208601612035565b612d208161205f565b840191505092915050565b6000608082019050612d406000830187612160565b612d4d6020830186612160565b612d5a6040830185612407565b8181036060830152612d6c8184612cf2565b905095945050505050565b600081519050612d8681611f8a565b92915050565b600060208284031215612da257612da1611f54565b5b6000612db084828501612d77565b91505092915050565b600081905092915050565b6000612dcf82612019565b612dd98185612db9565b9350612de9818560208601612035565b80840191505092915050565b6000612e018285612dc4565b9150612e0d8284612dc4565b91508190509392505050565b6000604082019050612e2e6000830185612160565b612e3b6020830184612407565b9392505050565b7f4e487b7100000000000000000000000000000000000000000000000000000000600052601260045260246000fdfea26469706673582212205d9bd604e2d7168e0c2ff35abf468e9d571b977c231b3a75db7c22995489c85c64736f6c63430008140033",
  "linkReferences": {},
  "deployedLinkReferences": {}
}