{
  "_format": "hh-sol-artifact-1",
  "contractName": "Institute",
  "sourceName": "contracts/Institute.sol",
  "abi": [
    {
      "inputs": [
        {
          "internalType": "address",
          "name": "_institute",
          "type": "address"
        },
        {
          "internalType": "address",
          "name": "_higherAuthority",
          "type": "address"
        },
        {
          "internalType": "address",
          "name": "_identityRegistry",
          "type": "address"
        }
      ],
      "stateMutability": "nonpayable",
      "type": "constructor"
    },
    {
      "inputs": [
        {
          "internalType": "address",
          "name": "sender",
          "type": "address"
        },
        {
          "internalType": "uint256",
          "name": "tokenId",
          "type": "uint256"
        },
        {
          "internalType": "address",
          "name": "owner",
          "type": "address"
        }
      ],
      "name": "ERC721IncorrectOwner",
      "type": "error"
    },
    {
      "inputs": [
        {
          "internalType": "address",
          "name": "operator",
          "type": "address"
        },
        {
          "internalType": "uint256",
          "name": "tokenId",
          "type": "uint256"
        }
      ],
      "name": "ERC721InsufficientApproval",
      "type": "error"
    },
    {
      "inputs": [
        {
          "internalType": "address",
          "name": "approver",
          "type": "address"
        }
      ],
      "name": "ERC721InvalidApprover",
      "type": "error"
    },
    {
      "inputs": [
        {
          "internalType": "address",
          "name": "operator",
          "type": "address"
        }
      ],
      "name": "ERC721InvalidOperator",
      "type": "error"
    },
    {
      "inputs": [
        {
          "internalType": "address",
          "name": "owner",
          "type": "address"
        }
      ],
      "name": "ERC721InvalidOwner",
      "type": "error"
    },
    {
      "inputs": [
        {
          "internalType": "address",
          "name": "receiver",
          "type": "address"
        }
      ],
      "name": "ERC721InvalidReceiver",
      "type": "error"
    },
    {
      "inputs": [
        {
          "internalType": "address",
          "name": "sender",
          "type": "address"
        }
      ],
      "name": "ERC721InvalidSender",
      "type": "error"
    },
    {
      "inputs": [
        {
          "internalType": "uint256",
          "name": "tokenId",
          "type": "uint256"
        }
      ],
      "name": "ERC721NonexistentToken",
      "type": "error"
    },
    {
      "inputs": [
        {
          "internalType": "address",
          "name": "owner",
          "type": "address"
        }
      ],
      "name": "OwnableInvalidOwner",
      "type": "error"
    },
    {
      "inputs": [
        {
          "internalType": "address",
          "name": "account",
          "type": "address"
        }
      ],
      "name": "OwnableUnauthorizedAccount",
      "type": "error"
    },
    {
      "anonymous": false,
      "inputs": [
        {
          "indexed": true,
          "internalType": "address",
          "name": "owner",
          "type": "address"
        },
        {
          "indexed": true,
          "internalType": "address",
          "name": "approved",
          "type": "address"
        },
        {
          "indexed": true,
          "internalType": "uint256",
          "name": "tokenId",
          "type": "uint256"
        }
      ],
      "name": "Approval",
      "type": "event"
    },
    {
      "anonymous": false,
      "inputs": [
        {
          "indexed": true,
          "internalType": "address",
          "name": "owner",
          "type": "address"
        },
        {
          "indexed": true,
          "internalType": "address",
          "name": "operator",
          "type": "address"
        },
        {
          "indexed": false,
          "internalType": "bool",
          "name": "approved",
          "type": "bool"
        }
      ],
      "name": "ApprovalForAll",
      "type": "event"
    },
    {
      "anonymous": false,
      "inputs": [
        {
          "indexed": false,
          "internalType": "uint256",
          "name": "amount",
          "type": "uint256"
        },
        {
          "indexed": false,
          "internalType": "uint256",
          "name": "price",
          "type": "uint256"
        }
      ],
      "name": "CreditsPurchased",
      "type": "event"
    },
    {
      "anonymous": false,
      "inputs": [
        {
          "indexed": true,
          "internalType": "bytes32",
          "name": "documentHash",
          "type": "bytes32"
        }
      ],
      "name": "DocumentRequestSubmitted",
      "type": "event"
    },
    {
      "anonymous": false,
      "inputs": [
        {
          "indexed": true,
          "internalType": "address",
          "name": "previousOwner",
          "type": "address"
        },
        {
          "indexed": true,
          "internalType": "address",
          "name": "newOwner",
          "type": "address"
        }
      ],
      "name": "OwnershipTransferred",
      "type": "event"
    },
    {
      "anonymous": false,
      "inputs": [
        {
          "indexed": true,
          "internalType": "address",
          "name": "to",
          "type": "address"
        },
        {
          "indexed": true,
          "internalType": "uint256",
          "name": "tokenId",
          "type": "uint256"
        },
        {
          "indexed": true,
          "internalType": "bytes32",
          "name": "documentHash",
          "type": "bytes32"
        }
      ],
      "name": "SoulBoundTokenMinted",
      "type": "event"
    },
    {
      "anonymous": false,
      "inputs": [
        {
          "indexed": true,
          "internalType": "uint256",
          "name": "tokenId",
          "type": "uint256"
        },
        {
          "indexed": true,
          "internalType": "bytes32",
          "name": "documentHash",
          "type": "bytes32"
        }
      ],
      "name": "SoulBoundTokenRevoked",
      "type": "event"
    },
    {
      "anonymous": false,
      "inputs": [
        {
          "indexed": true,
          "internalType": "address",
          "name": "from",
          "type": "address"
        },
        {
          "indexed": true,
          "internalType": "address",
          "name": "to",
          "type": "address"
        },
        {
          "indexed": true,
          "internalType": "uint256",
          "name": "tokenId",
          "type": "uint256"
        }
      ],
      "name": "Transfer",
      "type": "event"
    },
    {
      "inputs": [],
      "name": "BASIC_PLAN_CREDITS",
      "outputs": [
        {
          "internalType": "uint256",
          "name": "",
          "type": "uint256"
        }
      ],
      "stateMutability": "view",
      "type": "function"
    },
    {
      "inputs": [],
      "name": "BASIC_PLAN_PRICE",
      "outputs": [
        {
          "internalType": "uint256",
          "name": "",
          "type": "uint256"
        }
      ],
      "stateMutability": "view",
      "type": "function"
    },
    {
      "inputs": [],
      "name": "PREMIUM_PLAN_CREDITS",
      "outputs": [
        {
          "internalType": "uint256",
          "name": "",
          "type": "uint256"
        }
      ],
      "stateMutability": "view",
      "type": "function"
    },
    {
      "inputs": [],
      "name": "PREMIUM_PLAN_PRICE",
      "outputs": [
        {
          "internalType": "uint256",
          "name": "",
          "type": "uint256"
        }
      ],
      "stateMutability": "view",
      "type": "function"
    },
    {
      "inputs": [],
      "name": "STANDARD_PLAN_CREDITS",
      "outputs": [
        {
          "internalType": "uint256",
          "name": "",
          "type": "uint256"
        }
      ],
      "stateMutability": "view",
      "type": "function"
    },
    {
      "inputs": [],
      "name": "STANDARD_PLAN_PRICE",
      "outputs": [
        {
          "internalType": "uint256",
          "name": "",
          "type": "uint256"
        }
      ],
      "stateMutability": "view",
      "type": "function"
    },
    {
      "inputs": [
        {
          "internalType": "address",
          "name": "to",
          "type": "address"
        },
        {
          "internalType": "uint256",
          "name": "tokenId",
          "type": "uint256"
        }
      ],
      "name": "approve",
      "outputs": [],
      "stateMutability": "nonpayable",
      "type": "function"
    },
    {
      "inputs": [
        {
          "internalType": "bytes32",
          "name": "_documentHash",
          "type": "bytes32"
        }
      ],
      "name": "approveDocument",
      "outputs": [],
      "stateMutability": "nonpayable",
      "type": "function"
    },
    {
      "inputs": [
        {
          "internalType": "bytes32",
          "name": "",
          "type": "bytes32"
        }
      ],
      "name": "approvedDocuments",
      "outputs": [
        {
          "internalType": "bool",
          "name": "",
          "type": "bool"
        }
      ],
      "stateMutability": "view",
      "type": "function"
    },
    {
      "inputs": [
        {
          "internalType": "address",
          "name": "owner",
          "type": "address"
        }
      ],
      "name": "balanceOf",
      "outputs": [
        {
          "internalType": "uint256",
          "name": "",
          "type": "uint256"
        }
      ],
      "stateMutability": "view",
      "type": "function"
    },
    {
      "inputs": [],
      "name": "creditBalance",
      "outputs": [
        {
          "internalType": "uint256",
          "name": "",
          "type": "uint256"
        }
      ],
      "stateMutability": "view",
      "type": "function"
    },
    {
      "inputs": [
        {
          "internalType": "bytes32",
          "name": "",
          "type": "bytes32"
        }
      ],
      "name": "documentRequests",
      "outputs": [
        {
          "internalType": "bool",
          "name": "",
          "type": "bool"
        }
      ],
      "stateMutability": "view",
      "type": "function"
    },
    {
      "inputs": [
        {
          "internalType": "uint256",
          "name": "tokenId",
          "type": "uint256"
        }
      ],
      "name": "getApproved",
      "outputs": [
        {
          "internalType": "address",
          "name": "",
          "type": "address"
        }
      ],
      "stateMutability": "view",
      "type": "function"
    },
    {
      "inputs": [],
      "name": "getCreditBalance",
      "outputs": [
        {
          "internalType": "uint256",
          "name": "",
          "type": "uint256"
        }
      ],
      "stateMutability": "view",
      "type": "function"
    },
    {
      "inputs": [],
      "name": "higherAuthority",
      "outputs": [
        {
          "internalType": "address",
          "name": "",
          "type": "address"
        }
      ],
      "stateMutability": "view",
      "type": "function"
    },
    {
      "inputs": [],
      "name": "identityRegistry",
      "outputs": [
        {
          "internalType": "contract IdentityRegistry",
          "name": "",
          "type": "address"
        }
      ],
      "stateMutability": "view",
      "type": "function"
    },
    {
      "inputs": [],
      "name": "instituteAddress",
      "outputs": [
        {
          "internalType": "address",
          "name": "",
          "type": "address"
        }
      ],
      "stateMutability": "view",
      "type": "function"
    },
    {
      "inputs": [
        {
          "internalType": "address",
          "name": "owner",
          "type": "address"
        },
        {
          "internalType": "address",
          "name": "operator",
          "type": "address"
        }
      ],
      "name": "isApprovedForAll",
      "outputs": [
        {
          "internalType": "bool",
          "name": "",
          "type": "bool"
        }
      ],
      "stateMutability": "view",
      "type": "function"
    },
    {
      "inputs": [
        {
          "internalType": "address",
          "name": "_to",
          "type": "address"
        },
        {
          "internalType": "bytes32",
          "name": "_documentHash",
          "type": "bytes32"
        }
      ],
      "name": "mintSoulBoundToken",
      "outputs": [],
      "stateMutability": "nonpayable",
      "type": "function"
    },
    {
      "inputs": [],
      "name": "name",
      "outputs": [
        {
          "internalType": "string",
          "name": "",
          "type": "string"
        }
      ],
      "stateMutability": "view",
      "type": "function"
    },
    {
      "inputs": [],
      "name": "owner",
      "outputs": [
        {
          "internalType": "address",
          "name": "",
          "type": "address"
        }
      ],
      "stateMutability": "view",
      "type": "function"
    },
    {
      "inputs": [
        {
          "internalType": "uint256",
          "name": "tokenId",
          "type": "uint256"
        }
      ],
      "name": "ownerOf",
      "outputs": [
        {
          "internalType": "address",
          "name": "",
          "type": "address"
        }
      ],
      "stateMutability": "view",
      "type": "function"
    },
    {
      "inputs": [
        {
          "internalType": "uint256",
          "name": "planType",
          "type": "uint256"
        }
      ],
      "name": "purchaseCredits",
      "outputs": [],
      "stateMutability": "payable",
      "type": "function"
    },
    {
      "inputs": [
        {
          "internalType": "bytes32",
          "name": "_documentHash",
          "type": "bytes32"
        }
      ],
      "name": "rejectDocument",
      "outputs": [],
      "stateMutability": "nonpayable",
      "type": "function"
    },
    {
      "inputs": [],
      "name": "renounceOwnership",
      "outputs": [],
      "stateMutability": "nonpayable",
      "type": "function"
    },
    {
      "inputs": [
        {
          "internalType": "uint256",
          "name": "_tokenId",
          "type": "uint256"
        }
      ],
      "name": "revokeSoulBoundToken",
      "outputs": [],
      "stateMutability": "nonpayable",
      "type": "function"
    },
    {
      "inputs": [
        {
          "internalType": "address",
          "name": "from",
          "type": "address"
        },
        {
          "internalType": "address",
          "name": "to",
          "type": "address"
        },
        {
          "internalType": "uint256",
          "name": "tokenId",
          "type": "uint256"
        }
      ],
      "name": "safeTransferFrom",
      "outputs": [],
      "stateMutability": "nonpayable",
      "type": "function"
    },
    {
      "inputs": [
        {
          "internalType": "address",
          "name": "from",
          "type": "address"
        },
        {
          "internalType": "address",
          "name": "to",
          "type": "address"
        },
        {
          "internalType": "uint256",
          "name": "tokenId",
          "type": "uint256"
        },
        {
          "internalType": "bytes",
          "name": "data",
          "type": "bytes"
        }
      ],
      "name": "safeTransferFrom",
      "outputs": [],
      "stateMutability": "nonpayable",
      "type": "function"
    },
    {
      "inputs": [
        {
          "internalType": "address",
          "name": "operator",
          "type": "address"
        },
        {
          "internalType": "bool",
          "name": "approved",
          "type": "bool"
        }
      ],
      "name": "setApprovalForAll",
      "outputs": [],
      "stateMutability": "nonpayable",
      "type": "function"
    },
    {
      "inputs": [
        {
          "internalType": "bytes32",
          "name": "_documentHash",
          "type": "bytes32"
        }
      ],
      "name": "submitDocumentRequest",
      "outputs": [],
      "stateMutability": "nonpayable",
      "type": "function"
    },
    {
      "inputs": [
        {
          "internalType": "bytes4",
          "name": "interfaceId",
          "type": "bytes4"
        }
      ],
      "name": "supportsInterface",
      "outputs": [
        {
          "internalType": "bool",
          "name": "",
          "type": "bool"
        }
      ],
      "stateMutability": "view",
      "type": "function"
    },
    {
      "inputs": [],
      "name": "symbol",
      "outputs": [
        {
          "internalType": "string",
          "name": "",
          "type": "string"
        }
      ],
      "stateMutability": "view",
      "type": "function"
    },
    {
      "inputs": [
        {
          "internalType": "uint256",
          "name": "",
          "type": "uint256"
        }
      ],
      "name": "tokenToDocument",
      "outputs": [
        {
          "internalType": "bytes32",
          "name": "",
          "type": "bytes32"
        }
      ],
      "stateMutability": "view",
      "type": "function"
    },
    {
      "inputs": [
        {
          "internalType": "uint256",
          "name": "tokenId",
          "type": "uint256"
        }
      ],
      "name": "tokenURI",
      "outputs": [
        {
          "internalType": "string",
          "name": "",
          "type": "string"
        }
      ],
      "stateMutability": "view",
      "type": "function"
    },
    {
      "inputs": [
        {
          "internalType": "address",
          "name": "from",
          "type": "address"
        },
        {
          "internalType": "address",
          "name": "to",
          "type": "address"
        },
        {
          "internalType": "uint256",
          "name": "tokenId",
          "type": "uint256"
        }
      ],
      "name": "transferFrom",
      "outputs": [],
      "stateMutability": "nonpayable",
      "type": "function"
    },
    {
      "inputs": [
        {
          "internalType": "address",
          "name": "newOwner",
          "type": "address"
        }
      ],
      "name": "transferOwnership",
      "outputs": [],
      "stateMutability": "nonpayable",
      "type": "function"
    }
  ],
  "bytecode": "0x60806040523480156200001157600080fd5b5060405162001e9638038062001e96833981016040819052620000349162000196565b336040518060400160405280600e81526020016d29b7bab62137bab7322a37b5b2b760911b8152506040518060400160405280600381526020016214d09560ea1b815250816000908162000089919062000285565b50600162000098828262000285565b5050506001600160a01b038116620000ca57604051631e4fbdf760e01b81526000600482015260240160405180910390fd5b620000d58162000127565b50600780546001600160a01b038086166001600160a01b0319928316179092556008805485841690831617905560098054928416929091169190911790556200011e8362000127565b50505062000351565b600680546001600160a01b038381166001600160a01b0319831681179093556040519116919082907f8be0079c531659141344cd1fd0a4f28419497f9722a3daafe3b4186f6b6457e090600090a35050565b80516001600160a01b03811681146200019157600080fd5b919050565b600080600060608486031215620001ac57600080fd5b620001b78462000179565b9250620001c76020850162000179565b9150620001d76040850162000179565b90509250925092565b634e487b7160e01b600052604160045260246000fd5b600181811c908216806200020b57607f821691505b6020821081036200022c57634e487b7160e01b600052602260045260246000fd5b50919050565b601f8211156200028057600081815260208120601f850160051c810160208610156200025b5750805b601f850160051c820191505b818110156200027c5782815560010162000267565b5050505b505050565b81516001600160401b03811115620002a157620002a1620001e0565b620002b981620002b28454620001f6565b8462000232565b602080601f831160018114620002f15760008415620002d85750858301515b600019600386901b1c1916600185901b1785556200027c565b600085815260208120601f198616915b82811015620003225788860151825594840194600190910190840162000301565b5085821015620003415787850151600019600388901b60f8161c191681555b5050505050600190811b01905550565b611b3580620003616000396000f3fe60806040526004361061020f5760003560e01c8063852394f611610118578063b88d4fde116100a0578063d93c7f8b1161006f578063d93c7f8b146105e4578063ddd118b714610611578063def75e041461062e578063e985e9c51461065e578063f2fde38b1461067e57600080fd5b8063b88d4fde14610571578063bef101fb14610591578063c0d2beb7146105a4578063c87b56dd146105c457600080fd5b8063965a0a34116100e7578063965a0a34146104e95780639d5637d014610509578063a22cb4651461051e578063a8c88bbb1461053e578063ac71bfb21461055457600080fd5b8063852394f6146104665780638c102a6c146104965780638da5cb5b146104b657806395d89b41146104d457600080fd5b8063335039d61161019b57806354d0dd4c1161016a57806354d0dd4c146103db57806356320de9146103fb5780636352211e1461041157806370a0823114610431578063715018a61461045157600080fd5b8063335039d61461037057806336da26e01461039057806342842e0e146103a55780635060d397146103c557600080fd5b80630e636915116101e25780630e636915146102c5578063134e18f4146102f057806318afd1271461031057806323b872dd1461033057806327c10cfb1461035057600080fd5b806301ffc9a71461021457806306fdde0314610249578063081812fc1461026b578063095ea7b3146102a3575b600080fd5b34801561022057600080fd5b5061023461022f366004611700565b61069e565b60405190151581526020015b60405180910390f35b34801561025557600080fd5b5061025e6106f0565b604051610240919061176d565b34801561027757600080fd5b5061028b610286366004611780565b610782565b6040516001600160a01b039091168152602001610240565b3480156102af57600080fd5b506102c36102be3660046117b5565b6107ab565b005b3480156102d157600080fd5b506102e268056bc75e2d6310000081565b604051908152602001610240565b3480156102fc57600080fd5b5060095461028b906001600160a01b031681565b34801561031c57600080fd5b506102c361032b3660046117b5565b6107ba565b34801561033c57600080fd5b506102c361034b3660046117df565b610888565b34801561035c57600080fd5b5060075461028b906001600160a01b031681565b34801561037c57600080fd5b506102c361038b366004611780565b610913565b34801561039c57600080fd5b50600e546102e2565b3480156103b157600080fd5b506102c36103c03660046117df565b6109bc565b3480156103d157600080fd5b506102e26105dc81565b3480156103e757600080fd5b506102c36103f6366004611780565b6109dc565b34801561040757600080fd5b506102e2600e5481565b34801561041d57600080fd5b5061028b61042c366004611780565b610a3b565b34801561043d57600080fd5b506102e261044c36600461181b565b610a46565b34801561045d57600080fd5b506102c3610a8e565b34801561047257600080fd5b50610234610481366004611780565b600b6020526000908152604090205460ff1681565b3480156104a257600080fd5b5060085461028b906001600160a01b031681565b3480156104c257600080fd5b506006546001600160a01b031661028b565b3480156104e057600080fd5b5061025e610aa2565b3480156104f557600080fd5b506102c3610504366004611780565b610ab1565b34801561051557600080fd5b506102e2606481565b34801561052a57600080fd5b506102c3610539366004611836565b610b5d565b34801561054a57600080fd5b506102e26101f481565b34801561056057600080fd5b506102e26828a857425466f8000081565b34801561057d57600080fd5b506102c361058c366004611888565b610b68565b6102c361059f366004611780565b610b7f565b3480156105b057600080fd5b506102c36105bf366004611780565b610cc0565b3480156105d057600080fd5b5061025e6105df366004611780565b610dd5565b3480156105f057600080fd5b506102e26105ff366004611780565b600d6020526000908152604090205481565b34801561061d57600080fd5b506102e26812f939c99edab8000081565b34801561063a57600080fd5b50610234610649366004611780565b600c6020526000908152604090205460ff1681565b34801561066a57600080fd5b50610234610679366004611964565b610e4a565b34801561068a57600080fd5b506102c361069936600461181b565b610e78565b60006001600160e01b031982166380ac58cd60e01b14806106cf57506001600160e01b03198216635b5e139f60e01b145b806106ea57506301ffc9a760e01b6001600160e01b03198316145b92915050565b6060600080546106ff90611997565b80601f016020809104026020016040519081016040528092919081815260200182805461072b90611997565b80156107785780601f1061074d57610100808354040283529160200191610778565b820191906000526020600020905b81548152906001019060200180831161075b57829003601f168201915b5050505050905090565b600061078d82610eb6565b506000828152600460205260409020546001600160a01b03166106ea565b6107b6828233610eef565b5050565b6107c2610efc565b6000818152600c602052604090205460ff1661081d5760405162461bcd60e51b8152602060048201526015602482015274111bd8dd5b595b9d081b9bdd08185c1c1c9bdd9959605a1b60448201526064015b60405180910390fd5b600a80546000918261082e836119e7565b91905055905061083e8382610f29565b6000818152600d602052604080822084905551839183916001600160a01b038716917fe0106db28832af19ff78a393a4755726bb77bf6c5216f20c791af73ab871d01691a4505050565b6001600160a01b0382166108b257604051633250574960e11b815260006004820152602401610814565b60006108bf838333610f43565b9050836001600160a01b0316816001600160a01b03161461090d576040516364283d7b60e01b81526001600160a01b0380861660048301526024820184905282166044820152606401610814565b50505050565b6008546001600160a01b0316336001600160a01b0316146109465760405162461bcd60e51b815260040161081490611a00565b6000818152600b602052604090205460ff166109a45760405162461bcd60e51b815260206004820152601e60248201527f446f63756d656e742072657175657374206e6f74207375626d697474656400006044820152606401610814565b6000908152600b60205260409020805460ff19169055565b6109d783838360405180602001604052806000815250610b68565b505050565b6109e4610efc565b6000818152600d60205260409020546109fc82610fe5565b6000828152600d602052604080822082905551829184917f7bf811be4b63e212acf02f401f892c626d1a7ff23e7184606c9b646b351ad2289190a35050565b60006106ea82610eb6565b60006001600160a01b038216610a72576040516322718ad960e21b815260006004820152602401610814565b506001600160a01b031660009081526003602052604090205490565b610a96610efc565b610aa06000611020565b565b6060600180546106ff90611997565b6008546001600160a01b0316336001600160a01b031614610ae45760405162461bcd60e51b815260040161081490611a00565b6000818152600b602052604090205460ff16610b425760405162461bcd60e51b815260206004820152601e60248201527f446f63756d656e742072657175657374206e6f74207375626d697474656400006044820152606401610814565b6000908152600c60205260409020805460ff19166001179055565b6107b6338383611072565b610b73848484610888565b61090d84848484611111565b610b87610efc565b60008082600103610ba657506064905068056bc75e2d63100000610c1c565b82600203610bc357506101f490506812f939c99edab80000610c1c565b82600303610be057506105dc90506828a857425466f80000610c1c565b60405162461bcd60e51b8152602060048201526011602482015270496e76616c696420706c616e207479706560781b6044820152606401610814565b803414610c6b5760405162461bcd60e51b815260206004820152601860248201527f496e636f7272656374207061796d656e7420616d6f756e7400000000000000006044820152606401610814565b81600e6000828254610c7d9190611a4c565b909155505060408051838152602081018390527fdbe39cba979d975d532fdccea304c79ef558c3d7d0017210994f0d950a6a19bb910160405180910390a1505050565b610cc8610efc565b6000818152600b602052604090205460ff1615610d325760405162461bcd60e51b815260206004820152602260248201527f446f63756d656e74207265717565737420616c7265616479207375626d697474604482015261195960f21b6064820152608401610814565b6000600e5411610d7b5760405162461bcd60e51b8152602060048201526014602482015273496e73756666696369656e74206372656469747360601b6044820152606401610814565b6000818152600b60205260408120805460ff19166001179055600e805491610da283611a5f565b909155505060405181907fd5ada0bbc30c773e6e013fab1c7daef52e78ac91ba0748530577e0f3a75b5f9290600090a250565b6060610de082610eb6565b506000610df860408051602081019091526000815290565b90506000815111610e185760405180602001604052806000815250610e43565b80610e228461123a565b604051602001610e33929190611a76565b6040516020818303038152906040525b9392505050565b6001600160a01b03918216600090815260056020908152604080832093909416825291909152205460ff1690565b610e80610efc565b6001600160a01b038116610eaa57604051631e4fbdf760e01b815260006004820152602401610814565b610eb381611020565b50565b6000818152600260205260408120546001600160a01b0316806106ea57604051637e27328960e01b815260048101849052602401610814565b6109d783838360016112cd565b6006546001600160a01b03163314610aa05760405163118cdaa760e01b8152336004820152602401610814565b6107b68282604051806020016040528060008152506113d3565b6000828152600260205260408120546001600160a01b0316801580610f6f57506001600160a01b038516155b610fd15760405162461bcd60e51b815260206004820152602d60248201527f536f756c426f756e64546f6b656e3a20746f6b656e207472616e73666572206960448201526c1cc81b9bdd08185b1b1bddd959609a1b6064820152608401610814565b610fdc8585856113ea565b95945050505050565b6000610ff46000836000610f43565b90506001600160a01b0381166107b657604051637e27328960e01b815260048101839052602401610814565b600680546001600160a01b038381166001600160a01b0319831681179093556040519116919082907f8be0079c531659141344cd1fd0a4f28419497f9722a3daafe3b4186f6b6457e090600090a35050565b6001600160a01b0382166110a457604051630b61174360e31b81526001600160a01b0383166004820152602401610814565b6001600160a01b03838116600081815260056020908152604080832094871680845294825291829020805460ff191686151590811790915591519182527f17307eab39ab6107e8899845ad3d59bd9653f200f220920489ca2b5937696c31910160405180910390a3505050565b6001600160a01b0383163b1561090d57604051630a85bd0160e11b81526001600160a01b0384169063150b7a0290611153903390889087908790600401611aa5565b6020604051808303816000875af192505050801561118e575060408051601f3d908101601f1916820190925261118b91810190611ae2565b60015b6111f7573d8080156111bc576040519150601f19603f3d011682016040523d82523d6000602084013e6111c1565b606091505b5080516000036111ef57604051633250574960e11b81526001600160a01b0385166004820152602401610814565b805181602001fd5b6001600160e01b03198116630a85bd0160e11b1461123357604051633250574960e11b81526001600160a01b0385166004820152602401610814565b5050505050565b60606000611247836114e3565b600101905060008167ffffffffffffffff81111561126757611267611872565b6040519080825280601f01601f191660200182016040528015611291576020820181803683370190505b5090508181016020015b600019016f181899199a1a9b1b9c1cb0b131b232b360811b600a86061a8153600a850494508461129b57509392505050565b80806112e157506001600160a01b03821615155b156113a35760006112f184610eb6565b90506001600160a01b0383161580159061131d5750826001600160a01b0316816001600160a01b031614155b8015611330575061132e8184610e4a565b155b156113595760405163a9fbf51f60e01b81526001600160a01b0384166004820152602401610814565b81156113a15783856001600160a01b0316826001600160a01b03167f8c5be1e5ebec7d5bd14f71427d1e84f3dd0314c0f7b2291e5b200ac8c7c3b92560405160405180910390a45b505b5050600090815260046020526040902080546001600160a01b0319166001600160a01b0392909216919091179055565b6113dd83836115bb565b6109d76000848484611111565b6000828152600260205260408120546001600160a01b039081169083161561141757611417818486611620565b6001600160a01b03811615611455576114346000856000806112cd565b6001600160a01b038116600090815260036020526040902080546000190190555b6001600160a01b03851615611484576001600160a01b0385166000908152600360205260409020805460010190555b60008481526002602052604080822080546001600160a01b0319166001600160a01b0389811691821790925591518793918516917fddf252ad1be2c89b69c2b068fc378daa952ba7f163c4a11628f55a4df523b3ef91a4949350505050565b60008072184f03e93ff9f4daa797ed6e38ed64bf6a1f0160401b83106115225772184f03e93ff9f4daa797ed6e38ed64bf6a1f0160401b830492506040015b6d04ee2d6d415b85acef8100000000831061154e576d04ee2d6d415b85acef8100000000830492506020015b662386f26fc10000831061156c57662386f26fc10000830492506010015b6305f5e1008310611584576305f5e100830492506008015b612710831061159857612710830492506004015b606483106115aa576064830492506002015b600a83106106ea5760010192915050565b6001600160a01b0382166115e557604051633250574960e11b815260006004820152602401610814565b60006115f383836000610f43565b90506001600160a01b038116156109d7576040516339e3563760e11b815260006004820152602401610814565b61162b838383611684565b6109d7576001600160a01b03831661165957604051637e27328960e01b815260048101829052602401610814565b60405163177e802f60e01b81526001600160a01b038316600482015260248101829052604401610814565b60006001600160a01b038316158015906116e25750826001600160a01b0316846001600160a01b031614806116be57506116be8484610e4a565b806116e257506000828152600460205260409020546001600160a01b038481169116145b949350505050565b6001600160e01b031981168114610eb357600080fd5b60006020828403121561171257600080fd5b8135610e43816116ea565b60005b83811015611738578181015183820152602001611720565b50506000910152565b6000815180845261175981602086016020860161171d565b601f01601f19169290920160200192915050565b602081526000610e436020830184611741565b60006020828403121561179257600080fd5b5035919050565b80356001600160a01b03811681146117b057600080fd5b919050565b600080604083850312156117c857600080fd5b6117d183611799565b946020939093013593505050565b6000806000606084860312156117f457600080fd5b6117fd84611799565b925061180b60208501611799565b9150604084013590509250925092565b60006020828403121561182d57600080fd5b610e4382611799565b6000806040838503121561184957600080fd5b61185283611799565b91506020830135801515811461186757600080fd5b809150509250929050565b634e487b7160e01b600052604160045260246000fd5b6000806000806080858703121561189e57600080fd5b6118a785611799565b93506118b560208601611799565b925060408501359150606085013567ffffffffffffffff808211156118d957600080fd5b818701915087601f8301126118ed57600080fd5b8135818111156118ff576118ff611872565b604051601f8201601f19908116603f0116810190838211818310171561192757611927611872565b816040528281528a602084870101111561194057600080fd5b82602086016020830137600060208483010152809550505050505092959194509250565b6000806040838503121561197757600080fd5b61198083611799565b915061198e60208401611799565b90509250929050565b600181811c908216806119ab57607f821691505b6020821081036119cb57634e487b7160e01b600052602260045260246000fd5b50919050565b634e487b7160e01b600052601160045260246000fd5b6000600182016119f9576119f96119d1565b5060010190565b6020808252602c908201527f4f6e6c792068696768657220617574686f726974792063616e2063616c6c207460408201526b3434b990333ab731ba34b7b760a11b606082015260800190565b808201808211156106ea576106ea6119d1565b600081611a6e57611a6e6119d1565b506000190190565b60008351611a8881846020880161171d565b835190830190611a9c81836020880161171d565b01949350505050565b6001600160a01b0385811682528416602082015260408101839052608060608201819052600090611ad890830184611741565b9695505050505050565b600060208284031215611af457600080fd5b8151610e43816116ea56fea26469706673582212207b9684c5d3d6781a90e07fdcaf88a2da5817c59f3fc594cdd741d56d0f6beba864736f6c63430008140033",
  "linkReferences": {},
  "deployedLinkReferences": {}
}