{
  "_format": "hh-sol-artifact-1",
  "contractName": "Institute",
  "sourceName": "contracts/Institute.sol",
  "abi": [
    {
      "inputs": [
        {
          "internalType": "address",
          "name": "_institute",
          "type": "address"
        },
        {
          "internalType": "address",
          "name": "_higherAuthority",
          "type": "address"
        },
        {
          "internalType": "address",
          "name": "_identityRegistry",
          "type": "address"
        }
      ],
      "stateMutability": "nonpayable",
      "type": "constructor"
    },
    {
      "inputs": [
        {
          "internalType": "address",
          "name": "sender",
          "type": "address"
        },
        {
          "internalType": "uint256",
          "name": "tokenId",
          "type": "uint256"
        },
        {
          "internalType": "address",
          "name": "owner",
          "type": "address"
        }
      ],
      "name": "ERC721IncorrectOwner",
      "type": "error"
    },
    {
      "inputs": [
        {
          "internalType": "address",
          "name": "operator",
          "type": "address"
        },
        {
          "internalType": "uint256",
          "name": "tokenId",
          "type": "uint256"
        }
      ],
      "name": "ERC721InsufficientApproval",
      "type": "error"
    },
    {
      "inputs": [
        {
          "internalType": "address",
          "name": "approver",
          "type": "address"
        }
      ],
      "name": "ERC721InvalidApprover",
      "type": "error"
    },
    {
      "inputs": [
        {
          "internalType": "address",
          "name": "operator",
          "type": "address"
        }
      ],
      "name": "ERC721InvalidOperator",
      "type": "error"
    },
    {
      "inputs": [
        {
          "internalType": "address",
          "name": "owner",
          "type": "address"
        }
      ],
      "name": "ERC721InvalidOwner",
      "type": "error"
    },
    {
      "inputs": [
        {
          "internalType": "address",
          "name": "receiver",
          "type": "address"
        }
      ],
      "name": "ERC721InvalidReceiver",
      "type": "error"
    },
    {
      "inputs": [
        {
          "internalType": "address",
          "name": "sender",
          "type": "address"
        }
      ],
      "name": "ERC721InvalidSender",
      "type": "error"
    },
    {
      "inputs": [
        {
          "internalType": "uint256",
          "name": "tokenId",
          "type": "uint256"
        }
      ],
      "name": "ERC721NonexistentToken",
      "type": "error"
    },
    {
      "inputs": [
        {
          "internalType": "address",
          "name": "owner",
          "type": "address"
        }
      ],
      "name": "OwnableInvalidOwner",
      "type": "error"
    },
    {
      "inputs": [
        {
          "internalType": "address",
          "name": "account",
          "type": "address"
        }
      ],
      "name": "OwnableUnauthorizedAccount",
      "type": "error"
    },
    {
      "anonymous": false,
      "inputs": [
        {
          "indexed": true,
          "internalType": "address",
          "name": "owner",
          "type": "address"
        },
        {
          "indexed": true,
          "internalType": "address",
          "name": "approved",
          "type": "address"
        },
        {
          "indexed": true,
          "internalType": "uint256",
          "name": "tokenId",
          "type": "uint256"
        }
      ],
      "name": "Approval",
      "type": "event"
    },
    {
      "anonymous": false,
      "inputs": [
        {
          "indexed": true,
          "internalType": "address",
          "name": "owner",
          "type": "address"
        },
        {
          "indexed": true,
          "internalType": "address",
          "name": "operator",
          "type": "address"
        },
        {
          "indexed": false,
          "internalType": "bool",
          "name": "approved",
          "type": "bool"
        }
      ],
      "name": "ApprovalForAll",
      "type": "event"
    },
    {
      "anonymous": false,
      "inputs": [
        {
          "indexed": false,
          "internalType": "uint256",
          "name": "amount",
          "type": "uint256"
        },
        {
          "indexed": false,
          "internalType": "uint256",
          "name": "price",
          "type": "uint256"
        }
      ],
      "name": "CreditsPurchased",
      "type": "event"
    },
    {
      "anonymous": false,
      "inputs": [
        {
          "indexed": true,
          "internalType": "bytes32",
          "name": "documentHash",
          "type": "bytes32"
        }
      ],
      "name": "DocumentRequestSubmitted",
      "type": "event"
    },
    {
      "anonymous": false,
      "inputs": [
        {
          "indexed": true,
          "internalType": "address",
          "name": "previousOwner",
          "type": "address"
        },
        {
          "indexed": true,
          "internalType": "address",
          "name": "newOwner",
          "type": "address"
        }
      ],
      "name": "OwnershipTransferred",
      "type": "event"
    },
    {
      "anonymous": false,
      "inputs": [
        {
          "indexed": true,
          "internalType": "address",
          "name": "to",
          "type": "address"
        },
        {
          "indexed": true,
          "internalType": "uint256",
          "name": "tokenId",
          "type": "uint256"
        },
        {
          "indexed": true,
          "internalType": "bytes32",
          "name": "documentHash",
          "type": "bytes32"
        }
      ],
      "name": "SoulBoundTokenMinted",
      "type": "event"
    },
    {
      "anonymous": false,
      "inputs": [
        {
          "indexed": true,
          "internalType": "uint256",
          "name": "tokenId",
          "type": "uint256"
        },
        {
          "indexed": true,
          "internalType": "bytes32",
          "name": "documentHash",
          "type": "bytes32"
        }
      ],
      "name": "SoulBoundTokenRevoked",
      "type": "event"
    },
    {
      "anonymous": false,
      "inputs": [
        {
          "indexed": true,
          "internalType": "address",
          "name": "from",
          "type": "address"
        },
        {
          "indexed": true,
          "internalType": "address",
          "name": "to",
          "type": "address"
        },
        {
          "indexed": true,
          "internalType": "uint256",
          "name": "tokenId",
          "type": "uint256"
        }
      ],
      "name": "Transfer",
      "type": "event"
    },
    {
      "inputs": [],
      "name": "BASIC_PLAN_CREDITS",
      "outputs": [
        {
          "internalType": "uint256",
          "name": "",
          "type": "uint256"
        }
      ],
      "stateMutability": "view",
      "type": "function"
    },
    {
      "inputs": [],
      "name": "BASIC_PLAN_PRICE",
      "outputs": [
        {
          "internalType": "uint256",
          "name": "",
          "type": "uint256"
        }
      ],
      "stateMutability": "view",
      "type": "function"
    },
    {
      "inputs": [],
      "name": "PREMIUM_PLAN_CREDITS",
      "outputs": [
        {
          "internalType": "uint256",
          "name": "",
          "type": "uint256"
        }
      ],
      "stateMutability": "view",
      "type": "function"
    },
    {
      "inputs": [],
      "name": "PREMIUM_PLAN_PRICE",
      "outputs": [
        {
          "internalType": "uint256",
          "name": "",
          "type": "uint256"
        }
      ],
      "stateMutability": "view",
      "type": "function"
    },
    {
      "inputs": [],
      "name": "STANDARD_PLAN_CREDITS",
      "outputs": [
        {
          "internalType": "uint256",
          "name": "",
          "type": "uint256"
        }
      ],
      "stateMutability": "view",
      "type": "function"
    },
    {
      "inputs": [],
      "name": "STANDARD_PLAN_PRICE",
      "outputs": [
        {
          "internalType": "uint256",
          "name": "",
          "type": "uint256"
        }
      ],
      "stateMutability": "view",
      "type": "function"
    },
    {
      "inputs": [
        {
          "internalType": "address",
          "name": "to",
          "type": "address"
        },
        {
          "internalType": "uint256",
          "name": "tokenId",
          "type": "uint256"
        }
      ],
      "name": "approve",
      "outputs": [],
      "stateMutability": "nonpayable",
      "type": "function"
    },
    {
      "inputs": [
        {
          "internalType": "bytes32",
          "name": "_documentHash",
          "type": "bytes32"
        }
      ],
      "name": "approveDocument",
      "outputs": [],
      "stateMutability": "nonpayable",
      "type": "function"
    },
    {
      "inputs": [
        {
          "internalType": "bytes32",
          "name": "",
          "type": "bytes32"
        }
      ],
      "name": "approvedDocuments",
      "outputs": [
        {
          "internalType": "bool",
          "name": "",
          "type": "bool"
        }
      ],
      "stateMutability": "view",
      "type": "function"
    },
    {
      "inputs": [
        {
          "internalType": "address",
          "name": "owner",
          "type": "address"
        }
      ],
      "name": "balanceOf",
      "outputs": [
        {
          "internalType": "uint256",
          "name": "",
          "type": "uint256"
        }
      ],
      "stateMutability": "view",
      "type": "function"
    },
    {
      "inputs": [],
      "name": "creditBalance",
      "outputs": [
        {
          "internalType": "uint256",
          "name": "",
          "type": "uint256"
        }
      ],
      "stateMutability": "view",
      "type": "function"
    },
    {
      "inputs": [
        {
          "internalType": "bytes32",
          "name": "",
          "type": "bytes32"
        }
      ],
      "name": "documentRequests",
      "outputs": [
        {
          "internalType": "bool",
          "name": "",
          "type": "bool"
        }
      ],
      "stateMutability": "view",
      "type": "function"
    },
    {
      "inputs": [
        {
          "internalType": "uint256",
          "name": "tokenId",
          "type": "uint256"
        }
      ],
      "name": "getApproved",
      "outputs": [
        {
          "internalType": "address",
          "name": "",
          "type": "address"
        }
      ],
      "stateMutability": "view",
      "type": "function"
    },
    {
      "inputs": [],
      "name": "getCreditBalance",
      "outputs": [
        {
          "internalType": "uint256",
          "name": "",
          "type": "uint256"
        }
      ],
      "stateMutability": "view",
      "type": "function"
    },
    {
      "inputs": [],
      "name": "higherAuthority",
      "outputs": [
        {
          "internalType": "address",
          "name": "",
          "type": "address"
        }
      ],
      "stateMutability": "view",
      "type": "function"
    },
    {
      "inputs": [],
      "name": "identityRegistry",
      "outputs": [
        {
          "internalType": "contract IdentityRegistry",
          "name": "",
          "type": "address"
        }
      ],
      "stateMutability": "view",
      "type": "function"
    },
    {
      "inputs": [],
      "name": "instituteAddress",
      "outputs": [
        {
          "internalType": "address",
          "name": "",
          "type": "address"
        }
      ],
      "stateMutability": "view",
      "type": "function"
    },
    {
      "inputs": [
        {
          "internalType": "address",
          "name": "owner",
          "type": "address"
        },
        {
          "internalType": "address",
          "name": "operator",
          "type": "address"
        }
      ],
      "name": "isApprovedForAll",
      "outputs": [
        {
          "internalType": "bool",
          "name": "",
          "type": "bool"
        }
      ],
      "stateMutability": "view",
      "type": "function"
    },
    {
      "inputs": [
        {
          "internalType": "address",
          "name": "_to",
          "type": "address"
        },
        {
          "internalType": "bytes32",
          "name": "_documentHash",
          "type": "bytes32"
        }
      ],
      "name": "mintSoulBoundToken",
      "outputs": [],
      "stateMutability": "nonpayable",
      "type": "function"
    },
    {
      "inputs": [],
      "name": "name",
      "outputs": [
        {
          "internalType": "string",
          "name": "",
          "type": "string"
        }
      ],
      "stateMutability": "view",
      "type": "function"
    },
    {
      "inputs": [],
      "name": "owner",
      "outputs": [
        {
          "internalType": "address",
          "name": "",
          "type": "address"
        }
      ],
      "stateMutability": "view",
      "type": "function"
    },
    {
      "inputs": [
        {
          "internalType": "uint256",
          "name": "tokenId",
          "type": "uint256"
        }
      ],
      "name": "ownerOf",
      "outputs": [
        {
          "internalType": "address",
          "name": "",
          "type": "address"
        }
      ],
      "stateMutability": "view",
      "type": "function"
    },
    {
      "inputs": [
        {
          "internalType": "uint256",
          "name": "planType",
          "type": "uint256"
        }
      ],
      "name": "purchaseCredits",
      "outputs": [],
      "stateMutability": "payable",
      "type": "function"
    },
    {
      "inputs": [
        {
          "internalType": "bytes32",
          "name": "_documentHash",
          "type": "bytes32"
        }
      ],
      "name": "rejectDocument",
      "outputs": [],
      "stateMutability": "nonpayable",
      "type": "function"
    },
    {
      "inputs": [],
      "name": "renounceOwnership",
      "outputs": [],
      "stateMutability": "nonpayable",
      "type": "function"
    },
    {
      "inputs": [
        {
          "internalType": "uint256",
          "name": "_tokenId",
          "type": "uint256"
        }
      ],
      "name": "revokeSoulBoundToken",
      "outputs": [],
      "stateMutability": "nonpayable",
      "type": "function"
    },
    {
      "inputs": [
        {
          "internalType": "address",
          "name": "from",
          "type": "address"
        },
        {
          "internalType": "address",
          "name": "to",
          "type": "address"
        },
        {
          "internalType": "uint256",
          "name": "tokenId",
          "type": "uint256"
        }
      ],
      "name": "safeTransferFrom",
      "outputs": [],
      "stateMutability": "nonpayable",
      "type": "function"
    },
    {
      "inputs": [
        {
          "internalType": "address",
          "name": "from",
          "type": "address"
        },
        {
          "internalType": "address",
          "name": "to",
          "type": "address"
        },
        {
          "internalType": "uint256",
          "name": "tokenId",
          "type": "uint256"
        },
        {
          "internalType": "bytes",
          "name": "data",
          "type": "bytes"
        }
      ],
      "name": "safeTransferFrom",
      "outputs": [],
      "stateMutability": "nonpayable",
      "type": "function"
    },
    {
      "inputs": [
        {
          "internalType": "address",
          "name": "operator",
          "type": "address"
        },
        {
          "internalType": "bool",
          "name": "approved",
          "type": "bool"
        }
      ],
      "name": "setApprovalForAll",
      "outputs": [],
      "stateMutability": "nonpayable",
      "type": "function"
    },
    {
      "inputs": [
        {
          "internalType": "bytes32",
          "name": "_documentHash",
          "type": "bytes32"
        }
      ],
      "name": "submitDocumentRequest",
      "outputs": [],
      "stateMutability": "nonpayable",
      "type": "function"
    },
    {
      "inputs": [
        {
          "internalType": "bytes4",
          "name": "interfaceId",
          "type": "bytes4"
        }
      ],
      "name": "supportsInterface",
      "outputs": [
        {
          "internalType": "bool",
          "name": "",
          "type": "bool"
        }
      ],
      "stateMutability": "view",
      "type": "function"
    },
    {
      "inputs": [],
      "name": "symbol",
      "outputs": [
        {
          "internalType": "string",
          "name": "",
          "type": "string"
        }
      ],
      "stateMutability": "view",
      "type": "function"
    },
    {
      "inputs": [
        {
          "internalType": "uint256",
          "name": "",
          "type": "uint256"
        }
      ],
      "name": "tokenToDocument",
      "outputs": [
        {
          "internalType": "bytes32",
          "name": "",
          "type": "bytes32"
        }
      ],
      "stateMutability": "view",
      "type": "function"
    },
    {
      "inputs": [
        {
          "internalType": "uint256",
          "name": "tokenId",
          "type": "uint256"
        }
      ],
      "name": "tokenURI",
      "outputs": [
        {
          "internalType": "string",
          "name": "",
          "type": "string"
        }
      ],
      "stateMutability": "view",
      "type": "function"
    },
    {
      "inputs": [
        {
          "internalType": "address",
          "name": "from",
          "type": "address"
        },
        {
          "internalType": "address",
          "name": "to",
          "type": "address"
        },
        {
          "internalType": "uint256",
          "name": "tokenId",
          "type": "uint256"
        }
      ],
      "name": "transferFrom",
      "outputs": [],
      "stateMutability": "nonpayable",
      "type": "function"
    },
    {
      "inputs": [
        {
          "internalType": "address",
          "name": "newOwner",
          "type": "address"
        }
      ],
      "name": "transferOwnership",
      "outputs": [],
      "stateMutability": "nonpayable",
      "type": "function"
    }
  ],
  "bytecode": "0x60806040523480156200001157600080fd5b5060405162003b5d38038062003b5d83398181016040528101906200003791906200035e565b336040518060400160405280600e81526020017f536f756c426f756e64546f6b656e0000000000000000000000000000000000008152506040518060400160405280600381526020017f53425400000000000000000000000000000000000000000000000000000000008152508160009081620000b5919062000634565b508060019081620000c7919062000634565b505050600073ffffffffffffffffffffffffffffffffffffffff168173ffffffffffffffffffffffffffffffffffffffff16036200013f5760006040517f1e4fbdf70000000000000000000000000000000000000000000000000000000081526004016200013691906200072c565b60405180910390fd5b62000150816200022e60201b60201c565b5082600760006101000a81548173ffffffffffffffffffffffffffffffffffffffff021916908373ffffffffffffffffffffffffffffffffffffffff16021790555081600860006101000a81548173ffffffffffffffffffffffffffffffffffffffff021916908373ffffffffffffffffffffffffffffffffffffffff16021790555080600960006101000a81548173ffffffffffffffffffffffffffffffffffffffff021916908373ffffffffffffffffffffffffffffffffffffffff16021790555062000225836200022e60201b60201c565b50505062000749565b6000600660009054906101000a900473ffffffffffffffffffffffffffffffffffffffff16905081600660006101000a81548173ffffffffffffffffffffffffffffffffffffffff021916908373ffffffffffffffffffffffffffffffffffffffff1602179055508173ffffffffffffffffffffffffffffffffffffffff168173ffffffffffffffffffffffffffffffffffffffff167f8be0079c531659141344cd1fd0a4f28419497f9722a3daafe3b4186f6b6457e060405160405180910390a35050565b600080fd5b600073ffffffffffffffffffffffffffffffffffffffff82169050919050565b60006200032682620002f9565b9050919050565b620003388162000319565b81146200034457600080fd5b50565b60008151905062000358816200032d565b92915050565b6000806000606084860312156200037a5762000379620002f4565b5b60006200038a8682870162000347565b93505060206200039d8682870162000347565b9250506040620003b08682870162000347565b9150509250925092565b600081519050919050565b7f4e487b7100000000000000000000000000000000000000000000000000000000600052604160045260246000fd5b7f4e487b7100000000000000000000000000000000000000000000000000000000600052602260045260246000fd5b600060028204905060018216806200043c57607f821691505b602082108103620004525762000451620003f4565b5b50919050565b60008190508160005260206000209050919050565b60006020601f8301049050919050565b600082821b905092915050565b600060088302620004bc7fffffffffffffffffffffffffffffffffffffffffffffffffffffffffffffffff826200047d565b620004c886836200047d565b95508019841693508086168417925050509392505050565b6000819050919050565b6000819050919050565b6000620005156200050f6200050984620004e0565b620004ea565b620004e0565b9050919050565b6000819050919050565b6200053183620004f4565b6200054962000540826200051c565b8484546200048a565b825550505050565b600090565b6200056062000551565b6200056d81848462000526565b505050565b5b8181101562000595576200058960008262000556565b60018101905062000573565b5050565b601f821115620005e457620005ae8162000458565b620005b9846200046d565b81016020851015620005c9578190505b620005e1620005d8856200046d565b83018262000572565b50505b505050565b600082821c905092915050565b60006200060960001984600802620005e9565b1980831691505092915050565b6000620006248383620005f6565b9150826002028217905092915050565b6200063f82620003ba565b67ffffffffffffffff8111156200065b576200065a620003c5565b5b62000667825462000423565b6200067482828562000599565b600060209050601f831160018114620006ac576000841562000697578287015190505b620006a3858262000616565b86555062000713565b601f198416620006bc8662000458565b60005b82811015620006e657848901518255600182019150602085019450602081019050620006bf565b8683101562000706578489015162000702601f891682620005f6565b8355505b6001600288020188555050505b505050505050565b620007268162000319565b82525050565b60006020820190506200074360008301846200071b565b92915050565b61340480620007596000396000f3fe60806040526004361061020f5760003560e01c8063852394f611610118578063b88d4fde116100a0578063d93c7f8b1161006f578063d93c7f8b1461077e578063ddd118b7146107bb578063def75e04146107e6578063e985e9c514610823578063f2fde38b146108605761020f565b8063b88d4fde146106d3578063bef101fb146106fc578063c0d2beb714610718578063c87b56dd146107415761020f565b8063965a0a34116100e7578063965a0a34146106005780639d5637d014610629578063a22cb46514610654578063a8c88bbb1461067d578063ac71bfb2146106a85761020f565b8063852394f6146105425780638c102a6c1461057f5780638da5cb5b146105aa57806395d89b41146105d55761020f565b8063335039d61161019b57806354d0dd4c1161016a57806354d0dd4c1461045d57806356320de9146104865780636352211e146104b157806370a08231146104ee578063715018a61461052b5761020f565b8063335039d6146103b557806336da26e0146103de57806342842e0e146104095780635060d397146104325761020f565b80630e636915116101e25780630e636915146102e2578063134e18f41461030d57806318afd1271461033857806323b872dd1461036157806327c10cfb1461038a5761020f565b806301ffc9a71461021457806306fdde0314610251578063081812fc1461027c578063095ea7b3146102b9575b600080fd5b34801561022057600080fd5b5061023b60048036038101906102369190612638565b610889565b6040516102489190612680565b60405180910390f35b34801561025d57600080fd5b5061026661096b565b604051610273919061272b565b60405180910390f35b34801561028857600080fd5b506102a3600480360381019061029e9190612783565b6109fd565b6040516102b091906127f1565b60405180910390f35b3480156102c557600080fd5b506102e060048036038101906102db9190612838565b610a19565b005b3480156102ee57600080fd5b506102f7610a2f565b6040516103049190612887565b60405180910390f35b34801561031957600080fd5b50610322610a3c565b60405161032f9190612901565b60405180910390f35b34801561034457600080fd5b5061035f600480360381019061035a9190612952565b610a62565b005b34801561036d57600080fd5b5061038860048036038101906103839190612992565b610b51565b005b34801561039657600080fd5b5061039f610c53565b6040516103ac91906127f1565b60405180910390f35b3480156103c157600080fd5b506103dc60048036038101906103d791906129e5565b610c79565b005b3480156103ea57600080fd5b506103f3610d96565b6040516104009190612887565b60405180910390f35b34801561041557600080fd5b50610430600480360381019061042b9190612992565b610da0565b005b34801561043e57600080fd5b50610447610dc0565b6040516104549190612887565b60405180910390f35b34801561046957600080fd5b50610484600480360381019061047f9190612783565b610dc6565b005b34801561049257600080fd5b5061049b610e38565b6040516104a89190612887565b60405180910390f35b3480156104bd57600080fd5b506104d860048036038101906104d39190612783565b610e3e565b6040516104e591906127f1565b60405180910390f35b3480156104fa57600080fd5b5061051560048036038101906105109190612a12565b610e50565b6040516105229190612887565b60405180910390f35b34801561053757600080fd5b50610540610f0a565b005b34801561054e57600080fd5b50610569600480360381019061056491906129e5565b610f1e565b6040516105769190612680565b60405180910390f35b34801561058b57600080fd5b50610594610f3e565b6040516105a191906127f1565b60405180910390f35b3480156105b657600080fd5b506105bf610f64565b6040516105cc91906127f1565b60405180910390f35b3480156105e157600080fd5b506105ea610f8e565b6040516105f7919061272b565b60405180910390f35b34801561060c57600080fd5b50610627600480360381019061062291906129e5565b611020565b005b34801561063557600080fd5b5061063e611146565b60405161064b9190612887565b60405180910390f35b34801561066057600080fd5b5061067b60048036038101906106769190612a6b565b61114b565b005b34801561068957600080fd5b50610692611161565b60405161069f9190612887565b60405180910390f35b3480156106b457600080fd5b506106bd611167565b6040516106ca9190612887565b60405180910390f35b3480156106df57600080fd5b506106fa60048036038101906106f59190612be0565b611174565b005b61071660048036038101906107119190612783565b611191565b005b34801561072457600080fd5b5061073f600480360381019061073a91906129e5565b6112cb565b005b34801561074d57600080fd5b5061076860048036038101906107639190612783565b6113ed565b604051610775919061272b565b60405180910390f35b34801561078a57600080fd5b506107a560048036038101906107a09190612783565b611456565b6040516107b29190612c72565b60405180910390f35b3480156107c757600080fd5b506107d061146e565b6040516107dd9190612887565b60405180910390f35b3480156107f257600080fd5b5061080d600480360381019061080891906129e5565b61147b565b60405161081a9190612680565b60405180910390f35b34801561082f57600080fd5b5061084a60048036038101906108459190612c8d565b61149b565b6040516108579190612680565b60405180910390f35b34801561086c57600080fd5b5061088760048036038101906108829190612a12565b61152f565b005b60007f80ac58cd000000000000000000000000000000000000000000000000000000007bffffffffffffffffffffffffffffffffffffffffffffffffffffffff1916827bffffffffffffffffffffffffffffffffffffffffffffffffffffffff1916148061095457507f5b5e139f000000000000000000000000000000000000000000000000000000007bffffffffffffffffffffffffffffffffffffffffffffffffffffffff1916827bffffffffffffffffffffffffffffffffffffffffffffffffffffffff1916145b806109645750610963826115b5565b5b9050919050565b60606000805461097a90612cfc565b80601f01602080910402602001604051908101604052809291908181526020018280546109a690612cfc565b80156109f35780601f106109c8576101008083540402835291602001916109f3565b820191906000526020600020905b8154815290600101906020018083116109d657829003601f168201915b5050505050905090565b6000610a088261161f565b50610a12826116a7565b9050919050565b610a2b8282610a266116e4565b6116ec565b5050565b68056bc75e2d6310000081565b600960009054906101000a900473ffffffffffffffffffffffffffffffffffffffff1681565b610a6a6116fe565b600c600082815260200190815260200160002060009054906101000a900460ff16610aca576040517f08c379a0000000000000000000000000000000000000000000000000000000008152600401610ac190612d79565b60405180910390fd5b6000600a6000815480929190610adf90612dc8565b919050559050610aef8382611785565b81600d60008381526020019081526020016000208190555081818473ffffffffffffffffffffffffffffffffffffffff167fe0106db28832af19ff78a393a4755726bb77bf6c5216f20c791af73ab871d01660405160405180910390a4505050565b600073ffffffffffffffffffffffffffffffffffffffff168273ffffffffffffffffffffffffffffffffffffffff1603610bc35760006040517f64a0ae92000000000000000000000000000000000000000000000000000000008152600401610bba91906127f1565b60405180910390fd5b6000610bd78383610bd26116e4565b6117a3565b90508373ffffffffffffffffffffffffffffffffffffffff168173ffffffffffffffffffffffffffffffffffffffff1614610c4d578382826040517f64283d7b000000000000000000000000000000000000000000000000000000008152600401610c4493929190612e10565b60405180910390fd5b50505050565b600760009054906101000a900473ffffffffffffffffffffffffffffffffffffffff1681565b600860009054906101000a900473ffffffffffffffffffffffffffffffffffffffff1673ffffffffffffffffffffffffffffffffffffffff16610cba6116e4565b73ffffffffffffffffffffffffffffffffffffffff1614610d10576040517f08c379a0000000000000000000000000000000000000000000000000000000008152600401610d0790612eb9565b60405180910390fd5b600b600082815260200190815260200160002060009054906101000a900460ff16610d70576040517f08c379a0000000000000000000000000000000000000000000000000000000008152600401610d6790612f25565b60405180910390fd5b600b600082815260200190815260200160002060006101000a81549060ff021916905550565b6000600e54905090565b610dbb83838360405180602001604052806000815250611174565b505050565b6105dc81565b610dce6116fe565b6000600d6000838152602001908152602001600020549050610def8261186c565b600d60008381526020019081526020016000206000905580827f7bf811be4b63e212acf02f401f892c626d1a7ff23e7184606c9b646b351ad22860405160405180910390a35050565b600e5481565b6000610e498261161f565b9050919050565b60008073ffffffffffffffffffffffffffffffffffffffff168273ffffffffffffffffffffffffffffffffffffffff1603610ec35760006040517f89c62b64000000000000000000000000000000000000000000000000000000008152600401610eba91906127f1565b60405180910390fd5b600360008373ffffffffffffffffffffffffffffffffffffffff1673ffffffffffffffffffffffffffffffffffffffff168152602001908152602001600020549050919050565b610f126116fe565b610f1c60006118f2565b565b600b6020528060005260406000206000915054906101000a900460ff1681565b600860009054906101000a900473ffffffffffffffffffffffffffffffffffffffff1681565b6000600660009054906101000a900473ffffffffffffffffffffffffffffffffffffffff16905090565b606060018054610f9d90612cfc565b80601f0160208091040260200160405190810160405280929190818152602001828054610fc990612cfc565b80156110165780601f10610feb57610100808354040283529160200191611016565b820191906000526020600020905b815481529060010190602001808311610ff957829003601f168201915b5050505050905090565b600860009054906101000a900473ffffffffffffffffffffffffffffffffffffffff1673ffffffffffffffffffffffffffffffffffffffff166110616116e4565b73ffffffffffffffffffffffffffffffffffffffff16146110b7576040517f08c379a00000000000000000000000000000000000000000000000000000000081526004016110ae90612eb9565b60405180910390fd5b600b600082815260200190815260200160002060009054906101000a900460ff16611117576040517f08c379a000000000000000000000000000000000000000000000000000000000815260040161110e90612f25565b60405180910390fd5b6001600c600083815260200190815260200160002060006101000a81548160ff02191690831515021790555050565b606481565b61115d6111566116e4565b83836119b8565b5050565b6101f481565b6828a857425466f8000081565b61117f848484610b51565b61118b84848484611b27565b50505050565b6111996116fe565b600080600183036111b9576064915068056bc75e2d631000009050611232565b600283036111d7576101f491506812f939c99edab800009050611231565b600383036111f5576105dc91506828a857425466f800009050611230565b6040517f08c379a000000000000000000000000000000000000000000000000000000000815260040161122790612f91565b60405180910390fd5b5b5b803414611274576040517f08c379a000000000000000000000000000000000000000000000000000000000815260040161126b90612ffd565b60405180910390fd5b81600e6000828254611286919061301d565b925050819055507fdbe39cba979d975d532fdccea304c79ef558c3d7d0017210994f0d950a6a19bb82826040516112be929190613051565b60405180910390a1505050565b6112d36116fe565b600b600082815260200190815260200160002060009054906101000a900460ff1615611334576040517f08c379a000000000000000000000000000000000000000000000000000000000815260040161132b906130ec565b60405180910390fd5b6000600e5411611379576040517f08c379a000000000000000000000000000000000000000000000000000000000815260040161137090613158565b60405180910390fd5b6001600b600083815260200190815260200160002060006101000a81548160ff021916908315150217905550600e60008154809291906113b890613178565b9190505550807fd5ada0bbc30c773e6e013fab1c7daef52e78ac91ba0748530577e0f3a75b5f9260405160405180910390a250565b60606113f88261161f565b506000611403611cde565b90506000815111611423576040518060200160405280600081525061144e565b8061142d84611cf5565b60405160200161143e9291906131dd565b6040516020818303038152906040525b915050919050565b600d6020528060005260406000206000915090505481565b6812f939c99edab8000081565b600c6020528060005260406000206000915054906101000a900460ff1681565b6000600560008473ffffffffffffffffffffffffffffffffffffffff1673ffffffffffffffffffffffffffffffffffffffff16815260200190815260200160002060008373ffffffffffffffffffffffffffffffffffffffff1673ffffffffffffffffffffffffffffffffffffffff16815260200190815260200160002060009054906101000a900460ff16905092915050565b6115376116fe565b600073ffffffffffffffffffffffffffffffffffffffff168173ffffffffffffffffffffffffffffffffffffffff16036115a95760006040517f1e4fbdf70000000000000000000000000000000000000000000000000000000081526004016115a091906127f1565b60405180910390fd5b6115b2816118f2565b50565b60007f01ffc9a7000000000000000000000000000000000000000000000000000000007bffffffffffffffffffffffffffffffffffffffffffffffffffffffff1916827bffffffffffffffffffffffffffffffffffffffffffffffffffffffff1916149050919050565b60008061162b83611dc3565b9050600073ffffffffffffffffffffffffffffffffffffffff168173ffffffffffffffffffffffffffffffffffffffff160361169e57826040517f7e2732890000000000000000000000000000000000000000000000000000000081526004016116959190612887565b60405180910390fd5b80915050919050565b60006004600083815260200190815260200160002060009054906101000a900473ffffffffffffffffffffffffffffffffffffffff169050919050565b600033905090565b6116f98383836001611e00565b505050565b6117066116e4565b73ffffffffffffffffffffffffffffffffffffffff16611724610f64565b73ffffffffffffffffffffffffffffffffffffffff1614611783576117476116e4565b6040517f118cdaa700000000000000000000000000000000000000000000000000000000815260040161177a91906127f1565b60405180910390fd5b565b61179f828260405180602001604052806000815250611fc5565b5050565b6000806117af84611dc3565b9050600073ffffffffffffffffffffffffffffffffffffffff168173ffffffffffffffffffffffffffffffffffffffff1614806118185750600073ffffffffffffffffffffffffffffffffffffffff168573ffffffffffffffffffffffffffffffffffffffff16145b611857576040517f08c379a000000000000000000000000000000000000000000000000000000000815260040161184e90613273565b60405180910390fd5b611862858585611fe1565b9150509392505050565b600061187b60008360006117a3565b9050600073ffffffffffffffffffffffffffffffffffffffff168173ffffffffffffffffffffffffffffffffffffffff16036118ee57816040517f7e2732890000000000000000000000000000000000000000000000000000000081526004016118e59190612887565b60405180910390fd5b5050565b6000600660009054906101000a900473ffffffffffffffffffffffffffffffffffffffff16905081600660006101000a81548173ffffffffffffffffffffffffffffffffffffffff021916908373ffffffffffffffffffffffffffffffffffffffff1602179055508173ffffffffffffffffffffffffffffffffffffffff168173ffffffffffffffffffffffffffffffffffffffff167f8be0079c531659141344cd1fd0a4f28419497f9722a3daafe3b4186f6b6457e060405160405180910390a35050565b600073ffffffffffffffffffffffffffffffffffffffff168273ffffffffffffffffffffffffffffffffffffffff1603611a2957816040517f5b08ba18000000000000000000000000000000000000000000000000000000008152600401611a2091906127f1565b60405180910390fd5b80600560008573ffffffffffffffffffffffffffffffffffffffff1673ffffffffffffffffffffffffffffffffffffffff16815260200190815260200160002060008473ffffffffffffffffffffffffffffffffffffffff1673ffffffffffffffffffffffffffffffffffffffff16815260200190815260200160002060006101000a81548160ff0219169083151502179055508173ffffffffffffffffffffffffffffffffffffffff168373ffffffffffffffffffffffffffffffffffffffff167f17307eab39ab6107e8899845ad3d59bd9653f200f220920489ca2b5937696c3183604051611b1a9190612680565b60405180910390a3505050565b60008373ffffffffffffffffffffffffffffffffffffffff163b1115611cd8578273ffffffffffffffffffffffffffffffffffffffff1663150b7a02611b6b6116e4565b8685856040518563ffffffff1660e01b8152600401611b8d94939291906132e8565b6020604051808303816000875af1925050508015611bc957506040513d601f19601f82011682018060405250810190611bc69190613349565b60015b611c4d573d8060008114611bf9576040519150601f19603f3d011682016040523d82523d6000602084013e611bfe565b606091505b506000815103611c4557836040517f64a0ae92000000000000000000000000000000000000000000000000000000008152600401611c3c91906127f1565b60405180910390fd5b805181602001fd5b63150b7a0260e01b7bffffffffffffffffffffffffffffffffffffffffffffffffffffffff1916817bffffffffffffffffffffffffffffffffffffffffffffffffffffffff191614611cd657836040517f64a0ae92000000000000000000000000000000000000000000000000000000008152600401611ccd91906127f1565b60405180910390fd5b505b50505050565b606060405180602001604052806000815250905090565b606060006001611d04846121fb565b01905060008167ffffffffffffffff811115611d2357611d22612ab5565b5b6040519080825280601f01601f191660200182016040528015611d555781602001600182028036833780820191505090505b509050600082602001820190505b600115611db8578080600190039150507f3031323334353637383961626364656600000000000000000000000000000000600a86061a8153600a8581611dac57611dab613376565b5b04945060008503611d63575b819350505050919050565b60006002600083815260200190815260200160002060009054906101000a900473ffffffffffffffffffffffffffffffffffffffff169050919050565b8080611e395750600073ffffffffffffffffffffffffffffffffffffffff168273ffffffffffffffffffffffffffffffffffffffff1614155b15611f6d576000611e498461161f565b9050600073ffffffffffffffffffffffffffffffffffffffff168373ffffffffffffffffffffffffffffffffffffffff1614158015611eb457508273ffffffffffffffffffffffffffffffffffffffff168173ffffffffffffffffffffffffffffffffffffffff1614155b8015611ec75750611ec5818461149b565b155b15611f0957826040517fa9fbf51f000000000000000000000000000000000000000000000000000000008152600401611f0091906127f1565b60405180910390fd5b8115611f6b57838573ffffffffffffffffffffffffffffffffffffffff168273ffffffffffffffffffffffffffffffffffffffff167f8c5be1e5ebec7d5bd14f71427d1e84f3dd0314c0f7b2291e5b200ac8c7c3b92560405160405180910390a45b505b836004600085815260200190815260200160002060006101000a81548173ffffffffffffffffffffffffffffffffffffffff021916908373ffffffffffffffffffffffffffffffffffffffff16021790555050505050565b611fcf838361234e565b611fdc6000848484611b27565b505050565b600080611fed84611dc3565b9050600073ffffffffffffffffffffffffffffffffffffffff168373ffffffffffffffffffffffffffffffffffffffff161461202f5761202e818486612447565b5b600073ffffffffffffffffffffffffffffffffffffffff168173ffffffffffffffffffffffffffffffffffffffff16146120c057612071600085600080611e00565b6001600360008373ffffffffffffffffffffffffffffffffffffffff1673ffffffffffffffffffffffffffffffffffffffff168152602001908152602001600020600082825403925050819055505b600073ffffffffffffffffffffffffffffffffffffffff168573ffffffffffffffffffffffffffffffffffffffff1614612143576001600360008773ffffffffffffffffffffffffffffffffffffffff1673ffffffffffffffffffffffffffffffffffffffff168152602001908152602001600020600082825401925050819055505b846002600086815260200190815260200160002060006101000a81548173ffffffffffffffffffffffffffffffffffffffff021916908373ffffffffffffffffffffffffffffffffffffffff160217905550838573ffffffffffffffffffffffffffffffffffffffff168273ffffffffffffffffffffffffffffffffffffffff167fddf252ad1be2c89b69c2b068fc378daa952ba7f163c4a11628f55a4df523b3ef60405160405180910390a4809150509392505050565b600080600090507a184f03e93ff9f4daa797ed6e38ed64bf6a1f0100000000000000008310612259577a184f03e93ff9f4daa797ed6e38ed64bf6a1f010000000000000000838161224f5761224e613376565b5b0492506040810190505b6d04ee2d6d415b85acef81000000008310612296576d04ee2d6d415b85acef8100000000838161228c5761228b613376565b5b0492506020810190505b662386f26fc1000083106122c557662386f26fc1000083816122bb576122ba613376565b5b0492506010810190505b6305f5e10083106122ee576305f5e10083816122e4576122e3613376565b5b0492506008810190505b612710831061231357612710838161230957612308613376565b5b0492506004810190505b60648310612336576064838161232c5761232b613376565b5b0492506002810190505b600a8310612345576001810190505b80915050919050565b600073ffffffffffffffffffffffffffffffffffffffff168273ffffffffffffffffffffffffffffffffffffffff16036123c05760006040517f64a0ae920000000000000000000000000000000000000000000000000000000081526004016123b791906127f1565b60405180910390fd5b60006123ce838360006117a3565b9050600073ffffffffffffffffffffffffffffffffffffffff168173ffffffffffffffffffffffffffffffffffffffff16146124425760006040517f73c6ac6e00000000000000000000000000000000000000000000000000000000815260040161243991906127f1565b60405180910390fd5b505050565b61245283838361250b565b61250657600073ffffffffffffffffffffffffffffffffffffffff168373ffffffffffffffffffffffffffffffffffffffff16036124c757806040517f7e2732890000000000000000000000000000000000000000000000000000000081526004016124be9190612887565b60405180910390fd5b81816040517f177e802f0000000000000000000000000000000000000000000000000000000081526004016124fd9291906133a5565b60405180910390fd5b505050565b60008073ffffffffffffffffffffffffffffffffffffffff168373ffffffffffffffffffffffffffffffffffffffff16141580156125c357508273ffffffffffffffffffffffffffffffffffffffff168473ffffffffffffffffffffffffffffffffffffffff1614806125845750612583848461149b565b5b806125c257508273ffffffffffffffffffffffffffffffffffffffff166125aa836116a7565b73ffffffffffffffffffffffffffffffffffffffff16145b5b90509392505050565b6000604051905090565b600080fd5b600080fd5b60007fffffffff0000000000000000000000000000000000000000000000000000000082169050919050565b612615816125e0565b811461262057600080fd5b50565b6000813590506126328161260c565b92915050565b60006020828403121561264e5761264d6125d6565b5b600061265c84828501612623565b91505092915050565b60008115159050919050565b61267a81612665565b82525050565b60006020820190506126956000830184612671565b92915050565b600081519050919050565b600082825260208201905092915050565b60005b838110156126d55780820151818401526020810190506126ba565b60008484015250505050565b6000601f19601f8301169050919050565b60006126fd8261269b565b61270781856126a6565b93506127178185602086016126b7565b612720816126e1565b840191505092915050565b6000602082019050818103600083015261274581846126f2565b905092915050565b6000819050919050565b6127608161274d565b811461276b57600080fd5b50565b60008135905061277d81612757565b92915050565b600060208284031215612799576127986125d6565b5b60006127a78482850161276e565b91505092915050565b600073ffffffffffffffffffffffffffffffffffffffff82169050919050565b60006127db826127b0565b9050919050565b6127eb816127d0565b82525050565b600060208201905061280660008301846127e2565b92915050565b612815816127d0565b811461282057600080fd5b50565b6000813590506128328161280c565b92915050565b6000806040838503121561284f5761284e6125d6565b5b600061285d85828601612823565b925050602061286e8582860161276e565b9150509250929050565b6128818161274d565b82525050565b600060208201905061289c6000830184612878565b92915050565b6000819050919050565b60006128c76128c26128bd846127b0565b6128a2565b6127b0565b9050919050565b60006128d9826128ac565b9050919050565b60006128eb826128ce565b9050919050565b6128fb816128e0565b82525050565b600060208201905061291660008301846128f2565b92915050565b6000819050919050565b61292f8161291c565b811461293a57600080fd5b50565b60008135905061294c81612926565b92915050565b60008060408385031215612969576129686125d6565b5b600061297785828601612823565b92505060206129888582860161293d565b9150509250929050565b6000806000606084860312156129ab576129aa6125d6565b5b60006129b986828701612823565b93505060206129ca86828701612823565b92505060406129db8682870161276e565b9150509250925092565b6000602082840312156129fb576129fa6125d6565b5b6000612a098482850161293d565b91505092915050565b600060208284031215612a2857612a276125d6565b5b6000612a3684828501612823565b91505092915050565b612a4881612665565b8114612a5357600080fd5b50565b600081359050612a6581612a3f565b92915050565b60008060408385031215612a8257612a816125d6565b5b6000612a9085828601612823565b9250506020612aa185828601612a56565b9150509250929050565b600080fd5b600080fd5b7f4e487b7100000000000000000000000000000000000000000000000000000000600052604160045260246000fd5b612aed826126e1565b810181811067ffffffffffffffff82111715612b0c57612b0b612ab5565b5b80604052505050565b6000612b1f6125cc565b9050612b2b8282612ae4565b919050565b600067ffffffffffffffff821115612b4b57612b4a612ab5565b5b612b54826126e1565b9050602081019050919050565b82818337600083830152505050565b6000612b83612b7e84612b30565b612b15565b905082815260208101848484011115612b9f57612b9e612ab0565b5b612baa848285612b61565b509392505050565b600082601f830112612bc757612bc6612aab565b5b8135612bd7848260208601612b70565b91505092915050565b60008060008060808587031215612bfa57612bf96125d6565b5b6000612c0887828801612823565b9450506020612c1987828801612823565b9350506040612c2a8782880161276e565b925050606085013567ffffffffffffffff811115612c4b57612c4a6125db565b5b612c5787828801612bb2565b91505092959194509250565b612c6c8161291c565b82525050565b6000602082019050612c876000830184612c63565b92915050565b60008060408385031215612ca457612ca36125d6565b5b6000612cb285828601612823565b9250506020612cc385828601612823565b9150509250929050565b7f4e487b7100000000000000000000000000000000000000000000000000000000600052602260045260246000fd5b60006002820490506001821680612d1457607f821691505b602082108103612d2757612d26612ccd565b5b50919050565b7f446f63756d656e74206e6f7420617070726f7665640000000000000000000000600082015250565b6000612d636015836126a6565b9150612d6e82612d2d565b602082019050919050565b60006020820190508181036000830152612d9281612d56565b9050919050565b7f4e487b7100000000000000000000000000000000000000000000000000000000600052601160045260246000fd5b6000612dd38261274d565b91507fffffffffffffffffffffffffffffffffffffffffffffffffffffffffffffffff8203612e0557612e04612d99565b5b600182019050919050565b6000606082019050612e2560008301866127e2565b612e326020830185612878565b612e3f60408301846127e2565b949350505050565b7f4f6e6c792068696768657220617574686f726974792063616e2063616c6c207460008201527f6869732066756e6374696f6e0000000000000000000000000000000000000000602082015250565b6000612ea3602c836126a6565b9150612eae82612e47565b604082019050919050565b60006020820190508181036000830152612ed281612e96565b9050919050565b7f446f63756d656e742072657175657374206e6f74207375626d69747465640000600082015250565b6000612f0f601e836126a6565b9150612f1a82612ed9565b602082019050919050565b60006020820190508181036000830152612f3e81612f02565b9050919050565b7f496e76616c696420706c616e2074797065000000000000000000000000000000600082015250565b6000612f7b6011836126a6565b9150612f8682612f45565b602082019050919050565b60006020820190508181036000830152612faa81612f6e565b9050919050565b7f496e636f7272656374207061796d656e7420616d6f756e740000000000000000600082015250565b6000612fe76018836126a6565b9150612ff282612fb1565b602082019050919050565b6000602082019050818103600083015261301681612fda565b9050919050565b60006130288261274d565b91506130338361274d565b925082820190508082111561304b5761304a612d99565b5b92915050565b60006040820190506130666000830185612878565b6130736020830184612878565b9392505050565b7f446f63756d656e74207265717565737420616c7265616479207375626d69747460008201527f6564000000000000000000000000000000000000000000000000000000000000602082015250565b60006130d66022836126a6565b91506130e18261307a565b604082019050919050565b60006020820190508181036000830152613105816130c9565b9050919050565b7f496e73756666696369656e742063726564697473000000000000000000000000600082015250565b60006131426014836126a6565b915061314d8261310c565b602082019050919050565b6000602082019050818103600083015261317181613135565b9050919050565b60006131838261274d565b91506000820361319657613195612d99565b5b600182039050919050565b600081905092915050565b60006131b78261269b565b6131c181856131a1565b93506131d18185602086016126b7565b80840191505092915050565b60006131e982856131ac565b91506131f582846131ac565b91508190509392505050565b7f536f756c426f756e64546f6b656e3a20746f6b656e207472616e73666572206960008201527f73206e6f7420616c6c6f77656400000000000000000000000000000000000000602082015250565b600061325d602d836126a6565b915061326882613201565b604082019050919050565b6000602082019050818103600083015261328c81613250565b9050919050565b600081519050919050565b600082825260208201905092915050565b60006132ba82613293565b6132c4818561329e565b93506132d48185602086016126b7565b6132dd816126e1565b840191505092915050565b60006080820190506132fd60008301876127e2565b61330a60208301866127e2565b6133176040830185612878565b818103606083015261332981846132af565b905095945050505050565b6000815190506133438161260c565b92915050565b60006020828403121561335f5761335e6125d6565b5b600061336d84828501613334565b91505092915050565b7f4e487b7100000000000000000000000000000000000000000000000000000000600052601260045260246000fd5b60006040820190506133ba60008301856127e2565b6133c76020830184612878565b939250505056fea26469706673582212202ca6935a92cb75b699a0c858a50537a0357799af4d93fe9b7de0149086a4195e64736f6c63430008140033",
  "linkReferences": {},
  "deployedLinkReferences": {}
}