{
  "_format": "hh-sol-artifact-1",
  "contractName": "Factory",
  "sourceName": "contracts/Factory.sol",
  "abi": [
    {
      "inputs": [
        {
          "internalType": "address",
          "name": "_identityRegistryAddress",
          "type": "address"
        },
        {
          "internalType": "address",
          "name": "initialOwner",
          "type": "address"
        }
      ],
      "stateMutability": "nonpayable",
      "type": "constructor"
    },
    {
      "inputs": [
        {
          "internalType": "address",
          "name": "owner",
          "type": "address"
        }
      ],
      "name": "OwnableInvalidOwner",
      "type": "error"
    },
    {
      "inputs": [
        {
          "internalType": "address",
          "name": "account",
          "type": "address"
        }
      ],
      "name": "OwnableUnauthorizedAccount",
      "type": "error"
    },
    {
      "anonymous": false,
      "inputs": [
        {
          "indexed": true,
          "internalType": "address",
          "name": "authority",
          "type": "address"
        },
        {
          "indexed": false,
          "internalType": "address",
          "name": "contractAddress",
          "type": "address"
        }
      ],
      "name": "AuthorityContractCreated",
      "type": "event"
    },
    {
      "anonymous": false,
      "inputs": [
        {
          "indexed": true,
          "internalType": "address",
          "name": "institute",
          "type": "address"
        },
        {
          "indexed": false,
          "internalType": "address",
          "name": "contractAddress",
          "type": "address"
        },
        {
          "indexed": true,
          "internalType": "address",
          "name": "authority",
          "type": "address"
        }
      ],
      "name": "InstituteContractCreated",
      "type": "event"
    },
    {
      "anonymous": false,
      "inputs": [
        {
          "indexed": true,
          "internalType": "address",
          "name": "previousOwner",
          "type": "address"
        },
        {
          "indexed": true,
          "internalType": "address",
          "name": "newOwner",
          "type": "address"
        }
      ],
      "name": "OwnershipTransferred",
      "type": "event"
    },
    {
      "anonymous": false,
      "inputs": [
        {
          "indexed": true,
          "internalType": "address",
          "name": "superHigherAuthority",
          "type": "address"
        }
      ],
      "name": "SuperHigherAuthoritySet",
      "type": "event"
    },
    {
      "inputs": [
        {
          "internalType": "address",
          "name": "",
          "type": "address"
        }
      ],
      "name": "authorityContracts",
      "outputs": [
        {
          "internalType": "address",
          "name": "",
          "type": "address"
        }
      ],
      "stateMutability": "view",
      "type": "function"
    },
    {
      "inputs": [
        {
          "internalType": "address",
          "name": "_authority",
          "type": "address"
        }
      ],
      "name": "createAuthorityContract",
      "outputs": [],
      "stateMutability": "nonpayable",
      "type": "function"
    },
    {
      "inputs": [
        {
          "internalType": "address",
          "name": "_institute",
          "type": "address"
        },
        {
          "internalType": "address",
          "name": "_authority",
          "type": "address"
        }
      ],
      "name": "createInstituteContract",
      "outputs": [],
      "stateMutability": "nonpayable",
      "type": "function"
    },
    {
      "inputs": [
        {
          "internalType": "address",
          "name": "_authority",
          "type": "address"
        }
      ],
      "name": "getAuthorityContract",
      "outputs": [
        {
          "internalType": "address",
          "name": "",
          "type": "address"
        }
      ],
      "stateMutability": "view",
      "type": "function"
    },
    {
      "inputs": [
        {
          "internalType": "address",
          "name": "_institute",
          "type": "address"
        }
      ],
      "name": "getInstituteContract",
      "outputs": [
        {
          "internalType": "address",
          "name": "",
          "type": "address"
        }
      ],
      "stateMutability": "view",
      "type": "function"
    },
    {
      "inputs": [],
      "name": "identityRegistry",
      "outputs": [
        {
          "internalType": "contract IdentityRegistry",
          "name": "",
          "type": "address"
        }
      ],
      "stateMutability": "view",
      "type": "function"
    },
    {
      "inputs": [
        {
          "internalType": "address",
          "name": "",
          "type": "address"
        }
      ],
      "name": "instituteContracts",
      "outputs": [
        {
          "internalType": "address",
          "name": "",
          "type": "address"
        }
      ],
      "stateMutability": "view",
      "type": "function"
    },
    {
      "inputs": [],
      "name": "owner",
      "outputs": [
        {
          "internalType": "address",
          "name": "",
          "type": "address"
        }
      ],
      "stateMutability": "view",
      "type": "function"
    },
    {
      "inputs": [],
      "name": "renounceOwnership",
      "outputs": [],
      "stateMutability": "nonpayable",
      "type": "function"
    },
    {
      "inputs": [
        {
          "internalType": "address",
          "name": "_superHigherAuthority",
          "type": "address"
        }
      ],
      "name": "setSuperHigherAuthority",
      "outputs": [],
      "stateMutability": "nonpayable",
      "type": "function"
    },
    {
      "inputs": [],
      "name": "superHigherAuthority",
      "outputs": [
        {
          "internalType": "address",
          "name": "",
          "type": "address"
        }
      ],
      "stateMutability": "view",
      "type": "function"
    },
    {
      "inputs": [
        {
          "internalType": "address",
          "name": "newOwner",
          "type": "address"
        }
      ],
      "name": "transferOwnership",
      "outputs": [],
      "stateMutability": "nonpayable",
      "type": "function"
    }
  ],
  "bytecode": "0x60a060405234801561001057600080fd5b5060405161356f38038061356f83398101604081905261002f916100e6565b806001600160a01b03811661005e57604051631e4fbdf760e01b81526000600482015260240160405180910390fd5b6100678161007a565b50506001600160a01b0316608052610119565b600080546001600160a01b038381166001600160a01b0319831681178455604051919092169283917f8be0079c531659141344cd1fd0a4f28419497f9722a3daafe3b4186f6b6457e09190a35050565b80516001600160a01b03811681146100e157600080fd5b919050565b600080604083850312156100f957600080fd5b610102836100ca565b9150610110602084016100ca565b90509250929050565b60805161342061014f6000396000818160ce015281816103190152818161047c015281816105ef01526106f901526134206000f3fe60806040523480156200001157600080fd5b5060043610620000c35760003560e01c8063715018a6116200007a578063715018a614620001a85780638da5cb5b14620001b2578063ac1c1ff114620001c4578063c1614e9214620001f3578063dde88f41146200020a578063f2fde38b146200023957600080fd5b8063134e18f414620000c85780633f4b50d9146200010c57806341b1f79714620001385780634a424f8d14620001645780634ee9bd30146200017d5780636b2920d21462000191575b600080fd5b620000f07f000000000000000000000000000000000000000000000000000000000000000081565b6040516001600160a01b03909116815260200160405180910390f35b620000f06200011d366004620008d6565b6003602052600090815260409020546001600160a01b031681565b620000f062000149366004620008d6565b6002602052600090815260409020546001600160a01b031681565b6200017b62000175366004620008d6565b62000250565b005b600154620000f0906001600160a01b031681565b6200017b620001a2366004620008fb565b6200030e565b6200017b620005cc565b6000546001600160a01b0316620000f0565b620000f0620001d5366004620008d6565b6001600160a01b039081166000908152600260205260409020541690565b6200017b62000204366004620008d6565b620005e4565b620000f06200021b366004620008d6565b6001600160a01b039081166000908152600360205260409020541690565b6200017b6200024a366004620008d6565b620007da565b6200025a6200081e565b6001546001600160a01b031615620002c45760405162461bcd60e51b815260206004820152602260248201527f53757065722068696768657220617574686f7269747920616c72656164792073604482015261195d60f21b60648201526084015b60405180910390fd5b600180546001600160a01b0319166001600160a01b0383169081179091556040517fb2feafbb120ef48bc1a35c22280777bb30f4b3f3a57b385f35971397455b4aa190600090a250565b336001600160a01b037f00000000000000000000000000000000000000000000000000000000000000001614620003a55760405162461bcd60e51b815260206004820152603460248201527f4f6e6c79204964656e7469747952656769737472792063616e2063726561746560448201527320496e7374697475746520636f6e74726163747360601b6064820152608401620002bb565b6001600160a01b038281166000908152600360205260409020541615620004195760405162461bcd60e51b815260206004820152602160248201527f496e7374697475746520636f6e747261637420616c72656164792065786973746044820152607360f81b6064820152608401620002bb565b6001600160a01b0381811660009081526002602052604090205416620004765760405162461bcd60e51b8152602060048201526011602482015270496e76616c696420617574686f7269747960781b6044820152606401620002bb565b600082827f0000000000000000000000000000000000000000000000000000000000000000604051620004a9906200089d565b6001600160a01b03938416815291831660208301529091166040820152606001604051809103906000f080158015620004e6573d6000803e3d6000fd5b506001600160a01b03848116600081815260036020908152604080832080546001600160a01b031916878716908117909155888616845260029092529182902054915163584b442f60e11b81526004810193909352602483015292935091169063b096885e90604401600060405180830381600087803b1580156200056a57600080fd5b505af11580156200057f573d6000803e3d6000fd5b50506040516001600160a01b0384811682528086169350861691507fb3ae234721889eb7d42cc5dad1fff029c11437ad78c09dcb4b10b93da692fc289060200160405180910390a3505050565b620005d66200081e565b620005e260006200084d565b565b336001600160a01b037f000000000000000000000000000000000000000000000000000000000000000016146200067b5760405162461bcd60e51b815260206004820152603460248201527f4f6e6c79204964656e7469747952656769737472792063616e2063726561746560448201527320417574686f7269747920636f6e74726163747360601b6064820152608401620002bb565b6001600160a01b038181166000908152600260205260409020541615620006ef5760405162461bcd60e51b815260206004820152602160248201527f417574686f7269747920636f6e747261637420616c72656164792065786973746044820152607360f81b6064820152608401620002bb565b60015460405182917f0000000000000000000000000000000000000000000000000000000000000000916001600160a01b03808516921691909114906200073690620008ab565b6001600160a01b03938416815292909116602083015215156040820152606001604051809103906000f08015801562000773573d6000803e3d6000fd5b506001600160a01b0382811660008181526002602090815260409182902080546001600160a01b0319169590941694851790935551928352917f7ddf02cbdda2dc6e9c0bd84c6846ffc14b634e745be2a6e4d081b6d8b85458e3910160405180910390a250565b620007e46200081e565b6001600160a01b0381166200081057604051631e4fbdf760e01b815260006004820152602401620002bb565b6200081b816200084d565b50565b6000546001600160a01b03163314620005e25760405163118cdaa760e01b8152336004820152602401620002bb565b600080546001600160a01b038381166001600160a01b0319831681178455604051919092169283917f8be0079c531659141344cd1fd0a4f28419497f9722a3daafe3b4186f6b6457e09190a35050565b61216c806200093483390190565b61094b8062002aa083390190565b80356001600160a01b0381168114620008d157600080fd5b919050565b600060208284031215620008e957600080fd5b620008f482620008b9565b9392505050565b600080604083850312156200090f57600080fd5b6200091a83620008b9565b91506200092a60208401620008b9565b9050925092905056fe60806040523480156200001157600080fd5b506040516200216c3803806200216c8339810160408190526200003491620001a1565b336040518060400160405280600e81526020016d29b7bab62137bab7322a37b5b2b760911b8152506040518060400160405280600381526020016214d09560ea1b815250816000908162000089919062000290565b50600162000098828262000290565b5050506001600160a01b038116620000ca57604051631e4fbdf760e01b81526000600482015260240160405180910390fd5b620000d58162000132565b50600780546001600160a01b038086166001600160a01b031992831617909255600880548584169083161790556009805492841692821692909217909155600f805490911633179055620001298362000132565b5050506200035c565b600680546001600160a01b038381166001600160a01b0319831681179093556040519116919082907f8be0079c531659141344cd1fd0a4f28419497f9722a3daafe3b4186f6b6457e090600090a35050565b80516001600160a01b03811681146200019c57600080fd5b919050565b600080600060608486031215620001b757600080fd5b620001c28462000184565b9250620001d26020850162000184565b9150620001e26040850162000184565b90509250925092565b634e487b7160e01b600052604160045260246000fd5b600181811c908216806200021657607f821691505b6020821081036200023757634e487b7160e01b600052602260045260246000fd5b50919050565b601f8211156200028b57600081815260208120601f850160051c81016020861015620002665750805b601f850160051c820191505b81811015620002875782815560010162000272565b5050505b505050565b81516001600160401b03811115620002ac57620002ac620001eb565b620002c481620002bd845462000201565b846200023d565b602080601f831160018114620002fc5760008415620002e35750858301515b600019600386901b1c1916600185901b17855562000287565b600085815260208120601f198616915b828110156200032d578886015182559484019460019091019084016200030c565b50858210156200034c5787850151600019600388901b60f8161c191681555b5050505050600190811b01905550565b611e00806200036c6000396000f3fe6080604052600436106102305760003560e01c8063715018a61161012e578063ac71bfb2116100ab578063d93c7f8b1161006f578063d93c7f8b14610658578063ddd118b714610685578063def75e04146106a2578063e985e9c5146106d2578063f2fde38b146106f257600080fd5b8063ac71bfb2146105c8578063b88d4fde146105e5578063bef101fb14610605578063c0d2beb714610618578063c87b56dd1461063857600080fd5b806395d89b41116100f257806395d89b4114610548578063965a0a341461055d5780639d5637d01461057d578063a22cb46514610592578063a8c88bbb146105b257600080fd5b8063715018a6146104a75780638204c326146104bc578063852394f6146104da5780638c102a6c1461050a5780638da5cb5b1461052a57600080fd5b806324600fc3116101bc5780635060d397116101805780635060d3971461041b57806354d0dd4c1461043157806356320de9146104515780636352211e1461046757806370a082311461048757600080fd5b806324600fc31461039157806327c10cfb146103a6578063335039d6146103c657806336da26e0146103e657806342842e0e146103fb57600080fd5b80630c6dd9fd116102035780630c6dd9fd146102e65780630e63691514610306578063134e18f41461033157806318afd1271461035157806323b872dd1461037157600080fd5b806301ffc9a71461023557806306fdde031461026a578063081812fc1461028c578063095ea7b3146102c4575b600080fd5b34801561024157600080fd5b50610255610250366004611984565b610712565b60405190151581526020015b60405180910390f35b34801561027657600080fd5b5061027f610764565b60405161026191906119f1565b34801561029857600080fd5b506102ac6102a7366004611a04565b6107f6565b6040516001600160a01b039091168152602001610261565b3480156102d057600080fd5b506102e46102df366004611a39565b61081f565b005b3480156102f257600080fd5b506102e4610301366004611a63565b61082e565b34801561031257600080fd5b5061032368056bc75e2d6310000081565b604051908152602001610261565b34801561033d57600080fd5b506009546102ac906001600160a01b031681565b34801561035d57600080fd5b506102e461036c366004611a39565b6108ee565b34801561037d57600080fd5b506102e461038c366004611a7e565b6109b7565b34801561039d57600080fd5b506102e4610a42565b3480156103b257600080fd5b506007546102ac906001600160a01b031681565b3480156103d257600080fd5b506102e46103e1366004611a04565b610b97565b3480156103f257600080fd5b50600e54610323565b34801561040757600080fd5b506102e4610416366004611a7e565b610c40565b34801561042757600080fd5b506103236105dc81565b34801561043d57600080fd5b506102e461044c366004611a04565b610c60565b34801561045d57600080fd5b50610323600e5481565b34801561047357600080fd5b506102ac610482366004611a04565b610cbf565b34801561049357600080fd5b506103236104a2366004611a63565b610cca565b3480156104b357600080fd5b506102e4610d12565b3480156104c857600080fd5b50600f546001600160a01b03166102ac565b3480156104e657600080fd5b506102556104f5366004611a04565b600b6020526000908152604090205460ff1681565b34801561051657600080fd5b506008546102ac906001600160a01b031681565b34801561053657600080fd5b506006546001600160a01b03166102ac565b34801561055457600080fd5b5061027f610d26565b34801561056957600080fd5b506102e4610578366004611a04565b610d35565b34801561058957600080fd5b50610323606481565b34801561059e57600080fd5b506102e46105ad366004611aba565b610de1565b3480156105be57600080fd5b506103236101f481565b3480156105d457600080fd5b506103236828a857425466f8000081565b3480156105f157600080fd5b506102e4610600366004611b0c565b610dec565b6102e4610613366004611a04565b610e03565b34801561062457600080fd5b506102e4610633366004611a04565b610f44565b34801561064457600080fd5b5061027f610653366004611a04565b611059565b34801561066457600080fd5b50610323610673366004611a04565b600d6020526000908152604090205481565b34801561069157600080fd5b506103236812f939c99edab8000081565b3480156106ae57600080fd5b506102556106bd366004611a04565b600c6020526000908152604090205460ff1681565b3480156106de57600080fd5b506102556106ed366004611be8565b6110ce565b3480156106fe57600080fd5b506102e461070d366004611a63565b6110fc565b60006001600160e01b031982166380ac58cd60e01b148061074357506001600160e01b03198216635b5e139f60e01b145b8061075e57506301ffc9a760e01b6001600160e01b03198316145b92915050565b60606000805461077390611c1b565b80601f016020809104026020016040519081016040528092919081815260200182805461079f90611c1b565b80156107ec5780601f106107c1576101008083540402835291602001916107ec565b820191906000526020600020905b8154815290600101906020018083116107cf57829003601f168201915b5050505050905090565b60006108018261113a565b506000828152600460205260409020546001600160a01b031661075e565b61082a828233611173565b5050565b600f546001600160a01b0316336001600160a01b03161461086a5760405162461bcd60e51b815260040161086190611c55565b60405180910390fd5b6001600160a01b0381166108cc5760405162461bcd60e51b815260206004820152602360248201527f4e65772073757065722061646d696e20697320746865207a65726f206164647260448201526265737360e81b6064820152608401610861565b600f80546001600160a01b0319166001600160a01b0392909216919091179055565b6108f6611180565b6000818152600c602052604090205460ff1661094c5760405162461bcd60e51b8152602060048201526015602482015274111bd8dd5b595b9d081b9bdd08185c1c1c9bdd9959605a1b6044820152606401610861565b600a80546000918261095d83611cb2565b91905055905061096d83826111ad565b6000818152600d602052604080822084905551839183916001600160a01b038716917fe0106db28832af19ff78a393a4755726bb77bf6c5216f20c791af73ab871d01691a4505050565b6001600160a01b0382166109e157604051633250574960e11b815260006004820152602401610861565b60006109ee8383336111c7565b9050836001600160a01b0316816001600160a01b031614610a3c576040516364283d7b60e01b81526001600160a01b0380861660048301526024820184905282166044820152606401610861565b50505050565b600f546001600160a01b0316336001600160a01b031614610a755760405162461bcd60e51b815260040161086190611c55565b4780610aba5760405162461bcd60e51b81526020600482015260146024820152734e6f2066756e647320746f20776974686472617760601b6044820152606401610861565b600f546040516000916001600160a01b03169083908381818185875af1925050503d8060008114610b07576040519150601f19603f3d011682016040523d82523d6000602084013e610b0c565b606091505b5050905080610b515760405162461bcd60e51b815260206004820152601160248201527015da5d1a191c985dd85b0819985a5b1959607a1b6044820152606401610861565b600f546040518381526001600160a01b03909116907feaff4b37086828766ad3268786972c0cd24259d4c87a80f9d3963a3c3d999b0d9060200160405180910390a25050565b6008546001600160a01b0316336001600160a01b031614610bca5760405162461bcd60e51b815260040161086190611ccb565b6000818152600b602052604090205460ff16610c285760405162461bcd60e51b815260206004820152601e60248201527f446f63756d656e742072657175657374206e6f74207375626d697474656400006044820152606401610861565b6000908152600b60205260409020805460ff19169055565b610c5b83838360405180602001604052806000815250610dec565b505050565b610c68611180565b6000818152600d6020526040902054610c8082611269565b6000828152600d602052604080822082905551829184917f7bf811be4b63e212acf02f401f892c626d1a7ff23e7184606c9b646b351ad2289190a35050565b600061075e8261113a565b60006001600160a01b038216610cf6576040516322718ad960e21b815260006004820152602401610861565b506001600160a01b031660009081526003602052604090205490565b610d1a611180565b610d2460006112a4565b565b60606001805461077390611c1b565b6008546001600160a01b0316336001600160a01b031614610d685760405162461bcd60e51b815260040161086190611ccb565b6000818152600b602052604090205460ff16610dc65760405162461bcd60e51b815260206004820152601e60248201527f446f63756d656e742072657175657374206e6f74207375626d697474656400006044820152606401610861565b6000908152600c60205260409020805460ff19166001179055565b61082a3383836112f6565b610df78484846109b7565b610a3c84848484611395565b610e0b611180565b60008082600103610e2a57506064905068056bc75e2d63100000610ea0565b82600203610e4757506101f490506812f939c99edab80000610ea0565b82600303610e6457506105dc90506828a857425466f80000610ea0565b60405162461bcd60e51b8152602060048201526011602482015270496e76616c696420706c616e207479706560781b6044820152606401610861565b803414610eef5760405162461bcd60e51b815260206004820152601860248201527f496e636f7272656374207061796d656e7420616d6f756e7400000000000000006044820152606401610861565b81600e6000828254610f019190611d17565b909155505060408051838152602081018390527fdbe39cba979d975d532fdccea304c79ef558c3d7d0017210994f0d950a6a19bb910160405180910390a1505050565b610f4c611180565b6000818152600b602052604090205460ff1615610fb65760405162461bcd60e51b815260206004820152602260248201527f446f63756d656e74207265717565737420616c7265616479207375626d697474604482015261195960f21b6064820152608401610861565b6000600e5411610fff5760405162461bcd60e51b8152602060048201526014602482015273496e73756666696369656e74206372656469747360601b6044820152606401610861565b6000818152600b60205260408120805460ff19166001179055600e80549161102683611d2a565b909155505060405181907fd5ada0bbc30c773e6e013fab1c7daef52e78ac91ba0748530577e0f3a75b5f9290600090a250565b60606110648261113a565b50600061107c60408051602081019091526000815290565b9050600081511161109c57604051806020016040528060008152506110c7565b806110a6846114be565b6040516020016110b7929190611d41565b6040516020818303038152906040525b9392505050565b6001600160a01b03918216600090815260056020908152604080832093909416825291909152205460ff1690565b611104611180565b6001600160a01b03811661112e57604051631e4fbdf760e01b815260006004820152602401610861565b611137816112a4565b50565b6000818152600260205260408120546001600160a01b03168061075e57604051637e27328960e01b815260048101849052602401610861565b610c5b8383836001611551565b6006546001600160a01b03163314610d245760405163118cdaa760e01b8152336004820152602401610861565b61082a828260405180602001604052806000815250611657565b6000828152600260205260408120546001600160a01b03168015806111f357506001600160a01b038516155b6112555760405162461bcd60e51b815260206004820152602d60248201527f536f756c426f756e64546f6b656e3a20746f6b656e207472616e73666572206960448201526c1cc81b9bdd08185b1b1bddd959609a1b6064820152608401610861565b61126085858561166e565b95945050505050565b600061127860008360006111c7565b90506001600160a01b03811661082a57604051637e27328960e01b815260048101839052602401610861565b600680546001600160a01b038381166001600160a01b0319831681179093556040519116919082907f8be0079c531659141344cd1fd0a4f28419497f9722a3daafe3b4186f6b6457e090600090a35050565b6001600160a01b03821661132857604051630b61174360e31b81526001600160a01b0383166004820152602401610861565b6001600160a01b03838116600081815260056020908152604080832094871680845294825291829020805460ff191686151590811790915591519182527f17307eab39ab6107e8899845ad3d59bd9653f200f220920489ca2b5937696c31910160405180910390a3505050565b6001600160a01b0383163b15610a3c57604051630a85bd0160e11b81526001600160a01b0384169063150b7a02906113d7903390889087908790600401611d70565b6020604051808303816000875af1925050508015611412575060408051601f3d908101601f1916820190925261140f91810190611dad565b60015b61147b573d808015611440576040519150601f19603f3d011682016040523d82523d6000602084013e611445565b606091505b50805160000361147357604051633250574960e11b81526001600160a01b0385166004820152602401610861565b805181602001fd5b6001600160e01b03198116630a85bd0160e11b146114b757604051633250574960e11b81526001600160a01b0385166004820152602401610861565b5050505050565b606060006114cb83611767565b600101905060008167ffffffffffffffff8111156114eb576114eb611af6565b6040519080825280601f01601f191660200182016040528015611515576020820181803683370190505b5090508181016020015b600019016f181899199a1a9b1b9c1cb0b131b232b360811b600a86061a8153600a850494508461151f57509392505050565b808061156557506001600160a01b03821615155b156116275760006115758461113a565b90506001600160a01b038316158015906115a15750826001600160a01b0316816001600160a01b031614155b80156115b457506115b281846110ce565b155b156115dd5760405163a9fbf51f60e01b81526001600160a01b0384166004820152602401610861565b81156116255783856001600160a01b0316826001600160a01b03167f8c5be1e5ebec7d5bd14f71427d1e84f3dd0314c0f7b2291e5b200ac8c7c3b92560405160405180910390a45b505b5050600090815260046020526040902080546001600160a01b0319166001600160a01b0392909216919091179055565b611661838361183f565b610c5b6000848484611395565b6000828152600260205260408120546001600160a01b039081169083161561169b5761169b8184866118a4565b6001600160a01b038116156116d9576116b8600085600080611551565b6001600160a01b038116600090815260036020526040902080546000190190555b6001600160a01b03851615611708576001600160a01b0385166000908152600360205260409020805460010190555b60008481526002602052604080822080546001600160a01b0319166001600160a01b0389811691821790925591518793918516917fddf252ad1be2c89b69c2b068fc378daa952ba7f163c4a11628f55a4df523b3ef91a4949350505050565b60008072184f03e93ff9f4daa797ed6e38ed64bf6a1f0160401b83106117a65772184f03e93ff9f4daa797ed6e38ed64bf6a1f0160401b830492506040015b6d04ee2d6d415b85acef810000000083106117d2576d04ee2d6d415b85acef8100000000830492506020015b662386f26fc1000083106117f057662386f26fc10000830492506010015b6305f5e1008310611808576305f5e100830492506008015b612710831061181c57612710830492506004015b6064831061182e576064830492506002015b600a831061075e5760010192915050565b6001600160a01b03821661186957604051633250574960e11b815260006004820152602401610861565b6000611877838360006111c7565b90506001600160a01b03811615610c5b576040516339e3563760e11b815260006004820152602401610861565b6118af838383611908565b610c5b576001600160a01b0383166118dd57604051637e27328960e01b815260048101829052602401610861565b60405163177e802f60e01b81526001600160a01b038316600482015260248101829052604401610861565b60006001600160a01b038316158015906119665750826001600160a01b0316846001600160a01b03161480611942575061194284846110ce565b8061196657506000828152600460205260409020546001600160a01b038481169116145b949350505050565b6001600160e01b03198116811461113757600080fd5b60006020828403121561199657600080fd5b81356110c78161196e565b60005b838110156119bc5781810151838201526020016119a4565b50506000910152565b600081518084526119dd8160208601602086016119a1565b601f01601f19169290920160200192915050565b6020815260006110c760208301846119c5565b600060208284031215611a1657600080fd5b5035919050565b80356001600160a01b0381168114611a3457600080fd5b919050565b60008060408385031215611a4c57600080fd5b611a5583611a1d565b946020939093013593505050565b600060208284031215611a7557600080fd5b6110c782611a1d565b600080600060608486031215611a9357600080fd5b611a9c84611a1d565b9250611aaa60208501611a1d565b9150604084013590509250925092565b60008060408385031215611acd57600080fd5b611ad683611a1d565b915060208301358015158114611aeb57600080fd5b809150509250929050565b634e487b7160e01b600052604160045260246000fd5b60008060008060808587031215611b2257600080fd5b611b2b85611a1d565b9350611b3960208601611a1d565b925060408501359150606085013567ffffffffffffffff80821115611b5d57600080fd5b818701915087601f830112611b7157600080fd5b813581811115611b8357611b83611af6565b604051601f8201601f19908116603f01168101908382118183101715611bab57611bab611af6565b816040528281528a6020848701011115611bc457600080fd5b82602086016020830137600060208483010152809550505050505092959194509250565b60008060408385031215611bfb57600080fd5b611c0483611a1d565b9150611c1260208401611a1d565b90509250929050565b600181811c90821680611c2f57607f821691505b602082108103611c4f57634e487b7160e01b600052602260045260246000fd5b50919050565b60208082526027908201527f4f6e6c792073757065722061646d696e2063616e2063616c6c207468697320666040820152663ab731ba34b7b760c91b606082015260800190565b634e487b7160e01b600052601160045260246000fd5b600060018201611cc457611cc4611c9c565b5060010190565b6020808252602c908201527f4f6e6c792068696768657220617574686f726974792063616e2063616c6c207460408201526b3434b990333ab731ba34b7b760a11b606082015260800190565b8082018082111561075e5761075e611c9c565b600081611d3957611d39611c9c565b506000190190565b60008351611d538184602088016119a1565b835190830190611d678183602088016119a1565b01949350505050565b6001600160a01b0385811682528416602082015260408101839052608060608201819052600090611da3908301846119c5565b9695505050505050565b600060208284031215611dbf57600080fd5b81516110c78161196e56fea2646970667358221220f67e86ca400debb1e5dab2896eeea3c2a159d96dec3b4348dde50d4cbb70152564736f6c63430008140033608060405234801561001057600080fd5b5060405161094b38038061094b83398101604081905261002f9161011b565b826001600160a01b03811661005e57604051631e4fbdf760e01b81526000600482015260240160405180910390fd5b610067816100af565b50600180546001600160a01b03199081166001600160a01b03958616179091556002805490911692909316919091179091556004805460ff1916911515919091179055610167565b600080546001600160a01b038381166001600160a01b0319831681178455604051919092169283917f8be0079c531659141344cd1fd0a4f28419497f9722a3daafe3b4186f6b6457e09190a35050565b80516001600160a01b038116811461011657600080fd5b919050565b60008060006060848603121561013057600080fd5b610139846100ff565b9250610147602085016100ff565b91506040840151801515811461015c57600080fd5b809150509250925092565b6107d5806101766000396000f3fe608060405234801561001057600080fd5b50600436106100a95760003560e01c80638c102a6c116100715780638c102a6c146101415780638da5cb5b14610154578063b096885e14610165578063ba47f2ec14610178578063f2fde38b1461018b578063f31e20cf1461019e57600080fd5b8063134e18f4146100ae5780635149bce7146100de5780635e2861e6146100f3578063715018a6146101105780637e0e46b714610118575b600080fd5b6002546100c1906001600160a01b031681565b6040516001600160a01b0390911681526020015b60405180910390f35b6100f16100ec3660046106ac565b6101b1565b005b6004546101009060ff1681565b60405190151581526020016100d5565b6100f16102ec565b6100c16101263660046106d8565b6003602052600090815260409020546001600160a01b031681565b6001546100c1906001600160a01b031681565b6000546001600160a01b03166100c1565b6100f16101733660046106fc565b610300565b6100f16101863660046106ac565b610405565b6100f16101993660046106d8565b61054e565b6100f16101ac3660046106d8565b61058c565b6101b961061a565b6001600160a01b03828116600090815260036020526040902054166101f95760405162461bcd60e51b81526004016101f090610735565b60405180910390fd5b60045460ff16156102ac576001600160a01b0382811660009081526003602052604090819020549051632596828d60e21b81526004810184905291169063965a0a34906024015b600060405180830381600087803b15801561025a57600080fd5b505af115801561026e573d6000803e3d6000fd5b50506040518392506001600160a01b03851691507fe14a4298c3de15e01f60584916c83db6dcdd9d5715899a79b9f7fc5b17f9d25e90600090a35050565b6001600160a01b0382811660009081526003602052604090819020549051632596828d60e21b81526004810184905291169063965a0a3490602401610240565b6102f461061a565b6102fe6000610647565b565b600260009054906101000a90046001600160a01b03166001600160a01b031663966dae0e6040518163ffffffff1660e01b8152600401602060405180830381865afa158015610353573d6000803e3d6000fd5b505050506040513d601f19601f820116820180604052508101906103779190610782565b6001600160a01b0316336001600160a01b0316146103d75760405162461bcd60e51b815260206004820152601f60248201527f4f6e6c7920666163746f72792063616e2061646420696e73746974757465730060448201526064016101f0565b6001600160a01b03918216600090815260036020526040902080546001600160a01b03191691909216179055565b61040d61061a565b6001600160a01b03828116600090815260036020526040902054166104445760405162461bcd60e51b81526004016101f090610735565b60045460ff16156104a75760405162461bcd60e51b815260206004820152602760248201527f537570657220417574686f726974792063616e6e6f742072656a65637420646f60448201526663756d656e747360c81b60648201526084016101f0565b6001600160a01b03828116600090815260036020526040908190205490516319a81ceb60e11b81526004810184905291169063335039d690602401600060405180830381600087803b1580156104fc57600080fd5b505af1158015610510573d6000803e3d6000fd5b50506040518392506001600160a01b03851691507f08cacd49efad21085db9e3e20425396794ea682d6c597bac21a25129130863b690600090a35050565b61055661061a565b6001600160a01b03811661058057604051631e4fbdf760e01b8152600060048201526024016101f0565b61058981610647565b50565b61059461061a565b6001600160a01b03818116600090815260036020526040902054166105cb5760405162461bcd60e51b81526004016101f090610735565b6001600160a01b03811660008181526003602052604080822080546001600160a01b0319169055517fe5dd7339ec4cd76530b4cc5650777adea0b488adbfed43c5b6a867c10d08861b9190a250565b6000546001600160a01b031633146102fe5760405163118cdaa760e01b81523360048201526024016101f0565b600080546001600160a01b038381166001600160a01b0319831681178455604051919092169283917f8be0079c531659141344cd1fd0a4f28419497f9722a3daafe3b4186f6b6457e09190a35050565b6001600160a01b038116811461058957600080fd5b600080604083850312156106bf57600080fd5b82356106ca81610697565b946020939093013593505050565b6000602082840312156106ea57600080fd5b81356106f581610697565b9392505050565b6000806040838503121561070f57600080fd5b823561071a81610697565b9150602083013561072a81610697565b809150509250929050565b6020808252602d908201527f496e73746974757465206e6f74207265676973746572656420756e646572207460408201526c68697320617574686f7269747960981b606082015260800190565b60006020828403121561079457600080fd5b81516106f58161069756fea2646970667358221220b9926d12ac86e5357bc0932195b70d5fcb66896bedb78d11dd102fecabff4c6364736f6c63430008140033a2646970667358221220b9535641d367824ae4d34d70d2861ce149a7f95b4269cee9525b3f19e578100064736f6c63430008140033",
  "linkReferences": {},
  "deployedLinkReferences": {}
}