{
  "_format": "hh-sol-artifact-1",
  "contractName": "Factory",
  "sourceName": "contracts/Factory.sol",
  "abi": [
    {
      "inputs": [
        {
          "internalType": "address",
          "name": "_identityRegistryAddress",
          "type": "address"
        },
        {
          "internalType": "address",
          "name": "initialOwner",
          "type": "address"
        }
      ],
      "stateMutability": "nonpayable",
      "type": "constructor"
    },
    {
      "inputs": [
        {
          "internalType": "address",
          "name": "owner",
          "type": "address"
        }
      ],
      "name": "OwnableInvalidOwner",
      "type": "error"
    },
    {
      "inputs": [
        {
          "internalType": "address",
          "name": "account",
          "type": "address"
        }
      ],
      "name": "OwnableUnauthorizedAccount",
      "type": "error"
    },
    {
      "anonymous": false,
      "inputs": [
        {
          "indexed": true,
          "internalType": "address",
          "name": "authority",
          "type": "address"
        },
        {
          "indexed": false,
          "internalType": "address",
          "name": "contractAddress",
          "type": "address"
        }
      ],
      "name": "AuthorityContractCreated",
      "type": "event"
    },
    {
      "anonymous": false,
      "inputs": [
        {
          "indexed": true,
          "internalType": "address",
          "name": "institute",
          "type": "address"
        },
        {
          "indexed": false,
          "internalType": "address",
          "name": "contractAddress",
          "type": "address"
        },
        {
          "indexed": true,
          "internalType": "address",
          "name": "authority",
          "type": "address"
        }
      ],
      "name": "InstituteContractCreated",
      "type": "event"
    },
    {
      "anonymous": false,
      "inputs": [
        {
          "indexed": true,
          "internalType": "address",
          "name": "previousOwner",
          "type": "address"
        },
        {
          "indexed": true,
          "internalType": "address",
          "name": "newOwner",
          "type": "address"
        }
      ],
      "name": "OwnershipTransferred",
      "type": "event"
    },
    {
      "anonymous": false,
      "inputs": [
        {
          "indexed": true,
          "internalType": "address",
          "name": "superHigherAuthority",
          "type": "address"
        }
      ],
      "name": "SuperHigherAuthoritySet",
      "type": "event"
    },
    {
      "inputs": [
        {
          "internalType": "address",
          "name": "",
          "type": "address"
        }
      ],
      "name": "authorityContracts",
      "outputs": [
        {
          "internalType": "address",
          "name": "",
          "type": "address"
        }
      ],
      "stateMutability": "view",
      "type": "function"
    },
    {
      "inputs": [
        {
          "internalType": "address",
          "name": "_authority",
          "type": "address"
        }
      ],
      "name": "createAuthorityContract",
      "outputs": [],
      "stateMutability": "nonpayable",
      "type": "function"
    },
    {
      "inputs": [
        {
          "internalType": "address",
          "name": "_institute",
          "type": "address"
        },
        {
          "internalType": "address",
          "name": "_authority",
          "type": "address"
        }
      ],
      "name": "createInstituteContract",
      "outputs": [],
      "stateMutability": "nonpayable",
      "type": "function"
    },
    {
      "inputs": [
        {
          "internalType": "address",
          "name": "_authority",
          "type": "address"
        }
      ],
      "name": "getAuthorityContract",
      "outputs": [
        {
          "internalType": "address",
          "name": "",
          "type": "address"
        }
      ],
      "stateMutability": "view",
      "type": "function"
    },
    {
      "inputs": [
        {
          "internalType": "address",
          "name": "_institute",
          "type": "address"
        }
      ],
      "name": "getInstituteContract",
      "outputs": [
        {
          "internalType": "address",
          "name": "",
          "type": "address"
        }
      ],
      "stateMutability": "view",
      "type": "function"
    },
    {
      "inputs": [],
      "name": "identityRegistry",
      "outputs": [
        {
          "internalType": "contract IdentityRegistry",
          "name": "",
          "type": "address"
        }
      ],
      "stateMutability": "view",
      "type": "function"
    },
    {
      "inputs": [
        {
          "internalType": "address",
          "name": "",
          "type": "address"
        }
      ],
      "name": "instituteContracts",
      "outputs": [
        {
          "internalType": "address",
          "name": "",
          "type": "address"
        }
      ],
      "stateMutability": "view",
      "type": "function"
    },
    {
      "inputs": [],
      "name": "owner",
      "outputs": [
        {
          "internalType": "address",
          "name": "",
          "type": "address"
        }
      ],
      "stateMutability": "view",
      "type": "function"
    },
    {
      "inputs": [],
      "name": "renounceOwnership",
      "outputs": [],
      "stateMutability": "nonpayable",
      "type": "function"
    },
    {
      "inputs": [
        {
          "internalType": "address",
          "name": "_superHigherAuthority",
          "type": "address"
        }
      ],
      "name": "setSuperHigherAuthority",
      "outputs": [],
      "stateMutability": "nonpayable",
      "type": "function"
    },
    {
      "inputs": [],
      "name": "superHigherAuthority",
      "outputs": [
        {
          "internalType": "address",
          "name": "",
          "type": "address"
        }
      ],
      "stateMutability": "view",
      "type": "function"
    },
    {
      "inputs": [
        {
          "internalType": "address",
          "name": "newOwner",
          "type": "address"
        }
      ],
      "name": "transferOwnership",
      "outputs": [],
      "stateMutability": "nonpayable",
      "type": "function"
    }
  ],
  "bytecode": "0x60806040523480156200001157600080fd5b50604051620060c1380380620060c1833981810160405281019062000037919062000236565b80600073ffffffffffffffffffffffffffffffffffffffff168173ffffffffffffffffffffffffffffffffffffffff1603620000ad5760006040517f1e4fbdf7000000000000000000000000000000000000000000000000000000008152600401620000a491906200028e565b60405180910390fd5b620000be816200010860201b60201c565b5081600160006101000a81548173ffffffffffffffffffffffffffffffffffffffff021916908373ffffffffffffffffffffffffffffffffffffffff1602179055505050620002ab565b60008060009054906101000a900473ffffffffffffffffffffffffffffffffffffffff169050816000806101000a81548173ffffffffffffffffffffffffffffffffffffffff021916908373ffffffffffffffffffffffffffffffffffffffff1602179055508173ffffffffffffffffffffffffffffffffffffffff168173ffffffffffffffffffffffffffffffffffffffff167f8be0079c531659141344cd1fd0a4f28419497f9722a3daafe3b4186f6b6457e060405160405180910390a35050565b600080fd5b600073ffffffffffffffffffffffffffffffffffffffff82169050919050565b6000620001fe82620001d1565b9050919050565b6200021081620001f1565b81146200021c57600080fd5b50565b600081519050620002308162000205565b92915050565b6000806040838503121562000250576200024f620001cc565b5b600062000260858286016200021f565b925050602062000273858286016200021f565b9150509250929050565b6200028881620001f1565b82525050565b6000602082019050620002a560008301846200027d565b92915050565b615e0680620002bb6000396000f3fe60806040523480156200001157600080fd5b5060043610620000c45760003560e01c8063715018a6116200007b578063715018a614620001b95780638da5cb5b14620001c5578063ac1c1ff114620001e7578063c1614e92146200021d578063dde88f41146200023d578063f2fde38b146200027357620000c4565b8063134e18f414620000c95780633f4b50d914620000eb57806341b1f79714620001215780634a424f8d14620001575780634ee9bd3014620001775780636b2920d21462000199575b600080fd5b620000d362000293565b604051620000e2919062000f5a565b60405180910390f35b62000109600480360381019062000103919062000fc1565b620002b9565b60405162000118919062001004565b60405180910390f35b6200013f600480360381019062000139919062000fc1565b620002ec565b6040516200014e919062001004565b60405180910390f35b6200017560048036038101906200016f919062000fc1565b6200031f565b005b6200018162000444565b60405162000190919062001004565b60405180910390f35b620001b76004803603810190620001b1919062001021565b6200046a565b005b620001c3620008c5565b005b620001cf620008dd565b604051620001de919062001004565b60405180910390f35b620002056004803603810190620001ff919062000fc1565b62000906565b60405162000214919062001004565b60405180910390f35b6200023b600480360381019062000235919062000fc1565b6200096f565b005b6200025b600480360381019062000255919062000fc1565b62000c61565b6040516200026a919062001004565b60405180910390f35b6200029160048036038101906200028b919062000fc1565b62000cca565b005b600160009054906101000a900473ffffffffffffffffffffffffffffffffffffffff1681565b60046020528060005260406000206000915054906101000a900473ffffffffffffffffffffffffffffffffffffffff1681565b60036020528060005260406000206000915054906101000a900473ffffffffffffffffffffffffffffffffffffffff1681565b6200032962000d57565b600073ffffffffffffffffffffffffffffffffffffffff16600260009054906101000a900473ffffffffffffffffffffffffffffffffffffffff1673ffffffffffffffffffffffffffffffffffffffff1614620003bd576040517f08c379a0000000000000000000000000000000000000000000000000000000008152600401620003b490620010ef565b60405180910390fd5b80600260006101000a81548173ffffffffffffffffffffffffffffffffffffffff021916908373ffffffffffffffffffffffffffffffffffffffff1602179055508073ffffffffffffffffffffffffffffffffffffffff167fb2feafbb120ef48bc1a35c22280777bb30f4b3f3a57b385f35971397455b4aa160405160405180910390a250565b600260009054906101000a900473ffffffffffffffffffffffffffffffffffffffff1681565b600160009054906101000a900473ffffffffffffffffffffffffffffffffffffffff1673ffffffffffffffffffffffffffffffffffffffff16620004ad62000de7565b73ffffffffffffffffffffffffffffffffffffffff161462000506576040517f08c379a0000000000000000000000000000000000000000000000000000000008152600401620004fd9062001187565b60405180910390fd5b600073ffffffffffffffffffffffffffffffffffffffff16600460008473ffffffffffffffffffffffffffffffffffffffff1673ffffffffffffffffffffffffffffffffffffffff16815260200190815260200160002060009054906101000a900473ffffffffffffffffffffffffffffffffffffffff1673ffffffffffffffffffffffffffffffffffffffff1614620005d7576040517f08c379a0000000000000000000000000000000000000000000000000000000008152600401620005ce906200121f565b60405180910390fd5b600073ffffffffffffffffffffffffffffffffffffffff16600360008373ffffffffffffffffffffffffffffffffffffffff1673ffffffffffffffffffffffffffffffffffffffff16815260200190815260200160002060009054906101000a900473ffffffffffffffffffffffffffffffffffffffff1673ffffffffffffffffffffffffffffffffffffffff1603620006a8576040517f08c379a00000000000000000000000000000000000000000000000000000000081526004016200069f9062001291565b60405180910390fd5b60008282600160009054906101000a900473ffffffffffffffffffffffffffffffffffffffff16604051620006dd9062000eb3565b620006eb93929190620012b3565b604051809103906000f08015801562000708573d6000803e3d6000fd5b50905080600460008573ffffffffffffffffffffffffffffffffffffffff1673ffffffffffffffffffffffffffffffffffffffff16815260200190815260200160002060006101000a81548173ffffffffffffffffffffffffffffffffffffffff021916908373ffffffffffffffffffffffffffffffffffffffff160217905550600360008373ffffffffffffffffffffffffffffffffffffffff1673ffffffffffffffffffffffffffffffffffffffff16815260200190815260200160002060009054906101000a900473ffffffffffffffffffffffffffffffffffffffff1673ffffffffffffffffffffffffffffffffffffffff1663b096885e84836040518363ffffffff1660e01b815260040162000825929190620012f0565b600060405180830381600087803b1580156200084057600080fd5b505af115801562000855573d6000803e3d6000fd5b505050508173ffffffffffffffffffffffffffffffffffffffff168373ffffffffffffffffffffffffffffffffffffffff167fb3ae234721889eb7d42cc5dad1fff029c11437ad78c09dcb4b10b93da692fc2883604051620008b8919062001004565b60405180910390a3505050565b620008cf62000d57565b620008db600062000def565b565b60008060009054906101000a900473ffffffffffffffffffffffffffffffffffffffff16905090565b6000600360008373ffffffffffffffffffffffffffffffffffffffff1673ffffffffffffffffffffffffffffffffffffffff16815260200190815260200160002060009054906101000a900473ffffffffffffffffffffffffffffffffffffffff169050919050565b600160009054906101000a900473ffffffffffffffffffffffffffffffffffffffff1673ffffffffffffffffffffffffffffffffffffffff16620009b262000de7565b73ffffffffffffffffffffffffffffffffffffffff161462000a0b576040517f08c379a000000000000000000000000000000000000000000000000000000000815260040162000a029062001393565b60405180910390fd5b600073ffffffffffffffffffffffffffffffffffffffff16600360008373ffffffffffffffffffffffffffffffffffffffff1673ffffffffffffffffffffffffffffffffffffffff16815260200190815260200160002060009054906101000a900473ffffffffffffffffffffffffffffffffffffffff1673ffffffffffffffffffffffffffffffffffffffff161462000adc576040517f08c379a000000000000000000000000000000000000000000000000000000000815260040162000ad3906200142b565b60405180910390fd5b600081600160009054906101000a900473ffffffffffffffffffffffffffffffffffffffff16600260009054906101000a900473ffffffffffffffffffffffffffffffffffffffff1673ffffffffffffffffffffffffffffffffffffffff168473ffffffffffffffffffffffffffffffffffffffff161460405162000b619062000ec1565b62000b6f939291906200146a565b604051809103906000f08015801562000b8c573d6000803e3d6000fd5b50905080600360008473ffffffffffffffffffffffffffffffffffffffff1673ffffffffffffffffffffffffffffffffffffffff16815260200190815260200160002060006101000a81548173ffffffffffffffffffffffffffffffffffffffff021916908373ffffffffffffffffffffffffffffffffffffffff1602179055508173ffffffffffffffffffffffffffffffffffffffff167f7ddf02cbdda2dc6e9c0bd84c6846ffc14b634e745be2a6e4d081b6d8b85458e38260405162000c55919062001004565b60405180910390a25050565b6000600460008373ffffffffffffffffffffffffffffffffffffffff1673ffffffffffffffffffffffffffffffffffffffff16815260200190815260200160002060009054906101000a900473ffffffffffffffffffffffffffffffffffffffff169050919050565b62000cd462000d57565b600073ffffffffffffffffffffffffffffffffffffffff168173ffffffffffffffffffffffffffffffffffffffff160362000d495760006040517f1e4fbdf700000000000000000000000000000000000000000000000000000000815260040162000d40919062001004565b60405180910390fd5b62000d548162000def565b50565b62000d6162000de7565b73ffffffffffffffffffffffffffffffffffffffff1662000d81620008dd565b73ffffffffffffffffffffffffffffffffffffffff161462000de55762000da762000de7565b6040517f118cdaa700000000000000000000000000000000000000000000000000000000815260040162000ddc919062001004565b60405180910390fd5b565b600033905090565b60008060009054906101000a900473ffffffffffffffffffffffffffffffffffffffff169050816000806101000a81548173ffffffffffffffffffffffffffffffffffffffff021916908373ffffffffffffffffffffffffffffffffffffffff1602179055508173ffffffffffffffffffffffffffffffffffffffff168173ffffffffffffffffffffffffffffffffffffffff167f8be0079c531659141344cd1fd0a4f28419497f9722a3daafe3b4186f6b6457e060405160405180910390a35050565b61347b80620014a883390190565b6114ae806200492383390190565b600073ffffffffffffffffffffffffffffffffffffffff82169050919050565b6000819050919050565b600062000f1a62000f1462000f0e8462000ecf565b62000eef565b62000ecf565b9050919050565b600062000f2e8262000ef9565b9050919050565b600062000f428262000f21565b9050919050565b62000f548162000f35565b82525050565b600060208201905062000f71600083018462000f49565b92915050565b600080fd5b600062000f898262000ecf565b9050919050565b62000f9b8162000f7c565b811462000fa757600080fd5b50565b60008135905062000fbb8162000f90565b92915050565b60006020828403121562000fda5762000fd962000f77565b5b600062000fea8482850162000faa565b91505092915050565b62000ffe8162000f7c565b82525050565b60006020820190506200101b600083018462000ff3565b92915050565b600080604083850312156200103b576200103a62000f77565b5b60006200104b8582860162000faa565b92505060206200105e8582860162000faa565b9150509250929050565b600082825260208201905092915050565b7f53757065722068696768657220617574686f7269747920616c7265616479207360008201527f6574000000000000000000000000000000000000000000000000000000000000602082015250565b6000620010d760228362001068565b9150620010e48262001079565b604082019050919050565b600060208201905081810360008301526200110a81620010c8565b9050919050565b7f4f6e6c79204964656e7469747952656769737472792063616e2063726561746560008201527f20496e7374697475746520636f6e747261637473000000000000000000000000602082015250565b60006200116f60348362001068565b91506200117c8262001111565b604082019050919050565b60006020820190508181036000830152620011a28162001160565b9050919050565b7f496e7374697475746520636f6e747261637420616c726561647920657869737460008201527f7300000000000000000000000000000000000000000000000000000000000000602082015250565b60006200120760218362001068565b91506200121482620011a9565b604082019050919050565b600060208201905081810360008301526200123a81620011f8565b9050919050565b7f496e76616c696420617574686f72697479000000000000000000000000000000600082015250565b60006200127960118362001068565b9150620012868262001241565b602082019050919050565b60006020820190508181036000830152620012ac816200126a565b9050919050565b6000606082019050620012ca600083018662000ff3565b620012d9602083018562000ff3565b620012e8604083018462000ff3565b949350505050565b600060408201905062001307600083018562000ff3565b62001316602083018462000ff3565b9392505050565b7f4f6e6c79204964656e7469747952656769737472792063616e2063726561746560008201527f20417574686f7269747920636f6e747261637473000000000000000000000000602082015250565b60006200137b60348362001068565b915062001388826200131d565b604082019050919050565b60006020820190508181036000830152620013ae816200136c565b9050919050565b7f417574686f7269747920636f6e747261637420616c726561647920657869737460008201527f7300000000000000000000000000000000000000000000000000000000000000602082015250565b60006200141360218362001068565b91506200142082620013b5565b604082019050919050565b60006020820190508181036000830152620014468162001404565b9050919050565b60008115159050919050565b62001464816200144d565b82525050565b600060608201905062001481600083018662000ff3565b62001490602083018562000ff3565b6200149f604083018462001459565b94935050505056fe60806040523480156200001157600080fd5b506040516200347b3803806200347b83398181016040528101906200003791906200035e565b336040518060400160405280600e81526020017f536f756c426f756e64546f6b656e0000000000000000000000000000000000008152506040518060400160405280600381526020017f53425400000000000000000000000000000000000000000000000000000000008152508160009081620000b5919062000634565b508060019081620000c7919062000634565b505050600073ffffffffffffffffffffffffffffffffffffffff168173ffffffffffffffffffffffffffffffffffffffff16036200013f5760006040517f1e4fbdf70000000000000000000000000000000000000000000000000000000081526004016200013691906200072c565b60405180910390fd5b62000150816200022e60201b60201c565b5082600760006101000a81548173ffffffffffffffffffffffffffffffffffffffff021916908373ffffffffffffffffffffffffffffffffffffffff16021790555081600860006101000a81548173ffffffffffffffffffffffffffffffffffffffff021916908373ffffffffffffffffffffffffffffffffffffffff16021790555080600960006101000a81548173ffffffffffffffffffffffffffffffffffffffff021916908373ffffffffffffffffffffffffffffffffffffffff16021790555062000225836200022e60201b60201c565b50505062000749565b6000600660009054906101000a900473ffffffffffffffffffffffffffffffffffffffff16905081600660006101000a81548173ffffffffffffffffffffffffffffffffffffffff021916908373ffffffffffffffffffffffffffffffffffffffff1602179055508173ffffffffffffffffffffffffffffffffffffffff168173ffffffffffffffffffffffffffffffffffffffff167f8be0079c531659141344cd1fd0a4f28419497f9722a3daafe3b4186f6b6457e060405160405180910390a35050565b600080fd5b600073ffffffffffffffffffffffffffffffffffffffff82169050919050565b60006200032682620002f9565b9050919050565b620003388162000319565b81146200034457600080fd5b50565b60008151905062000358816200032d565b92915050565b6000806000606084860312156200037a5762000379620002f4565b5b60006200038a8682870162000347565b93505060206200039d8682870162000347565b9250506040620003b08682870162000347565b9150509250925092565b600081519050919050565b7f4e487b7100000000000000000000000000000000000000000000000000000000600052604160045260246000fd5b7f4e487b7100000000000000000000000000000000000000000000000000000000600052602260045260246000fd5b600060028204905060018216806200043c57607f821691505b602082108103620004525762000451620003f4565b5b50919050565b60008190508160005260206000209050919050565b60006020601f8301049050919050565b600082821b905092915050565b600060088302620004bc7fffffffffffffffffffffffffffffffffffffffffffffffffffffffffffffffff826200047d565b620004c886836200047d565b95508019841693508086168417925050509392505050565b6000819050919050565b6000819050919050565b6000620005156200050f6200050984620004e0565b620004ea565b620004e0565b9050919050565b6000819050919050565b6200053183620004f4565b6200054962000540826200051c565b8484546200048a565b825550505050565b600090565b6200056062000551565b6200056d81848462000526565b505050565b5b8181101562000595576200058960008262000556565b60018101905062000573565b5050565b601f821115620005e457620005ae8162000458565b620005b9846200046d565b81016020851015620005c9578190505b620005e1620005d8856200046d565b83018262000572565b50505b505050565b600082821c905092915050565b60006200060960001984600802620005e9565b1980831691505092915050565b6000620006248383620005f6565b9150826002028217905092915050565b6200063f82620003ba565b67ffffffffffffffff8111156200065b576200065a620003c5565b5b62000667825462000423565b6200067482828562000599565b600060209050601f831160018114620006ac576000841562000697578287015190505b620006a3858262000616565b86555062000713565b601f198416620006bc8662000458565b60005b82811015620006e657848901518255600182019150602085019450602081019050620006bf565b8683101562000706578489015162000702601f891682620005f6565b8355505b6001600288020188555050505b505050505050565b620007268162000319565b82525050565b60006020820190506200074360008301846200071b565b92915050565b612d2280620007596000396000f3fe608060405234801561001057600080fd5b50600436106101a95760003560e01c8063715018a6116100f9578063b88d4fde11610097578063d93c7f8b11610071578063d93c7f8b146104a4578063def75e04146104d4578063e985e9c514610504578063f2fde38b14610534576101a9565b8063b88d4fde1461043c578063c0d2beb714610458578063c87b56dd14610474576101a9565b80638da5cb5b116100d35780638da5cb5b146103c857806395d89b41146103e6578063965a0a3414610404578063a22cb46514610420576101a9565b8063715018a614610370578063852394f61461037a5780638c102a6c146103aa576101a9565b806323b872dd1161016657806342842e0e1161014057806342842e0e146102d857806354d0dd4c146102f45780636352211e1461031057806370a0823114610340576101a9565b806323b872dd1461028257806327c10cfb1461029e578063335039d6146102bc576101a9565b806301ffc9a7146101ae57806306fdde03146101de578063081812fc146101fc578063095ea7b31461022c578063134e18f41461024857806318afd12714610266575b600080fd5b6101c860048036038101906101c39190612120565b610550565b6040516101d59190612168565b60405180910390f35b6101e6610632565b6040516101f39190612213565b60405180910390f35b6102166004803603810190610211919061226b565b6106c4565b60405161022391906122d9565b60405180910390f35b61024660048036038101906102419190612320565b6106e0565b005b6102506106f6565b60405161025d91906123bf565b60405180910390f35b610280600480360381019061027b9190612410565b61071c565b005b61029c60048036038101906102979190612450565b61080b565b005b6102a661090d565b6040516102b391906122d9565b60405180910390f35b6102d660048036038101906102d191906124a3565b610933565b005b6102f260048036038101906102ed9190612450565b610a50565b005b61030e6004803603810190610309919061226b565b610a70565b005b61032a6004803603810190610325919061226b565b610ae2565b60405161033791906122d9565b60405180910390f35b61035a600480360381019061035591906124d0565b610af4565b604051610367919061250c565b60405180910390f35b610378610bae565b005b610394600480360381019061038f91906124a3565b610bc2565b6040516103a19190612168565b60405180910390f35b6103b2610be2565b6040516103bf91906122d9565b60405180910390f35b6103d0610c08565b6040516103dd91906122d9565b60405180910390f35b6103ee610c32565b6040516103fb9190612213565b60405180910390f35b61041e600480360381019061041991906124a3565b610cc4565b005b61043a60048036038101906104359190612553565b610dea565b005b610456600480360381019061045191906126c8565b610e00565b005b610472600480360381019061046d91906124a3565b610e1d565b005b61048e6004803603810190610489919061226b565b610ee2565b60405161049b9190612213565b60405180910390f35b6104be60048036038101906104b9919061226b565b610f4b565b6040516104cb919061275a565b60405180910390f35b6104ee60048036038101906104e991906124a3565b610f63565b6040516104fb9190612168565b60405180910390f35b61051e60048036038101906105199190612775565b610f83565b60405161052b9190612168565b60405180910390f35b61054e600480360381019061054991906124d0565b611017565b005b60007f80ac58cd000000000000000000000000000000000000000000000000000000007bffffffffffffffffffffffffffffffffffffffffffffffffffffffff1916827bffffffffffffffffffffffffffffffffffffffffffffffffffffffff1916148061061b57507f5b5e139f000000000000000000000000000000000000000000000000000000007bffffffffffffffffffffffffffffffffffffffffffffffffffffffff1916827bffffffffffffffffffffffffffffffffffffffffffffffffffffffff1916145b8061062b575061062a8261109d565b5b9050919050565b606060008054610641906127e4565b80601f016020809104026020016040519081016040528092919081815260200182805461066d906127e4565b80156106ba5780601f1061068f576101008083540402835291602001916106ba565b820191906000526020600020905b81548152906001019060200180831161069d57829003601f168201915b5050505050905090565b60006106cf82611107565b506106d98261118f565b9050919050565b6106f282826106ed6111cc565b6111d4565b5050565b600960009054906101000a900473ffffffffffffffffffffffffffffffffffffffff1681565b6107246111e6565b600c600082815260200190815260200160002060009054906101000a900460ff16610784576040517f08c379a000000000000000000000000000000000000000000000000000000000815260040161077b90612861565b60405180910390fd5b6000600a6000815480929190610799906128b0565b9190505590506107a9838261126d565b81600d60008381526020019081526020016000208190555081818473ffffffffffffffffffffffffffffffffffffffff167fe0106db28832af19ff78a393a4755726bb77bf6c5216f20c791af73ab871d01660405160405180910390a4505050565b600073ffffffffffffffffffffffffffffffffffffffff168273ffffffffffffffffffffffffffffffffffffffff160361087d5760006040517f64a0ae9200000000000000000000000000000000000000000000000000000000815260040161087491906122d9565b60405180910390fd5b6000610891838361088c6111cc565b61128b565b90508373ffffffffffffffffffffffffffffffffffffffff168173ffffffffffffffffffffffffffffffffffffffff1614610907578382826040517f64283d7b0000000000000000000000000000000000000000000000000000000081526004016108fe939291906128f8565b60405180910390fd5b50505050565b600760009054906101000a900473ffffffffffffffffffffffffffffffffffffffff1681565b600860009054906101000a900473ffffffffffffffffffffffffffffffffffffffff1673ffffffffffffffffffffffffffffffffffffffff166109746111cc565b73ffffffffffffffffffffffffffffffffffffffff16146109ca576040517f08c379a00000000000000000000000000000000000000000000000000000000081526004016109c1906129a1565b60405180910390fd5b600b600082815260200190815260200160002060009054906101000a900460ff16610a2a576040517f08c379a0000000000000000000000000000000000000000000000000000000008152600401610a2190612a0d565b60405180910390fd5b600b600082815260200190815260200160002060006101000a81549060ff021916905550565b610a6b83838360405180602001604052806000815250610e00565b505050565b610a786111e6565b6000600d6000838152602001908152602001600020549050610a9982611354565b600d60008381526020019081526020016000206000905580827f7bf811be4b63e212acf02f401f892c626d1a7ff23e7184606c9b646b351ad22860405160405180910390a35050565b6000610aed82611107565b9050919050565b60008073ffffffffffffffffffffffffffffffffffffffff168273ffffffffffffffffffffffffffffffffffffffff1603610b675760006040517f89c62b64000000000000000000000000000000000000000000000000000000008152600401610b5e91906122d9565b60405180910390fd5b600360008373ffffffffffffffffffffffffffffffffffffffff1673ffffffffffffffffffffffffffffffffffffffff168152602001908152602001600020549050919050565b610bb66111e6565b610bc060006113da565b565b600b6020528060005260406000206000915054906101000a900460ff1681565b600860009054906101000a900473ffffffffffffffffffffffffffffffffffffffff1681565b6000600660009054906101000a900473ffffffffffffffffffffffffffffffffffffffff16905090565b606060018054610c41906127e4565b80601f0160208091040260200160405190810160405280929190818152602001828054610c6d906127e4565b8015610cba5780601f10610c8f57610100808354040283529160200191610cba565b820191906000526020600020905b815481529060010190602001808311610c9d57829003601f168201915b5050505050905090565b600860009054906101000a900473ffffffffffffffffffffffffffffffffffffffff1673ffffffffffffffffffffffffffffffffffffffff16610d056111cc565b73ffffffffffffffffffffffffffffffffffffffff1614610d5b576040517f08c379a0000000000000000000000000000000000000000000000000000000008152600401610d52906129a1565b60405180910390fd5b600b600082815260200190815260200160002060009054906101000a900460ff16610dbb576040517f08c379a0000000000000000000000000000000000000000000000000000000008152600401610db290612a0d565b60405180910390fd5b6001600c600083815260200190815260200160002060006101000a81548160ff02191690831515021790555050565b610dfc610df56111cc565b83836114a0565b5050565b610e0b84848461080b565b610e178484848461160f565b50505050565b610e256111e6565b600b600082815260200190815260200160002060009054906101000a900460ff1615610e86576040517f08c379a0000000000000000000000000000000000000000000000000000000008152600401610e7d90612a9f565b60405180910390fd5b6001600b600083815260200190815260200160002060006101000a81548160ff021916908315150217905550807fd5ada0bbc30c773e6e013fab1c7daef52e78ac91ba0748530577e0f3a75b5f9260405160405180910390a250565b6060610eed82611107565b506000610ef86117c6565b90506000815111610f185760405180602001604052806000815250610f43565b80610f22846117dd565b604051602001610f33929190612afb565b6040516020818303038152906040525b915050919050565b600d6020528060005260406000206000915090505481565b600c6020528060005260406000206000915054906101000a900460ff1681565b6000600560008473ffffffffffffffffffffffffffffffffffffffff1673ffffffffffffffffffffffffffffffffffffffff16815260200190815260200160002060008373ffffffffffffffffffffffffffffffffffffffff1673ffffffffffffffffffffffffffffffffffffffff16815260200190815260200160002060009054906101000a900460ff16905092915050565b61101f6111e6565b600073ffffffffffffffffffffffffffffffffffffffff168173ffffffffffffffffffffffffffffffffffffffff16036110915760006040517f1e4fbdf700000000000000000000000000000000000000000000000000000000815260040161108891906122d9565b60405180910390fd5b61109a816113da565b50565b60007f01ffc9a7000000000000000000000000000000000000000000000000000000007bffffffffffffffffffffffffffffffffffffffffffffffffffffffff1916827bffffffffffffffffffffffffffffffffffffffffffffffffffffffff1916149050919050565b600080611113836118ab565b9050600073ffffffffffffffffffffffffffffffffffffffff168173ffffffffffffffffffffffffffffffffffffffff160361118657826040517f7e27328900000000000000000000000000000000000000000000000000000000815260040161117d919061250c565b60405180910390fd5b80915050919050565b60006004600083815260200190815260200160002060009054906101000a900473ffffffffffffffffffffffffffffffffffffffff169050919050565b600033905090565b6111e183838360016118e8565b505050565b6111ee6111cc565b73ffffffffffffffffffffffffffffffffffffffff1661120c610c08565b73ffffffffffffffffffffffffffffffffffffffff161461126b5761122f6111cc565b6040517f118cdaa700000000000000000000000000000000000000000000000000000000815260040161126291906122d9565b60405180910390fd5b565b611287828260405180602001604052806000815250611aad565b5050565b600080611297846118ab565b9050600073ffffffffffffffffffffffffffffffffffffffff168173ffffffffffffffffffffffffffffffffffffffff1614806113005750600073ffffffffffffffffffffffffffffffffffffffff168573ffffffffffffffffffffffffffffffffffffffff16145b61133f576040517f08c379a000000000000000000000000000000000000000000000000000000000815260040161133690612b91565b60405180910390fd5b61134a858585611ac9565b9150509392505050565b6000611363600083600061128b565b9050600073ffffffffffffffffffffffffffffffffffffffff168173ffffffffffffffffffffffffffffffffffffffff16036113d657816040517f7e2732890000000000000000000000000000000000000000000000000000000081526004016113cd919061250c565b60405180910390fd5b5050565b6000600660009054906101000a900473ffffffffffffffffffffffffffffffffffffffff16905081600660006101000a81548173ffffffffffffffffffffffffffffffffffffffff021916908373ffffffffffffffffffffffffffffffffffffffff1602179055508173ffffffffffffffffffffffffffffffffffffffff168173ffffffffffffffffffffffffffffffffffffffff167f8be0079c531659141344cd1fd0a4f28419497f9722a3daafe3b4186f6b6457e060405160405180910390a35050565b600073ffffffffffffffffffffffffffffffffffffffff168273ffffffffffffffffffffffffffffffffffffffff160361151157816040517f5b08ba1800000000000000000000000000000000000000000000000000000000815260040161150891906122d9565b60405180910390fd5b80600560008573ffffffffffffffffffffffffffffffffffffffff1673ffffffffffffffffffffffffffffffffffffffff16815260200190815260200160002060008473ffffffffffffffffffffffffffffffffffffffff1673ffffffffffffffffffffffffffffffffffffffff16815260200190815260200160002060006101000a81548160ff0219169083151502179055508173ffffffffffffffffffffffffffffffffffffffff168373ffffffffffffffffffffffffffffffffffffffff167f17307eab39ab6107e8899845ad3d59bd9653f200f220920489ca2b5937696c31836040516116029190612168565b60405180910390a3505050565b60008373ffffffffffffffffffffffffffffffffffffffff163b11156117c0578273ffffffffffffffffffffffffffffffffffffffff1663150b7a026116536111cc565b8685856040518563ffffffff1660e01b81526004016116759493929190612c06565b6020604051808303816000875af19250505080156116b157506040513d601f19601f820116820180604052508101906116ae9190612c67565b60015b611735573d80600081146116e1576040519150601f19603f3d011682016040523d82523d6000602084013e6116e6565b606091505b50600081510361172d57836040517f64a0ae9200000000000000000000000000000000000000000000000000000000815260040161172491906122d9565b60405180910390fd5b805181602001fd5b63150b7a0260e01b7bffffffffffffffffffffffffffffffffffffffffffffffffffffffff1916817bffffffffffffffffffffffffffffffffffffffffffffffffffffffff1916146117be57836040517f64a0ae920000000000000000000000000000000000000000000000000000000081526004016117b591906122d9565b60405180910390fd5b505b50505050565b606060405180602001604052806000815250905090565b6060600060016117ec84611ce3565b01905060008167ffffffffffffffff81111561180b5761180a61259d565b5b6040519080825280601f01601f19166020018201604052801561183d5781602001600182028036833780820191505090505b509050600082602001820190505b6001156118a0578080600190039150507f3031323334353637383961626364656600000000000000000000000000000000600a86061a8153600a858161189457611893612c94565b5b0494506000850361184b575b819350505050919050565b60006002600083815260200190815260200160002060009054906101000a900473ffffffffffffffffffffffffffffffffffffffff169050919050565b80806119215750600073ffffffffffffffffffffffffffffffffffffffff168273ffffffffffffffffffffffffffffffffffffffff1614155b15611a5557600061193184611107565b9050600073ffffffffffffffffffffffffffffffffffffffff168373ffffffffffffffffffffffffffffffffffffffff161415801561199c57508273ffffffffffffffffffffffffffffffffffffffff168173ffffffffffffffffffffffffffffffffffffffff1614155b80156119af57506119ad8184610f83565b155b156119f157826040517fa9fbf51f0000000000000000000000000000000000000000000000000000000081526004016119e891906122d9565b60405180910390fd5b8115611a5357838573ffffffffffffffffffffffffffffffffffffffff168273ffffffffffffffffffffffffffffffffffffffff167f8c5be1e5ebec7d5bd14f71427d1e84f3dd0314c0f7b2291e5b200ac8c7c3b92560405160405180910390a45b505b836004600085815260200190815260200160002060006101000a81548173ffffffffffffffffffffffffffffffffffffffff021916908373ffffffffffffffffffffffffffffffffffffffff16021790555050505050565b611ab78383611e36565b611ac4600084848461160f565b505050565b600080611ad5846118ab565b9050600073ffffffffffffffffffffffffffffffffffffffff168373ffffffffffffffffffffffffffffffffffffffff1614611b1757611b16818486611f2f565b5b600073ffffffffffffffffffffffffffffffffffffffff168173ffffffffffffffffffffffffffffffffffffffff1614611ba857611b596000856000806118e8565b6001600360008373ffffffffffffffffffffffffffffffffffffffff1673ffffffffffffffffffffffffffffffffffffffff168152602001908152602001600020600082825403925050819055505b600073ffffffffffffffffffffffffffffffffffffffff168573ffffffffffffffffffffffffffffffffffffffff1614611c2b576001600360008773ffffffffffffffffffffffffffffffffffffffff1673ffffffffffffffffffffffffffffffffffffffff168152602001908152602001600020600082825401925050819055505b846002600086815260200190815260200160002060006101000a81548173ffffffffffffffffffffffffffffffffffffffff021916908373ffffffffffffffffffffffffffffffffffffffff160217905550838573ffffffffffffffffffffffffffffffffffffffff168273ffffffffffffffffffffffffffffffffffffffff167fddf252ad1be2c89b69c2b068fc378daa952ba7f163c4a11628f55a4df523b3ef60405160405180910390a4809150509392505050565b600080600090507a184f03e93ff9f4daa797ed6e38ed64bf6a1f0100000000000000008310611d41577a184f03e93ff9f4daa797ed6e38ed64bf6a1f0100000000000000008381611d3757611d36612c94565b5b0492506040810190505b6d04ee2d6d415b85acef81000000008310611d7e576d04ee2d6d415b85acef81000000008381611d7457611d73612c94565b5b0492506020810190505b662386f26fc100008310611dad57662386f26fc100008381611da357611da2612c94565b5b0492506010810190505b6305f5e1008310611dd6576305f5e1008381611dcc57611dcb612c94565b5b0492506008810190505b6127108310611dfb576127108381611df157611df0612c94565b5b0492506004810190505b60648310611e1e5760648381611e1457611e13612c94565b5b0492506002810190505b600a8310611e2d576001810190505b80915050919050565b600073ffffffffffffffffffffffffffffffffffffffff168273ffffffffffffffffffffffffffffffffffffffff1603611ea85760006040517f64a0ae92000000000000000000000000000000000000000000000000000000008152600401611e9f91906122d9565b60405180910390fd5b6000611eb68383600061128b565b9050600073ffffffffffffffffffffffffffffffffffffffff168173ffffffffffffffffffffffffffffffffffffffff1614611f2a5760006040517f73c6ac6e000000000000000000000000000000000000000000000000000000008152600401611f2191906122d9565b60405180910390fd5b505050565b611f3a838383611ff3565b611fee57600073ffffffffffffffffffffffffffffffffffffffff168373ffffffffffffffffffffffffffffffffffffffff1603611faf57806040517f7e273289000000000000000000000000000000000000000000000000000000008152600401611fa6919061250c565b60405180910390fd5b81816040517f177e802f000000000000000000000000000000000000000000000000000000008152600401611fe5929190612cc3565b60405180910390fd5b505050565b60008073ffffffffffffffffffffffffffffffffffffffff168373ffffffffffffffffffffffffffffffffffffffff16141580156120ab57508273ffffffffffffffffffffffffffffffffffffffff168473ffffffffffffffffffffffffffffffffffffffff16148061206c575061206b8484610f83565b5b806120aa57508273ffffffffffffffffffffffffffffffffffffffff166120928361118f565b73ffffffffffffffffffffffffffffffffffffffff16145b5b90509392505050565b6000604051905090565b600080fd5b600080fd5b60007fffffffff0000000000000000000000000000000000000000000000000000000082169050919050565b6120fd816120c8565b811461210857600080fd5b50565b60008135905061211a816120f4565b92915050565b600060208284031215612136576121356120be565b5b60006121448482850161210b565b91505092915050565b60008115159050919050565b6121628161214d565b82525050565b600060208201905061217d6000830184612159565b92915050565b600081519050919050565b600082825260208201905092915050565b60005b838110156121bd5780820151818401526020810190506121a2565b60008484015250505050565b6000601f19601f8301169050919050565b60006121e582612183565b6121ef818561218e565b93506121ff81856020860161219f565b612208816121c9565b840191505092915050565b6000602082019050818103600083015261222d81846121da565b905092915050565b6000819050919050565b61224881612235565b811461225357600080fd5b50565b6000813590506122658161223f565b92915050565b600060208284031215612281576122806120be565b5b600061228f84828501612256565b91505092915050565b600073ffffffffffffffffffffffffffffffffffffffff82169050919050565b60006122c382612298565b9050919050565b6122d3816122b8565b82525050565b60006020820190506122ee60008301846122ca565b92915050565b6122fd816122b8565b811461230857600080fd5b50565b60008135905061231a816122f4565b92915050565b60008060408385031215612337576123366120be565b5b60006123458582860161230b565b925050602061235685828601612256565b9150509250929050565b6000819050919050565b600061238561238061237b84612298565b612360565b612298565b9050919050565b60006123978261236a565b9050919050565b60006123a98261238c565b9050919050565b6123b98161239e565b82525050565b60006020820190506123d460008301846123b0565b92915050565b6000819050919050565b6123ed816123da565b81146123f857600080fd5b50565b60008135905061240a816123e4565b92915050565b60008060408385031215612427576124266120be565b5b60006124358582860161230b565b9250506020612446858286016123fb565b9150509250929050565b600080600060608486031215612469576124686120be565b5b60006124778682870161230b565b93505060206124888682870161230b565b925050604061249986828701612256565b9150509250925092565b6000602082840312156124b9576124b86120be565b5b60006124c7848285016123fb565b91505092915050565b6000602082840312156124e6576124e56120be565b5b60006124f48482850161230b565b91505092915050565b61250681612235565b82525050565b600060208201905061252160008301846124fd565b92915050565b6125308161214d565b811461253b57600080fd5b50565b60008135905061254d81612527565b92915050565b6000806040838503121561256a576125696120be565b5b60006125788582860161230b565b92505060206125898582860161253e565b9150509250929050565b600080fd5b600080fd5b7f4e487b7100000000000000000000000000000000000000000000000000000000600052604160045260246000fd5b6125d5826121c9565b810181811067ffffffffffffffff821117156125f4576125f361259d565b5b80604052505050565b60006126076120b4565b905061261382826125cc565b919050565b600067ffffffffffffffff8211156126335761263261259d565b5b61263c826121c9565b9050602081019050919050565b82818337600083830152505050565b600061266b61266684612618565b6125fd565b90508281526020810184848401111561268757612686612598565b5b612692848285612649565b509392505050565b600082601f8301126126af576126ae612593565b5b81356126bf848260208601612658565b91505092915050565b600080600080608085870312156126e2576126e16120be565b5b60006126f08782880161230b565b94505060206127018782880161230b565b935050604061271287828801612256565b925050606085013567ffffffffffffffff811115612733576127326120c3565b5b61273f8782880161269a565b91505092959194509250565b612754816123da565b82525050565b600060208201905061276f600083018461274b565b92915050565b6000806040838503121561278c5761278b6120be565b5b600061279a8582860161230b565b92505060206127ab8582860161230b565b9150509250929050565b7f4e487b7100000000000000000000000000000000000000000000000000000000600052602260045260246000fd5b600060028204905060018216806127fc57607f821691505b60208210810361280f5761280e6127b5565b5b50919050565b7f446f63756d656e74206e6f7420617070726f7665640000000000000000000000600082015250565b600061284b60158361218e565b915061285682612815565b602082019050919050565b6000602082019050818103600083015261287a8161283e565b9050919050565b7f4e487b7100000000000000000000000000000000000000000000000000000000600052601160045260246000fd5b60006128bb82612235565b91507fffffffffffffffffffffffffffffffffffffffffffffffffffffffffffffffff82036128ed576128ec612881565b5b600182019050919050565b600060608201905061290d60008301866122ca565b61291a60208301856124fd565b61292760408301846122ca565b949350505050565b7f4f6e6c792068696768657220617574686f726974792063616e2063616c6c207460008201527f6869732066756e6374696f6e0000000000000000000000000000000000000000602082015250565b600061298b602c8361218e565b91506129968261292f565b604082019050919050565b600060208201905081810360008301526129ba8161297e565b9050919050565b7f446f63756d656e742072657175657374206e6f74207375626d69747465640000600082015250565b60006129f7601e8361218e565b9150612a02826129c1565b602082019050919050565b60006020820190508181036000830152612a26816129ea565b9050919050565b7f446f63756d656e74207265717565737420616c7265616479207375626d69747460008201527f6564000000000000000000000000000000000000000000000000000000000000602082015250565b6000612a8960228361218e565b9150612a9482612a2d565b604082019050919050565b60006020820190508181036000830152612ab881612a7c565b9050919050565b600081905092915050565b6000612ad582612183565b612adf8185612abf565b9350612aef81856020860161219f565b80840191505092915050565b6000612b078285612aca565b9150612b138284612aca565b91508190509392505050565b7f536f756c426f756e64546f6b656e3a20746f6b656e207472616e73666572206960008201527f73206e6f7420616c6c6f77656400000000000000000000000000000000000000602082015250565b6000612b7b602d8361218e565b9150612b8682612b1f565b604082019050919050565b60006020820190508181036000830152612baa81612b6e565b9050919050565b600081519050919050565b600082825260208201905092915050565b6000612bd882612bb1565b612be28185612bbc565b9350612bf281856020860161219f565b612bfb816121c9565b840191505092915050565b6000608082019050612c1b60008301876122ca565b612c2860208301866122ca565b612c3560408301856124fd565b8181036060830152612c478184612bcd565b905095945050505050565b600081519050612c61816120f4565b92915050565b600060208284031215612c7d57612c7c6120be565b5b6000612c8b84828501612c52565b91505092915050565b7f4e487b7100000000000000000000000000000000000000000000000000000000600052601260045260246000fd5b6000604082019050612cd860008301856122ca565b612ce560208301846124fd565b939250505056fea264697066735822122053dbf14011c0012cbf8d47b2726e4ff6d32ad62ea5242a13c1b1b95326b089a364736f6c6343000814003360806040523480156200001157600080fd5b50604051620014ae380380620014ae8339818101604052810190620000379190620002cf565b82600073ffffffffffffffffffffffffffffffffffffffff168173ffffffffffffffffffffffffffffffffffffffff1603620000ad5760006040517f1e4fbdf7000000000000000000000000000000000000000000000000000000008152600401620000a491906200033c565b60405180910390fd5b620000be816200016460201b60201c565b5082600160006101000a81548173ffffffffffffffffffffffffffffffffffffffff021916908373ffffffffffffffffffffffffffffffffffffffff16021790555081600260006101000a81548173ffffffffffffffffffffffffffffffffffffffff021916908373ffffffffffffffffffffffffffffffffffffffff16021790555080600460006101000a81548160ff02191690831515021790555050505062000359565b60008060009054906101000a900473ffffffffffffffffffffffffffffffffffffffff169050816000806101000a81548173ffffffffffffffffffffffffffffffffffffffff021916908373ffffffffffffffffffffffffffffffffffffffff1602179055508173ffffffffffffffffffffffffffffffffffffffff168173ffffffffffffffffffffffffffffffffffffffff167f8be0079c531659141344cd1fd0a4f28419497f9722a3daafe3b4186f6b6457e060405160405180910390a35050565b600080fd5b600073ffffffffffffffffffffffffffffffffffffffff82169050919050565b60006200025a826200022d565b9050919050565b6200026c816200024d565b81146200027857600080fd5b50565b6000815190506200028c8162000261565b92915050565b60008115159050919050565b620002a98162000292565b8114620002b557600080fd5b50565b600081519050620002c9816200029e565b92915050565b600080600060608486031215620002eb57620002ea62000228565b5b6000620002fb868287016200027b565b93505060206200030e868287016200027b565b92505060406200032186828701620002b8565b9150509250925092565b62000336816200024d565b82525050565b60006020820190506200035360008301846200032b565b92915050565b61114580620003696000396000f3fe608060405234801561001057600080fd5b50600436106100a95760003560e01c80638c102a6c116100715780638c102a6c146101405780638da5cb5b1461015e578063b096885e1461017c578063ba47f2ec14610198578063f2fde38b146101b4578063f31e20cf146101d0576100a9565b8063134e18f4146100ae5780635149bce7146100cc5780635e2861e6146100e8578063715018a6146101065780637e0e46b714610110575b600080fd5b6100b66101ec565b6040516100c39190610d61565b60405180910390f35b6100e660048036038101906100e19190610df5565b610212565b005b6100f0610523565b6040516100fd9190610e50565b60405180910390f35b61010e610536565b005b61012a60048036038101906101259190610e6b565b61054a565b6040516101379190610ea7565b60405180910390f35b61014861057d565b6040516101559190610ea7565b60405180910390f35b6101666105a3565b6040516101739190610ea7565b60405180910390f35b61019660048036038101906101919190610ec2565b6105cc565b005b6101b260048036038101906101ad9190610df5565b610753565b005b6101ce60048036038101906101c99190610e6b565b61098b565b005b6101ea60048036038101906101e59190610e6b565b610a11565b005b600260009054906101000a900473ffffffffffffffffffffffffffffffffffffffff1681565b61021a610b8f565b600073ffffffffffffffffffffffffffffffffffffffff16600360008473ffffffffffffffffffffffffffffffffffffffff1673ffffffffffffffffffffffffffffffffffffffff16815260200190815260200160002060009054906101000a900473ffffffffffffffffffffffffffffffffffffffff1673ffffffffffffffffffffffffffffffffffffffff16036102e8576040517f08c379a00000000000000000000000000000000000000000000000000000000081526004016102df90610f85565b60405180910390fd5b600460009054906101000a900460ff161561041057600360008373ffffffffffffffffffffffffffffffffffffffff1673ffffffffffffffffffffffffffffffffffffffff16815260200190815260200160002060009054906101000a900473ffffffffffffffffffffffffffffffffffffffff1673ffffffffffffffffffffffffffffffffffffffff1663965a0a34826040518263ffffffff1660e01b81526004016103959190610fb4565b600060405180830381600087803b1580156103af57600080fd5b505af11580156103c3573d6000803e3d6000fd5b50505050808273ffffffffffffffffffffffffffffffffffffffff167fe14a4298c3de15e01f60584916c83db6dcdd9d5715899a79b9f7fc5b17f9d25e60405160405180910390a361051f565b600360008373ffffffffffffffffffffffffffffffffffffffff1673ffffffffffffffffffffffffffffffffffffffff16815260200190815260200160002060009054906101000a900473ffffffffffffffffffffffffffffffffffffffff1673ffffffffffffffffffffffffffffffffffffffff1663965a0a34826040518263ffffffff1660e01b81526004016104a89190610fb4565b600060405180830381600087803b1580156104c257600080fd5b505af11580156104d6573d6000803e3d6000fd5b50505050808273ffffffffffffffffffffffffffffffffffffffff167fe14a4298c3de15e01f60584916c83db6dcdd9d5715899a79b9f7fc5b17f9d25e60405160405180910390a35b5050565b600460009054906101000a900460ff1681565b61053e610b8f565b6105486000610c16565b565b60036020528060005260406000206000915054906101000a900473ffffffffffffffffffffffffffffffffffffffff1681565b600160009054906101000a900473ffffffffffffffffffffffffffffffffffffffff1681565b60008060009054906101000a900473ffffffffffffffffffffffffffffffffffffffff16905090565b600260009054906101000a900473ffffffffffffffffffffffffffffffffffffffff1673ffffffffffffffffffffffffffffffffffffffff1663966dae0e6040518163ffffffff1660e01b8152600401602060405180830381865afa158015610639573d6000803e3d6000fd5b505050506040513d601f19601f8201168201806040525081019061065d9190610fe4565b73ffffffffffffffffffffffffffffffffffffffff1661067b610cda565b73ffffffffffffffffffffffffffffffffffffffff16146106d1576040517f08c379a00000000000000000000000000000000000000000000000000000000081526004016106c89061105d565b60405180910390fd5b80600360008473ffffffffffffffffffffffffffffffffffffffff1673ffffffffffffffffffffffffffffffffffffffff16815260200190815260200160002060006101000a81548173ffffffffffffffffffffffffffffffffffffffff021916908373ffffffffffffffffffffffffffffffffffffffff1602179055505050565b61075b610b8f565b600073ffffffffffffffffffffffffffffffffffffffff16600360008473ffffffffffffffffffffffffffffffffffffffff1673ffffffffffffffffffffffffffffffffffffffff16815260200190815260200160002060009054906101000a900473ffffffffffffffffffffffffffffffffffffffff1673ffffffffffffffffffffffffffffffffffffffff1603610829576040517f08c379a000000000000000000000000000000000000000000000000000000000815260040161082090610f85565b60405180910390fd5b600460009054906101000a900460ff1615610879576040517f08c379a0000000000000000000000000000000000000000000000000000000008152600401610870906110ef565b60405180910390fd5b600360008373ffffffffffffffffffffffffffffffffffffffff1673ffffffffffffffffffffffffffffffffffffffff16815260200190815260200160002060009054906101000a900473ffffffffffffffffffffffffffffffffffffffff1673ffffffffffffffffffffffffffffffffffffffff1663335039d6826040518263ffffffff1660e01b81526004016109119190610fb4565b600060405180830381600087803b15801561092b57600080fd5b505af115801561093f573d6000803e3d6000fd5b50505050808273ffffffffffffffffffffffffffffffffffffffff167f08cacd49efad21085db9e3e20425396794ea682d6c597bac21a25129130863b660405160405180910390a35050565b610993610b8f565b600073ffffffffffffffffffffffffffffffffffffffff168173ffffffffffffffffffffffffffffffffffffffff1603610a055760006040517f1e4fbdf70000000000000000000000000000000000000000000000000000000081526004016109fc9190610ea7565b60405180910390fd5b610a0e81610c16565b50565b610a19610b8f565b600073ffffffffffffffffffffffffffffffffffffffff16600360008373ffffffffffffffffffffffffffffffffffffffff1673ffffffffffffffffffffffffffffffffffffffff16815260200190815260200160002060009054906101000a900473ffffffffffffffffffffffffffffffffffffffff1673ffffffffffffffffffffffffffffffffffffffff1603610ae7576040517f08c379a0000000000000000000000000000000000000000000000000000000008152600401610ade90610f85565b60405180910390fd5b600360008273ffffffffffffffffffffffffffffffffffffffff1673ffffffffffffffffffffffffffffffffffffffff16815260200190815260200160002060006101000a81549073ffffffffffffffffffffffffffffffffffffffff02191690558073ffffffffffffffffffffffffffffffffffffffff167fe5dd7339ec4cd76530b4cc5650777adea0b488adbfed43c5b6a867c10d08861b60405160405180910390a250565b610b97610cda565b73ffffffffffffffffffffffffffffffffffffffff16610bb56105a3565b73ffffffffffffffffffffffffffffffffffffffff1614610c1457610bd8610cda565b6040517f118cdaa7000000000000000000000000000000000000000000000000000000008152600401610c0b9190610ea7565b60405180910390fd5b565b60008060009054906101000a900473ffffffffffffffffffffffffffffffffffffffff169050816000806101000a81548173ffffffffffffffffffffffffffffffffffffffff021916908373ffffffffffffffffffffffffffffffffffffffff1602179055508173ffffffffffffffffffffffffffffffffffffffff168173ffffffffffffffffffffffffffffffffffffffff167f8be0079c531659141344cd1fd0a4f28419497f9722a3daafe3b4186f6b6457e060405160405180910390a35050565b600033905090565b600073ffffffffffffffffffffffffffffffffffffffff82169050919050565b6000819050919050565b6000610d27610d22610d1d84610ce2565b610d02565b610ce2565b9050919050565b6000610d3982610d0c565b9050919050565b6000610d4b82610d2e565b9050919050565b610d5b81610d40565b82525050565b6000602082019050610d766000830184610d52565b92915050565b600080fd5b6000610d8c82610ce2565b9050919050565b610d9c81610d81565b8114610da757600080fd5b50565b600081359050610db981610d93565b92915050565b6000819050919050565b610dd281610dbf565b8114610ddd57600080fd5b50565b600081359050610def81610dc9565b92915050565b60008060408385031215610e0c57610e0b610d7c565b5b6000610e1a85828601610daa565b9250506020610e2b85828601610de0565b9150509250929050565b60008115159050919050565b610e4a81610e35565b82525050565b6000602082019050610e656000830184610e41565b92915050565b600060208284031215610e8157610e80610d7c565b5b6000610e8f84828501610daa565b91505092915050565b610ea181610d81565b82525050565b6000602082019050610ebc6000830184610e98565b92915050565b60008060408385031215610ed957610ed8610d7c565b5b6000610ee785828601610daa565b9250506020610ef885828601610daa565b9150509250929050565b600082825260208201905092915050565b7f496e73746974757465206e6f74207265676973746572656420756e646572207460008201527f68697320617574686f7269747900000000000000000000000000000000000000602082015250565b6000610f6f602d83610f02565b9150610f7a82610f13565b604082019050919050565b60006020820190508181036000830152610f9e81610f62565b9050919050565b610fae81610dbf565b82525050565b6000602082019050610fc96000830184610fa5565b92915050565b600081519050610fde81610d93565b92915050565b600060208284031215610ffa57610ff9610d7c565b5b600061100884828501610fcf565b91505092915050565b7f4f6e6c7920666163746f72792063616e2061646420696e737469747574657300600082015250565b6000611047601f83610f02565b915061105282611011565b602082019050919050565b600060208201905081810360008301526110768161103a565b9050919050565b7f537570657220417574686f726974792063616e6e6f742072656a65637420646f60008201527f63756d656e747300000000000000000000000000000000000000000000000000602082015250565b60006110d9602783610f02565b91506110e48261107d565b604082019050919050565b60006020820190508181036000830152611108816110cc565b905091905056fea264697066735822122097a97df57cd2320c8304bee47314a125159df4fa0a42ed28c250a4c3d7d89bff64736f6c63430008140033a26469706673582212207deb747888f74d7464e49852c9d04d2978084268e45b5e02cbef31d43be515c164736f6c63430008140033",
  "linkReferences": {},
  "deployedLinkReferences": {}
}