{
  "_format": "hh-sol-artifact-1",
  "contractName": "IdentityRegistry",
  "sourceName": "contracts/IdentityRegistry.sol",
  "abi": [
    {
      "inputs": [],
      "stateMutability": "nonpayable",
      "type": "constructor"
    },
    {
      "inputs": [
        {
          "internalType": "address",
          "name": "owner",
          "type": "address"
        }
      ],
      "name": "OwnableInvalidOwner",
      "type": "error"
    },
    {
      "inputs": [
        {
          "internalType": "address",
          "name": "account",
          "type": "address"
        }
      ],
      "name": "OwnableUnauthorizedAccount",
      "type": "error"
    },
    {
      "anonymous": false,
      "inputs": [
        {
          "indexed": true,
          "internalType": "address",
          "name": "admin",
          "type": "address"
        }
      ],
      "name": "AdminAdded",
      "type": "event"
    },
    {
      "anonymous": false,
      "inputs": [
        {
          "indexed": true,
          "internalType": "address",
          "name": "admin",
          "type": "address"
        }
      ],
      "name": "AdminRemoved",
      "type": "event"
    },
    {
      "anonymous": false,
      "inputs": [
        {
          "indexed": true,
          "internalType": "address",
          "name": "authority",
          "type": "address"
        }
      ],
      "name": "HigherAuthorityApproved",
      "type": "event"
    },
    {
      "anonymous": false,
      "inputs": [
        {
          "indexed": true,
          "internalType": "address",
          "name": "authority",
          "type": "address"
        }
      ],
      "name": "HigherAuthorityRegistered",
      "type": "event"
    },
    {
      "anonymous": false,
      "inputs": [
        {
          "indexed": true,
          "internalType": "address",
          "name": "institute",
          "type": "address"
        }
      ],
      "name": "InstituteApproved",
      "type": "event"
    },
    {
      "anonymous": false,
      "inputs": [
        {
          "indexed": true,
          "internalType": "address",
          "name": "institute",
          "type": "address"
        },
        {
          "indexed": true,
          "internalType": "address",
          "name": "authority",
          "type": "address"
        }
      ],
      "name": "InstituteRegistered",
      "type": "event"
    },
    {
      "anonymous": false,
      "inputs": [
        {
          "indexed": true,
          "internalType": "address",
          "name": "institute",
          "type": "address"
        }
      ],
      "name": "InstituteRejected",
      "type": "event"
    },
    {
      "anonymous": false,
      "inputs": [
        {
          "indexed": true,
          "internalType": "address",
          "name": "previousOwner",
          "type": "address"
        },
        {
          "indexed": true,
          "internalType": "address",
          "name": "newOwner",
          "type": "address"
        }
      ],
      "name": "OwnershipTransferred",
      "type": "event"
    },
    {
      "inputs": [],
      "name": "MAX_ADMINS",
      "outputs": [
        {
          "internalType": "uint8",
          "name": "",
          "type": "uint8"
        }
      ],
      "stateMutability": "view",
      "type": "function"
    },
    {
      "inputs": [],
      "name": "REQUIRED_APPROVALS",
      "outputs": [
        {
          "internalType": "uint8",
          "name": "",
          "type": "uint8"
        }
      ],
      "stateMutability": "view",
      "type": "function"
    },
    {
      "inputs": [
        {
          "internalType": "address",
          "name": "_newAdmin",
          "type": "address"
        }
      ],
      "name": "addAdmin",
      "outputs": [],
      "stateMutability": "nonpayable",
      "type": "function"
    },
    {
      "inputs": [],
      "name": "adminCount",
      "outputs": [
        {
          "internalType": "uint8",
          "name": "",
          "type": "uint8"
        }
      ],
      "stateMutability": "view",
      "type": "function"
    },
    {
      "inputs": [
        {
          "internalType": "address",
          "name": "",
          "type": "address"
        }
      ],
      "name": "admins",
      "outputs": [
        {
          "internalType": "bool",
          "name": "isAdmin",
          "type": "bool"
        },
        {
          "internalType": "bool",
          "name": "exists",
          "type": "bool"
        }
      ],
      "stateMutability": "view",
      "type": "function"
    },
    {
      "inputs": [
        {
          "internalType": "address",
          "name": "_authority",
          "type": "address"
        }
      ],
      "name": "approveHigherAuthority",
      "outputs": [],
      "stateMutability": "nonpayable",
      "type": "function"
    },
    {
      "inputs": [
        {
          "internalType": "address",
          "name": "_institute",
          "type": "address"
        }
      ],
      "name": "approveInstitute",
      "outputs": [],
      "stateMutability": "nonpayable",
      "type": "function"
    },
    {
      "inputs": [],
      "name": "factoryAddress",
      "outputs": [
        {
          "internalType": "address",
          "name": "",
          "type": "address"
        }
      ],
      "stateMutability": "view",
      "type": "function"
    },
    {
      "inputs": [
        {
          "internalType": "address",
          "name": "",
          "type": "address"
        }
      ],
      "name": "higherAuthorities",
      "outputs": [
        {
          "internalType": "address",
          "name": "walletAddress",
          "type": "address"
        },
        {
          "internalType": "string",
          "name": "credentials",
          "type": "string"
        },
        {
          "internalType": "uint8",
          "name": "approvalCount",
          "type": "uint8"
        },
        {
          "internalType": "bool",
          "name": "isApproved",
          "type": "bool"
        },
        {
          "internalType": "bool",
          "name": "exists",
          "type": "bool"
        }
      ],
      "stateMutability": "view",
      "type": "function"
    },
    {
      "inputs": [
        {
          "internalType": "address",
          "name": "",
          "type": "address"
        }
      ],
      "name": "institutes",
      "outputs": [
        {
          "internalType": "string",
          "name": "credentials",
          "type": "string"
        },
        {
          "internalType": "address",
          "name": "higherAuthority",
          "type": "address"
        },
        {
          "internalType": "bool",
          "name": "isApproved",
          "type": "bool"
        },
        {
          "internalType": "bool",
          "name": "exists",
          "type": "bool"
        }
      ],
      "stateMutability": "view",
      "type": "function"
    },
    {
      "inputs": [],
      "name": "owner",
      "outputs": [
        {
          "internalType": "address",
          "name": "",
          "type": "address"
        }
      ],
      "stateMutability": "view",
      "type": "function"
    },
    {
      "inputs": [
        {
          "internalType": "string",
          "name": "_credentials",
          "type": "string"
        }
      ],
      "name": "registerHigherAuthority",
      "outputs": [],
      "stateMutability": "nonpayable",
      "type": "function"
    },
    {
      "inputs": [
        {
          "internalType": "string",
          "name": "_credentials",
          "type": "string"
        },
        {
          "internalType": "address",
          "name": "_higherAuthority",
          "type": "address"
        }
      ],
      "name": "registerInstitute",
      "outputs": [],
      "stateMutability": "nonpayable",
      "type": "function"
    },
    {
      "inputs": [
        {
          "internalType": "address",
          "name": "_institute",
          "type": "address"
        }
      ],
      "name": "rejectInstitute",
      "outputs": [],
      "stateMutability": "nonpayable",
      "type": "function"
    },
    {
      "inputs": [
        {
          "internalType": "address",
          "name": "_admin",
          "type": "address"
        }
      ],
      "name": "removeAdmin",
      "outputs": [],
      "stateMutability": "nonpayable",
      "type": "function"
    },
    {
      "inputs": [],
      "name": "renounceOwnership",
      "outputs": [],
      "stateMutability": "nonpayable",
      "type": "function"
    },
    {
      "inputs": [
        {
          "internalType": "address",
          "name": "_factoryAddress",
          "type": "address"
        }
      ],
      "name": "setFactory",
      "outputs": [],
      "stateMutability": "nonpayable",
      "type": "function"
    },
    {
      "inputs": [
        {
          "internalType": "address",
          "name": "newOwner",
          "type": "address"
        }
      ],
      "name": "transferOwnership",
      "outputs": [],
      "stateMutability": "nonpayable",
      "type": "function"
    }
  ],
  "bytecode": "0x60806040523480156200001157600080fd5b5033600073ffffffffffffffffffffffffffffffffffffffff168173ffffffffffffffffffffffffffffffffffffffff1603620000885760006040517f1e4fbdf70000000000000000000000000000000000000000000000000000000081526004016200007f919062000262565b60405180910390fd5b62000099816200015960201b60201c565b50604051806040016040528060011515815260200160011515815250600160003373ffffffffffffffffffffffffffffffffffffffff1673ffffffffffffffffffffffffffffffffffffffff16815260200190815260200160002060008201518160000160006101000a81548160ff02191690831515021790555060208201518160000160016101000a81548160ff0219169083151502179055509050506001600260006101000a81548160ff021916908360ff1602179055506200027f565b60008060009054906101000a900473ffffffffffffffffffffffffffffffffffffffff169050816000806101000a81548173ffffffffffffffffffffffffffffffffffffffff021916908373ffffffffffffffffffffffffffffffffffffffff1602179055508173ffffffffffffffffffffffffffffffffffffffff168173ffffffffffffffffffffffffffffffffffffffff167f8be0079c531659141344cd1fd0a4f28419497f9722a3daafe3b4186f6b6457e060405160405180910390a35050565b600073ffffffffffffffffffffffffffffffffffffffff82169050919050565b60006200024a826200021d565b9050919050565b6200025c816200023d565b82525050565b600060208201905062000279600083018462000251565b92915050565b612c01806200028f6000396000f3fe608060405234801561001057600080fd5b50600436106101165760003560e01c8063715018a6116100a257806395206c1d1161007157806395206c1d146102c1578063966dae0e146102dd578063b188cc65146102fb578063d79eae9414610317578063f2fde38b1461033357610116565b8063715018a61461024a5780637e0e46b7146102545780638da5cb5b146102875780639112c6f6146102a557610116565b8063429b62e5116100e9578063429b62e5146101a7578063599c5533146101d85780635bb47808146101f65780636d3c148e14610212578063704802751461022e57610116565b806302be1ecf1461011b5780631785f53c1461014f57806324bf7f2a1461016b5780632b7832b314610189575b600080fd5b61013560048036038101906101309190611c8d565b61034f565b604051610146959493929190611d90565b60405180910390f35b61016960048036038101906101649190611c8d565b610454565b005b610173610648565b6040516101809190611dea565b60405180910390f35b61019161064d565b60405161019e9190611dea565b60405180910390f35b6101c160048036038101906101bc9190611c8d565b610660565b6040516101cf929190611e05565b60405180910390f35b6101e061069e565b6040516101ed9190611dea565b60405180910390f35b610210600480360381019061020b9190611c8d565b6106a3565b005b61022c60048036038101906102279190611c8d565b610780565b005b61024860048036038101906102439190611c8d565b610abc565b005b610252610cc7565b005b61026e60048036038101906102699190611c8d565b610cdb565b60405161027e9493929190611e2e565b60405180910390f35b61028f610dcd565b60405161029c9190611e7a565b60405180910390f35b6102bf60048036038101906102ba9190611c8d565b610df6565b005b6102db60048036038101906102d69190611c8d565b61115b565b005b6102e5611509565b6040516102f29190611e7a565b60405180910390f35b61031560048036038101906103109190611fca565b61152f565b005b610331600480360381019061032c9190612013565b61174c565b005b61034d60048036038101906103489190611c8d565b6119e5565b005b60036020528060005260406000206000915090508060000160009054906101000a900473ffffffffffffffffffffffffffffffffffffffff16908060010180546103989061209e565b80601f01602080910402602001604051908101604052809291908181526020018280546103c49061209e565b80156104115780601f106103e657610100808354040283529160200191610411565b820191906000526020600020905b8154815290600101906020018083116103f457829003601f168201915b5050505050908060020160009054906101000a900460ff16908060020160019054906101000a900460ff16908060020160029054906101000a900460ff16905085565b61045c611a6b565b600160008273ffffffffffffffffffffffffffffffffffffffff1673ffffffffffffffffffffffffffffffffffffffff16815260200190815260200160002060000160019054906101000a900460ff166104eb576040517f08c379a00000000000000000000000000000000000000000000000000000000081526004016104e29061211b565b60405180910390fd5b6104f3610dcd565b73ffffffffffffffffffffffffffffffffffffffff168173ffffffffffffffffffffffffffffffffffffffff1603610560576040517f08c379a000000000000000000000000000000000000000000000000000000000815260040161055790612187565b60405180910390fd5b600160008273ffffffffffffffffffffffffffffffffffffffff1673ffffffffffffffffffffffffffffffffffffffff168152602001908152602001600020600080820160006101000a81549060ff02191690556000820160016101000a81549060ff021916905550506002600081819054906101000a900460ff16809291906105e9906121d6565b91906101000a81548160ff021916908360ff160217905550508073ffffffffffffffffffffffffffffffffffffffff167fa3b62bc36326052d97ea62d63c3d60308ed4c3ea8ac079dd8499f1e9c4f80c0f60405160405180910390a250565b600581565b600260009054906101000a900460ff1681565b60016020528060005260406000206000915090508060000160009054906101000a900460ff16908060000160019054906101000a900460ff16905082565b600381565b6106ab611a6b565b600073ffffffffffffffffffffffffffffffffffffffff16600560009054906101000a900473ffffffffffffffffffffffffffffffffffffffff1673ffffffffffffffffffffffffffffffffffffffff161461073c576040517f08c379a00000000000000000000000000000000000000000000000000000000081526004016107339061224b565b60405180910390fd5b80600560006101000a81548173ffffffffffffffffffffffffffffffffffffffff021916908373ffffffffffffffffffffffffffffffffffffffff16021790555050565b600160003373ffffffffffffffffffffffffffffffffffffffff1673ffffffffffffffffffffffffffffffffffffffff16815260200190815260200160002060000160009054906101000a900460ff1661080f576040517f08c379a0000000000000000000000000000000000000000000000000000000008152600401610806906122dd565b60405180910390fd5b600360008273ffffffffffffffffffffffffffffffffffffffff1673ffffffffffffffffffffffffffffffffffffffff16815260200190815260200160002060020160029054906101000a900460ff1661089e576040517f08c379a000000000000000000000000000000000000000000000000000000000815260040161089590612349565b60405180910390fd5b600360008273ffffffffffffffffffffffffffffffffffffffff1673ffffffffffffffffffffffffffffffffffffffff16815260200190815260200160002060020160019054906101000a900460ff161561092e576040517f08c379a0000000000000000000000000000000000000000000000000000000008152600401610925906123db565b60405180910390fd5b6000600360008373ffffffffffffffffffffffffffffffffffffffff1673ffffffffffffffffffffffffffffffffffffffff168152602001908152602001600020905080600201600081819054906101000a900460ff1680929190610992906123fb565b91906101000a81548160ff021916908360ff16021790555050600360ff168160020160009054906101000a900460ff1660ff1610610ab85760018160020160016101000a81548160ff021916908315150217905550600560009054906101000a900473ffffffffffffffffffffffffffffffffffffffff1673ffffffffffffffffffffffffffffffffffffffff1663c1614e92836040518263ffffffff1660e01b8152600401610a429190611e7a565b600060405180830381600087803b158015610a5c57600080fd5b505af1158015610a70573d6000803e3d6000fd5b505050508173ffffffffffffffffffffffffffffffffffffffff167f52318d3a826841d977f7a495ab633eb9e7dfe98d711f3c4d766f80cae5865d2860405160405180910390a25b5050565b610ac4611a6b565b600160008273ffffffffffffffffffffffffffffffffffffffff1673ffffffffffffffffffffffffffffffffffffffff16815260200190815260200160002060000160019054906101000a900460ff1615610b54576040517f08c379a0000000000000000000000000000000000000000000000000000000008152600401610b4b90612470565b60405180910390fd5b600560ff16600260009054906101000a900460ff1660ff1610610bac576040517f08c379a0000000000000000000000000000000000000000000000000000000008152600401610ba3906124dc565b60405180910390fd5b604051806040016040528060011515815260200160011515815250600160008373ffffffffffffffffffffffffffffffffffffffff1673ffffffffffffffffffffffffffffffffffffffff16815260200190815260200160002060008201518160000160006101000a81548160ff02191690831515021790555060208201518160000160016101000a81548160ff0219169083151502179055509050506002600081819054906101000a900460ff1680929190610c68906123fb565b91906101000a81548160ff021916908360ff160217905550508073ffffffffffffffffffffffffffffffffffffffff167f44d6d25963f097ad14f29f06854a01f575648a1ef82f30e562ccd3889717e33960405160405180910390a250565b610ccf611a6b565b610cd96000611af2565b565b6004602052806000526040600020600091509050806000018054610cfe9061209e565b80601f0160208091040260200160405190810160405280929190818152602001828054610d2a9061209e565b8015610d775780601f10610d4c57610100808354040283529160200191610d77565b820191906000526020600020905b815481529060010190602001808311610d5a57829003601f168201915b5050505050908060010160009054906101000a900473ffffffffffffffffffffffffffffffffffffffff16908060010160149054906101000a900460ff16908060010160159054906101000a900460ff16905084565b60008060009054906101000a900473ffffffffffffffffffffffffffffffffffffffff16905090565b600360003373ffffffffffffffffffffffffffffffffffffffff1673ffffffffffffffffffffffffffffffffffffffff16815260200190815260200160002060020160019054906101000a900460ff16610e85576040517f08c379a0000000000000000000000000000000000000000000000000000000008152600401610e7c9061256e565b60405180910390fd5b600460008273ffffffffffffffffffffffffffffffffffffffff1673ffffffffffffffffffffffffffffffffffffffff16815260200190815260200160002060010160159054906101000a900460ff16610f14576040517f08c379a0000000000000000000000000000000000000000000000000000000008152600401610f0b906125da565b60405180910390fd5b3373ffffffffffffffffffffffffffffffffffffffff16600460008373ffffffffffffffffffffffffffffffffffffffff1673ffffffffffffffffffffffffffffffffffffffff16815260200190815260200160002060010160009054906101000a900473ffffffffffffffffffffffffffffffffffffffff1673ffffffffffffffffffffffffffffffffffffffff1614610fe4576040517f08c379a0000000000000000000000000000000000000000000000000000000008152600401610fdb9061266c565b60405180910390fd5b600460008273ffffffffffffffffffffffffffffffffffffffff1673ffffffffffffffffffffffffffffffffffffffff16815260200190815260200160002060010160149054906101000a900460ff1615611074576040517f08c379a000000000000000000000000000000000000000000000000000000000815260040161106b906126d8565b60405180910390fd5b600460008273ffffffffffffffffffffffffffffffffffffffff1673ffffffffffffffffffffffffffffffffffffffff168152602001908152602001600020600080820160006110c49190611bbe565b6001820160006101000a81549073ffffffffffffffffffffffffffffffffffffffff02191690556001820160146101000a81549060ff02191690556001820160156101000a81549060ff021916905550508073ffffffffffffffffffffffffffffffffffffffff167f2a3e119902447ebca3ab8ae4e1c6f9786c9b0502c7b6a265162dd05c430cc44c60405160405180910390a250565b600360003373ffffffffffffffffffffffffffffffffffffffff1673ffffffffffffffffffffffffffffffffffffffff16815260200190815260200160002060020160019054906101000a900460ff166111ea576040517f08c379a00000000000000000000000000000000000000000000000000000000081526004016111e19061276a565b60405180910390fd5b600460008273ffffffffffffffffffffffffffffffffffffffff1673ffffffffffffffffffffffffffffffffffffffff16815260200190815260200160002060010160159054906101000a900460ff16611279576040517f08c379a0000000000000000000000000000000000000000000000000000000008152600401611270906125da565b60405180910390fd5b3373ffffffffffffffffffffffffffffffffffffffff16600460008373ffffffffffffffffffffffffffffffffffffffff1673ffffffffffffffffffffffffffffffffffffffff16815260200190815260200160002060010160009054906101000a900473ffffffffffffffffffffffffffffffffffffffff1673ffffffffffffffffffffffffffffffffffffffff1614611349576040517f08c379a00000000000000000000000000000000000000000000000000000000081526004016113409061266c565b60405180910390fd5b600460008273ffffffffffffffffffffffffffffffffffffffff1673ffffffffffffffffffffffffffffffffffffffff16815260200190815260200160002060010160149054906101000a900460ff16156113d9576040517f08c379a00000000000000000000000000000000000000000000000000000000081526004016113d0906126d8565b60405180910390fd5b6001600460008373ffffffffffffffffffffffffffffffffffffffff1673ffffffffffffffffffffffffffffffffffffffff16815260200190815260200160002060010160146101000a81548160ff021916908315150217905550600560009054906101000a900473ffffffffffffffffffffffffffffffffffffffff1673ffffffffffffffffffffffffffffffffffffffff16636b2920d282336040518363ffffffff1660e01b815260040161149192919061278a565b600060405180830381600087803b1580156114ab57600080fd5b505af11580156114bf573d6000803e3d6000fd5b505050508073ffffffffffffffffffffffffffffffffffffffff167f5449e13b04f2ddf670875d04d03641101181c898218e1ada66039a28750ec44960405160405180910390a250565b600560009054906101000a900473ffffffffffffffffffffffffffffffffffffffff1681565b600360003373ffffffffffffffffffffffffffffffffffffffff1673ffffffffffffffffffffffffffffffffffffffff16815260200190815260200160002060020160029054906101000a900460ff16156115bf576040517f08c379a00000000000000000000000000000000000000000000000000000000081526004016115b690612825565b60405180910390fd5b6040518060a001604052803373ffffffffffffffffffffffffffffffffffffffff168152602001828152602001600060ff16815260200160001515815260200160011515815250600360003373ffffffffffffffffffffffffffffffffffffffff1673ffffffffffffffffffffffffffffffffffffffff16815260200190815260200160002060008201518160000160006101000a81548173ffffffffffffffffffffffffffffffffffffffff021916908373ffffffffffffffffffffffffffffffffffffffff16021790555060208201518160010190816116a191906129fb565b5060408201518160020160006101000a81548160ff021916908360ff16021790555060608201518160020160016101000a81548160ff02191690831515021790555060808201518160020160026101000a81548160ff0219169083151502179055509050503373ffffffffffffffffffffffffffffffffffffffff167f5f0ee17caf68757eadc6e0e994e6bb61b717aefe5192df6b4cfcb63107238c3c60405160405180910390a250565b600460003373ffffffffffffffffffffffffffffffffffffffff1673ffffffffffffffffffffffffffffffffffffffff16815260200190815260200160002060010160159054906101000a900460ff16156117dc576040517f08c379a00000000000000000000000000000000000000000000000000000000081526004016117d390612b19565b60405180910390fd5b600360008273ffffffffffffffffffffffffffffffffffffffff1673ffffffffffffffffffffffffffffffffffffffff16815260200190815260200160002060020160019054906101000a900460ff1661186b576040517f08c379a000000000000000000000000000000000000000000000000000000000815260040161186290612bab565b60405180910390fd5b60405180608001604052808381526020018273ffffffffffffffffffffffffffffffffffffffff16815260200160001515815260200160011515815250600460003373ffffffffffffffffffffffffffffffffffffffff1673ffffffffffffffffffffffffffffffffffffffff16815260200190815260200160002060008201518160000190816118fc91906129fb565b5060208201518160010160006101000a81548173ffffffffffffffffffffffffffffffffffffffff021916908373ffffffffffffffffffffffffffffffffffffffff16021790555060408201518160010160146101000a81548160ff02191690831515021790555060608201518160010160156101000a81548160ff0219169083151502179055509050508073ffffffffffffffffffffffffffffffffffffffff163373ffffffffffffffffffffffffffffffffffffffff167fe60873268875df677ee34d4b87c3398a04fc36606400cc53b4de00b3ff4045f060405160405180910390a35050565b6119ed611a6b565b600073ffffffffffffffffffffffffffffffffffffffff168173ffffffffffffffffffffffffffffffffffffffff1603611a5f5760006040517f1e4fbdf7000000000000000000000000000000000000000000000000000000008152600401611a569190611e7a565b60405180910390fd5b611a6881611af2565b50565b611a73611bb6565b73ffffffffffffffffffffffffffffffffffffffff16611a91610dcd565b73ffffffffffffffffffffffffffffffffffffffff1614611af057611ab4611bb6565b6040517f118cdaa7000000000000000000000000000000000000000000000000000000008152600401611ae79190611e7a565b60405180910390fd5b565b60008060009054906101000a900473ffffffffffffffffffffffffffffffffffffffff169050816000806101000a81548173ffffffffffffffffffffffffffffffffffffffff021916908373ffffffffffffffffffffffffffffffffffffffff1602179055508173ffffffffffffffffffffffffffffffffffffffff168173ffffffffffffffffffffffffffffffffffffffff167f8be0079c531659141344cd1fd0a4f28419497f9722a3daafe3b4186f6b6457e060405160405180910390a35050565b600033905090565b508054611bca9061209e565b6000825580601f10611bdc5750611bfb565b601f016020900490600052602060002090810190611bfa9190611bfe565b5b50565b5b80821115611c17576000816000905550600101611bff565b5090565b6000604051905090565b600080fd5b600080fd5b600073ffffffffffffffffffffffffffffffffffffffff82169050919050565b6000611c5a82611c2f565b9050919050565b611c6a81611c4f565b8114611c7557600080fd5b50565b600081359050611c8781611c61565b92915050565b600060208284031215611ca357611ca2611c25565b5b6000611cb184828501611c78565b91505092915050565b611cc381611c4f565b82525050565b600081519050919050565b600082825260208201905092915050565b60005b83811015611d03578082015181840152602081019050611ce8565b60008484015250505050565b6000601f19601f8301169050919050565b6000611d2b82611cc9565b611d358185611cd4565b9350611d45818560208601611ce5565b611d4e81611d0f565b840191505092915050565b600060ff82169050919050565b611d6f81611d59565b82525050565b60008115159050919050565b611d8a81611d75565b82525050565b600060a082019050611da56000830188611cba565b8181036020830152611db78187611d20565b9050611dc66040830186611d66565b611dd36060830185611d81565b611de06080830184611d81565b9695505050505050565b6000602082019050611dff6000830184611d66565b92915050565b6000604082019050611e1a6000830185611d81565b611e276020830184611d81565b9392505050565b60006080820190508181036000830152611e488187611d20565b9050611e576020830186611cba565b611e646040830185611d81565b611e716060830184611d81565b95945050505050565b6000602082019050611e8f6000830184611cba565b92915050565b600080fd5b600080fd5b7f4e487b7100000000000000000000000000000000000000000000000000000000600052604160045260246000fd5b611ed782611d0f565b810181811067ffffffffffffffff82111715611ef657611ef5611e9f565b5b80604052505050565b6000611f09611c1b565b9050611f158282611ece565b919050565b600067ffffffffffffffff821115611f3557611f34611e9f565b5b611f3e82611d0f565b9050602081019050919050565b82818337600083830152505050565b6000611f6d611f6884611f1a565b611eff565b905082815260208101848484011115611f8957611f88611e9a565b5b611f94848285611f4b565b509392505050565b600082601f830112611fb157611fb0611e95565b5b8135611fc1848260208601611f5a565b91505092915050565b600060208284031215611fe057611fdf611c25565b5b600082013567ffffffffffffffff811115611ffe57611ffd611c2a565b5b61200a84828501611f9c565b91505092915050565b6000806040838503121561202a57612029611c25565b5b600083013567ffffffffffffffff81111561204857612047611c2a565b5b61205485828601611f9c565b925050602061206585828601611c78565b9150509250929050565b7f4e487b7100000000000000000000000000000000000000000000000000000000600052602260045260246000fd5b600060028204905060018216806120b657607f821691505b6020821081036120c9576120c861206f565b5b50919050565b7f41646d696e20646f6573206e6f74206578697374000000000000000000000000600082015250565b6000612105601483611cd4565b9150612110826120cf565b602082019050919050565b60006020820190508181036000830152612134816120f8565b9050919050565b7f43616e6e6f742072656d6f76652073757065722061646d696e00000000000000600082015250565b6000612171601983611cd4565b915061217c8261213b565b602082019050919050565b600060208201905081810360008301526121a081612164565b9050919050565b7f4e487b7100000000000000000000000000000000000000000000000000000000600052601160045260246000fd5b60006121e182611d59565b9150600082036121f4576121f36121a7565b5b600182039050919050565b7f466163746f727920616c72656164792073657400000000000000000000000000600082015250565b6000612235601383611cd4565b9150612240826121ff565b602082019050919050565b6000602082019050818103600083015261226481612228565b9050919050565b7f4f6e6c792061646d696e2063616e2063616c6c20746869732066756e6374696f60008201527f6e00000000000000000000000000000000000000000000000000000000000000602082015250565b60006122c7602183611cd4565b91506122d28261226b565b604082019050919050565b600060208201905081810360008301526122f6816122ba565b9050919050565b7f48696768657220617574686f7269747920646f6573206e6f7420657869737400600082015250565b6000612333601f83611cd4565b915061233e826122fd565b602082019050919050565b6000602082019050818103600083015261236281612326565b9050919050565b7f48696768657220617574686f7269747920616c726561647920617070726f766560008201527f6400000000000000000000000000000000000000000000000000000000000000602082015250565b60006123c5602183611cd4565b91506123d082612369565b604082019050919050565b600060208201905081810360008301526123f4816123b8565b9050919050565b600061240682611d59565b915060ff8203612419576124186121a7565b5b600182019050919050565b7f41646d696e20616c726561647920657869737473000000000000000000000000600082015250565b600061245a601483611cd4565b915061246582612424565b602082019050919050565b600060208201905081810360008301526124898161244d565b9050919050565b7f4d6178696d756d2061646d696e206c696d697420726561636865640000000000600082015250565b60006124c6601b83611cd4565b91506124d182612490565b602082019050919050565b600060208201905081810360008301526124f5816124b9565b9050919050565b7f4f6e6c7920617070726f7665642068696768657220617574686f72697479206360008201527f616e2072656a65637420696e7374697475746573000000000000000000000000602082015250565b6000612558603483611cd4565b9150612563826124fc565b604082019050919050565b600060208201905081810360008301526125878161254b565b9050919050565b7f496e7374697475746520646f6573206e6f742065786973740000000000000000600082015250565b60006125c4601883611cd4565b91506125cf8261258e565b602082019050919050565b600060208201905081810360008301526125f3816125b7565b9050919050565b7f496e73746974757465206e6f7420756e64657220796f757220617574686f726960008201527f7479000000000000000000000000000000000000000000000000000000000000602082015250565b6000612656602283611cd4565b9150612661826125fa565b604082019050919050565b6000602082019050818103600083015261268581612649565b9050919050565b7f496e7374697475746520616c726561647920617070726f766564000000000000600082015250565b60006126c2601a83611cd4565b91506126cd8261268c565b602082019050919050565b600060208201905081810360008301526126f1816126b5565b9050919050565b7f4f6e6c7920617070726f7665642068696768657220617574686f72697479206360008201527f616e20617070726f766520696e73746974757465730000000000000000000000602082015250565b6000612754603583611cd4565b915061275f826126f8565b604082019050919050565b6000602082019050818103600083015261278381612747565b9050919050565b600060408201905061279f6000830185611cba565b6127ac6020830184611cba565b9392505050565b7f48696768657220617574686f7269747920616c7265616479207265676973746560008201527f7265640000000000000000000000000000000000000000000000000000000000602082015250565b600061280f602383611cd4565b915061281a826127b3565b604082019050919050565b6000602082019050818103600083015261283e81612802565b9050919050565b60008190508160005260206000209050919050565b60006020601f8301049050919050565b600082821b905092915050565b6000600883026128a77fffffffffffffffffffffffffffffffffffffffffffffffffffffffffffffffff8261286a565b6128b1868361286a565b95508019841693508086168417925050509392505050565b6000819050919050565b6000819050919050565b60006128f86128f36128ee846128c9565b6128d3565b6128c9565b9050919050565b6000819050919050565b612912836128dd565b61292661291e826128ff565b848454612877565b825550505050565b600090565b61293b61292e565b612946818484612909565b505050565b5b8181101561296a5761295f600082612933565b60018101905061294c565b5050565b601f8211156129af5761298081612845565b6129898461285a565b81016020851015612998578190505b6129ac6129a48561285a565b83018261294b565b50505b505050565b600082821c905092915050565b60006129d2600019846008026129b4565b1980831691505092915050565b60006129eb83836129c1565b9150826002028217905092915050565b612a0482611cc9565b67ffffffffffffffff811115612a1d57612a1c611e9f565b5b612a27825461209e565b612a3282828561296e565b600060209050601f831160018114612a655760008415612a53578287015190505b612a5d85826129df565b865550612ac5565b601f198416612a7386612845565b60005b82811015612a9b57848901518255600182019150602085019450602081019050612a76565b86831015612ab85784890151612ab4601f8916826129c1565b8355505b6001600288020188555050505b505050505050565b7f496e7374697475746520616c7265616479207265676973746572656400000000600082015250565b6000612b03601c83611cd4565b9150612b0e82612acd565b602082019050919050565b60006020820190508181036000830152612b3281612af6565b9050919050565b7f496e76616c6964206f7220756e617070726f766564206869676865722061757460008201527f686f726974790000000000000000000000000000000000000000000000000000602082015250565b6000612b95602683611cd4565b9150612ba082612b39565b604082019050919050565b60006020820190508181036000830152612bc481612b88565b905091905056fea264697066735822122096722074cf60838948243bc345578f84223295158433cf8884d24543adcdae9e64736f6c63430008140033",
  "linkReferences": {},
  "deployedLinkReferences": {}
}