{
  "_format": "hh-sol-artifact-1",
  "contractName": "IdentityRegistry",
  "sourceName": "contracts/IdentityRegistry.sol",
  "abi": [
    {
      "inputs": [],
      "stateMutability": "nonpayable",
      "type": "constructor"
    },
    {
      "inputs": [
        {
          "internalType": "address",
          "name": "owner",
          "type": "address"
        }
      ],
      "name": "OwnableInvalidOwner",
      "type": "error"
    },
    {
      "inputs": [
        {
          "internalType": "address",
          "name": "account",
          "type": "address"
        }
      ],
      "name": "OwnableUnauthorizedAccount",
      "type": "error"
    },
    {
      "anonymous": false,
      "inputs": [
        {
          "indexed": true,
          "internalType": "address",
          "name": "admin",
          "type": "address"
        }
      ],
      "name": "AdminAdded",
      "type": "event"
    },
    {
      "anonymous": false,
      "inputs": [
        {
          "indexed": true,
          "internalType": "address",
          "name": "admin",
          "type": "address"
        }
      ],
      "name": "AdminRemoved",
      "type": "event"
    },
    {
      "anonymous": false,
      "inputs": [
        {
          "indexed": true,
          "internalType": "address",
          "name": "authority",
          "type": "address"
        }
      ],
      "name": "HigherAuthorityApproved",
      "type": "event"
    },
    {
      "anonymous": false,
      "inputs": [
        {
          "indexed": true,
          "internalType": "address",
          "name": "authority",
          "type": "address"
        }
      ],
      "name": "HigherAuthorityRegistered",
      "type": "event"
    },
    {
      "anonymous": false,
      "inputs": [
        {
          "indexed": true,
          "internalType": "address",
          "name": "institute",
          "type": "address"
        }
      ],
      "name": "InstituteApproved",
      "type": "event"
    },
    {
      "anonymous": false,
      "inputs": [
        {
          "indexed": true,
          "internalType": "address",
          "name": "institute",
          "type": "address"
        },
        {
          "indexed": true,
          "internalType": "address",
          "name": "authority",
          "type": "address"
        }
      ],
      "name": "InstituteRegistered",
      "type": "event"
    },
    {
      "anonymous": false,
      "inputs": [
        {
          "indexed": true,
          "internalType": "address",
          "name": "institute",
          "type": "address"
        }
      ],
      "name": "InstituteRejected",
      "type": "event"
    },
    {
      "anonymous": false,
      "inputs": [
        {
          "indexed": true,
          "internalType": "address",
          "name": "previousOwner",
          "type": "address"
        },
        {
          "indexed": true,
          "internalType": "address",
          "name": "newOwner",
          "type": "address"
        }
      ],
      "name": "OwnershipTransferred",
      "type": "event"
    },
    {
      "inputs": [],
      "name": "MAX_ADMINS",
      "outputs": [
        {
          "internalType": "uint8",
          "name": "",
          "type": "uint8"
        }
      ],
      "stateMutability": "view",
      "type": "function"
    },
    {
      "inputs": [],
      "name": "REQUIRED_APPROVALS",
      "outputs": [
        {
          "internalType": "uint8",
          "name": "",
          "type": "uint8"
        }
      ],
      "stateMutability": "view",
      "type": "function"
    },
    {
      "inputs": [
        {
          "internalType": "address",
          "name": "_newAdmin",
          "type": "address"
        }
      ],
      "name": "addAdmin",
      "outputs": [],
      "stateMutability": "nonpayable",
      "type": "function"
    },
    {
      "inputs": [],
      "name": "adminCount",
      "outputs": [
        {
          "internalType": "uint8",
          "name": "",
          "type": "uint8"
        }
      ],
      "stateMutability": "view",
      "type": "function"
    },
    {
      "inputs": [
        {
          "internalType": "address",
          "name": "",
          "type": "address"
        }
      ],
      "name": "admins",
      "outputs": [
        {
          "internalType": "bool",
          "name": "isAdmin",
          "type": "bool"
        },
        {
          "internalType": "bool",
          "name": "exists",
          "type": "bool"
        }
      ],
      "stateMutability": "view",
      "type": "function"
    },
    {
      "inputs": [
        {
          "internalType": "address",
          "name": "_authority",
          "type": "address"
        }
      ],
      "name": "approveHigherAuthority",
      "outputs": [],
      "stateMutability": "nonpayable",
      "type": "function"
    },
    {
      "inputs": [
        {
          "internalType": "address",
          "name": "_institute",
          "type": "address"
        }
      ],
      "name": "approveInstitute",
      "outputs": [],
      "stateMutability": "nonpayable",
      "type": "function"
    },
    {
      "inputs": [],
      "name": "factoryAddress",
      "outputs": [
        {
          "internalType": "address",
          "name": "",
          "type": "address"
        }
      ],
      "stateMutability": "view",
      "type": "function"
    },
    {
      "inputs": [
        {
          "internalType": "address",
          "name": "",
          "type": "address"
        }
      ],
      "name": "higherAuthorities",
      "outputs": [
        {
          "internalType": "address",
          "name": "walletAddress",
          "type": "address"
        },
        {
          "internalType": "string",
          "name": "authorityName",
          "type": "string"
        },
        {
          "internalType": "uint8",
          "name": "approvalCount",
          "type": "uint8"
        },
        {
          "internalType": "bool",
          "name": "isApproved",
          "type": "bool"
        },
        {
          "internalType": "bool",
          "name": "exists",
          "type": "bool"
        }
      ],
      "stateMutability": "view",
      "type": "function"
    },
    {
      "inputs": [
        {
          "internalType": "address",
          "name": "",
          "type": "address"
        }
      ],
      "name": "institutes",
      "outputs": [
        {
          "internalType": "string",
          "name": "institudeName",
          "type": "string"
        },
        {
          "internalType": "address",
          "name": "higherAuthority",
          "type": "address"
        },
        {
          "internalType": "bool",
          "name": "isApproved",
          "type": "bool"
        },
        {
          "internalType": "bool",
          "name": "exists",
          "type": "bool"
        }
      ],
      "stateMutability": "view",
      "type": "function"
    },
    {
      "inputs": [],
      "name": "owner",
      "outputs": [
        {
          "internalType": "address",
          "name": "",
          "type": "address"
        }
      ],
      "stateMutability": "view",
      "type": "function"
    },
    {
      "inputs": [
        {
          "internalType": "string",
          "name": "_authorityName",
          "type": "string"
        }
      ],
      "name": "registerHigherAuthority",
      "outputs": [],
      "stateMutability": "nonpayable",
      "type": "function"
    },
    {
      "inputs": [
        {
          "internalType": "string",
          "name": "_instituteName",
          "type": "string"
        },
        {
          "internalType": "address",
          "name": "_higherAuthority",
          "type": "address"
        }
      ],
      "name": "registerInstitute",
      "outputs": [],
      "stateMutability": "nonpayable",
      "type": "function"
    },
    {
      "inputs": [
        {
          "internalType": "address",
          "name": "_institute",
          "type": "address"
        }
      ],
      "name": "rejectInstitute",
      "outputs": [],
      "stateMutability": "nonpayable",
      "type": "function"
    },
    {
      "inputs": [
        {
          "internalType": "address",
          "name": "_admin",
          "type": "address"
        }
      ],
      "name": "removeAdmin",
      "outputs": [],
      "stateMutability": "nonpayable",
      "type": "function"
    },
    {
      "inputs": [],
      "name": "renounceOwnership",
      "outputs": [],
      "stateMutability": "nonpayable",
      "type": "function"
    },
    {
      "inputs": [
        {
          "internalType": "address",
          "name": "_factoryAddress",
          "type": "address"
        }
      ],
      "name": "setFactory",
      "outputs": [],
      "stateMutability": "nonpayable",
      "type": "function"
    },
    {
      "inputs": [
        {
          "internalType": "address",
          "name": "newOwner",
          "type": "address"
        }
      ],
      "name": "transferOwnership",
      "outputs": [],
      "stateMutability": "nonpayable",
      "type": "function"
    }
  ],
  "bytecode": "0x608060405234801561001057600080fd5b50338061003757604051631e4fbdf760e01b81526000600482015260240160405180910390fd5b6100408161009c565b50604080518082018252600180825260208083018281523360009081529183905293902091518254935161ffff1990941690151561ff00191617610100931515939093029290921790556002805460ff191690911790556100ec565b600080546001600160a01b038381166001600160a01b0319831681178455604051919092169283917f8be0079c531659141344cd1fd0a4f28419497f9722a3daafe3b4186f6b6457e09190a35050565b6116dd806100fb6000396000f3fe608060405234801561001057600080fd5b50600436106101165760003560e01c8063715018a6116100a257806395206c1d1161007157806395206c1d1461026b578063966dae0e1461027e578063b188cc6514610291578063d79eae94146102a4578063f2fde38b146102b757600080fd5b8063715018a6146102085780637e0e46b7146102105780638da5cb5b146102335780639112c6f61461025857600080fd5b8063429b62e5116100e9578063429b62e514610184578063599c5533146101c75780635bb47808146101cf5780636d3c148e146101e257806370480275146101f557600080fd5b806302be1ecf1461011b5780631785f53c1461014857806324bf7f2a1461015d5780632b7832b314610177575b600080fd5b61012e6101293660046112b4565b6102ca565b60405161013f95949392919061131c565b60405180910390f35b61015b6101563660046112b4565b610395565b005b610165600581565b60405160ff909116815260200161013f565b6002546101659060ff1681565b6101b06101923660046112b4565b60016020526000908152604090205460ff8082169161010090041682565b60408051921515835290151560208301520161013f565b610165600381565b61015b6101dd3660046112b4565b6104f6565b61015b6101f03660046112b4565b61056f565b61015b6102033660046112b4565b6107c6565b61015b610940565b61022361021e3660046112b4565b610954565b60405161013f9493929190611362565b6000546001600160a01b03165b6040516001600160a01b03909116815260200161013f565b61015b6102663660046112b4565b610a17565b61015b6102793660046112b4565b610c23565b600554610240906001600160a01b031681565b61015b61029f36600461143f565b610e87565b61015b6102b236600461147c565b610fd8565b61015b6102c53660046112b4565b61118f565b600360205260009081526040902080546001820180546001600160a01b0390921692916102f6906114ca565b80601f0160208091040260200160405190810160405280929190818152602001828054610322906114ca565b801561036f5780601f106103445761010080835404028352916020019161036f565b820191906000526020600020905b81548152906001019060200180831161035257829003601f168201915b5050506002909301549192505060ff808216916101008104821691620100009091041685565b61039d6111cd565b6001600160a01b038116600090815260016020526040902054610100900460ff166104065760405162461bcd60e51b815260206004820152601460248201527310591b5a5b88191bd95cc81b9bdd08195e1a5cdd60621b60448201526064015b60405180910390fd5b6000546001600160a01b03166001600160a01b0316816001600160a01b0316036104725760405162461bcd60e51b815260206004820152601960248201527f43616e6e6f742072656d6f76652073757065722061646d696e0000000000000060448201526064016103fd565b6001600160a01b0381166000908152600160205260408120805461ffff191690556002805460ff16916104a48361151a565b91906101000a81548160ff021916908360ff16021790555050806001600160a01b03167fa3b62bc36326052d97ea62d63c3d60308ed4c3ea8ac079dd8499f1e9c4f80c0f60405160405180910390a250565b6104fe6111cd565b6005546001600160a01b03161561054d5760405162461bcd60e51b8152602060048201526013602482015272119858dd1bdc9e48185b1c9958591e481cd95d606a1b60448201526064016103fd565b600580546001600160a01b0319166001600160a01b0392909216919091179055565b3360009081526001602052604090205460ff166105d85760405162461bcd60e51b815260206004820152602160248201527f4f6e6c792061646d696e2063616e2063616c6c20746869732066756e6374696f6044820152603760f91b60648201526084016103fd565b6001600160a01b03811660009081526003602052604090206002015462010000900460ff166106495760405162461bcd60e51b815260206004820152601f60248201527f48696768657220617574686f7269747920646f6573206e6f742065786973740060448201526064016103fd565b6001600160a01b038116600090815260036020526040902060020154610100900460ff16156106c45760405162461bcd60e51b815260206004820152602160248201527f48696768657220617574686f7269747920616c726561647920617070726f76656044820152601960fa1b60648201526084016103fd565b6001600160a01b0381166000908152600360205260408120600281018054919260ff909216916106f383611537565b82546101009290920a60ff8181021990931691831602179091556002830154600391161090506107c25760028101805461ff0019166101001790556005546040516360b0a74960e11b81526001600160a01b0384811660048301529091169063c1614e9290602401600060405180830381600087803b15801561077557600080fd5b505af1158015610789573d6000803e3d6000fd5b50506040516001600160a01b03851692507f52318d3a826841d977f7a495ab633eb9e7dfe98d711f3c4d766f80cae5865d289150600090a25b5050565b6107ce6111cd565b6001600160a01b038116600090815260016020526040902054610100900460ff16156108335760405162461bcd60e51b815260206004820152601460248201527341646d696e20616c72656164792065786973747360601b60448201526064016103fd565b600254600560ff909116111561088b5760405162461bcd60e51b815260206004820152601b60248201527f4d6178696d756d2061646d696e206c696d69742072656163686564000000000060448201526064016103fd565b604080518082018252600180825260208083018281526001600160a01b03861660009081529290915292812091518254935161ffff1990941690151561ff00191617610100931515939093029290921790556002805460ff16916108ee83611537565b91906101000a81548160ff021916908360ff16021790555050806001600160a01b03167f44d6d25963f097ad14f29f06854a01f575648a1ef82f30e562ccd3889717e33960405160405180910390a250565b6109486111cd565b61095260006111fa565b565b60046020526000908152604090208054819061096f906114ca565b80601f016020809104026020016040519081016040528092919081815260200182805461099b906114ca565b80156109e85780601f106109bd576101008083540402835291602001916109e8565b820191906000526020600020905b8154815290600101906020018083116109cb57829003601f168201915b505050600190930154919250506001600160a01b0381169060ff600160a01b8204811691600160a81b90041684565b33600090815260036020526040902060020154610100900460ff16610a9b5760405162461bcd60e51b815260206004820152603460248201527f4f6e6c7920617070726f7665642068696768657220617574686f726974792063604482015273616e2072656a65637420696e737469747574657360601b60648201526084016103fd565b6001600160a01b038116600090815260046020526040902060010154600160a81b900460ff16610b085760405162461bcd60e51b8152602060048201526018602482015277125b9cdd1a5d1d5d1948191bd95cc81b9bdd08195e1a5cdd60421b60448201526064016103fd565b6001600160a01b03818116600090815260046020526040902060010154163314610b445760405162461bcd60e51b81526004016103fd90611556565b6001600160a01b038116600090815260046020526040902060010154600160a01b900460ff1615610bb75760405162461bcd60e51b815260206004820152601a60248201527f496e7374697475746520616c726561647920617070726f76656400000000000060448201526064016103fd565b6001600160a01b038116600090815260046020526040812090610bda828261124a565b5060010180546001600160b01b03191690556040516001600160a01b038216907f2a3e119902447ebca3ab8ae4e1c6f9786c9b0502c7b6a265162dd05c430cc44c90600090a250565b33600090815260036020526040902060020154610100900460ff16610ca85760405162461bcd60e51b815260206004820152603560248201527f4f6e6c7920617070726f7665642068696768657220617574686f726974792063604482015274616e20617070726f766520696e737469747574657360581b60648201526084016103fd565b6001600160a01b038116600090815260046020526040902060010154600160a81b900460ff16610d155760405162461bcd60e51b8152602060048201526018602482015277125b9cdd1a5d1d5d1948191bd95cc81b9bdd08195e1a5cdd60421b60448201526064016103fd565b6001600160a01b03818116600090815260046020526040902060010154163314610d515760405162461bcd60e51b81526004016103fd90611556565b6001600160a01b038116600090815260046020526040902060010154600160a01b900460ff1615610dc45760405162461bcd60e51b815260206004820152601a60248201527f496e7374697475746520616c726561647920617070726f76656400000000000060448201526064016103fd565b6001600160a01b03818116600081815260046020819052604091829020600101805460ff60a01b1916600160a01b1790556005549151633594906960e11b81529081019290925233602483015290911690636b2920d290604401600060405180830381600087803b158015610e3857600080fd5b505af1158015610e4c573d6000803e3d6000fd5b50506040516001600160a01b03841692507f5449e13b04f2ddf670875d04d03641101181c898218e1ada66039a28750ec4499150600090a250565b3360009081526003602052604090206002015462010000900460ff1615610efc5760405162461bcd60e51b815260206004820152602360248201527f48696768657220617574686f7269747920616c726561647920726567697374656044820152621c995960ea1b60648201526084016103fd565b6040805160a0810182523380825260208083018581526000848601819052606085018190526001608086018190529381526003909252939020825181546001600160a01b0319166001600160a01b03909116178155925191929190820190610f6490826115e7565b506040828101516002909201805460608501516080909501511515620100000262ff0000199515156101000261ffff1990921660ff909516949094171793909316919091179091555133907f5f0ee17caf68757eadc6e0e994e6bb61b717aefe5192df6b4cfcb63107238c3c90600090a250565b33600090815260046020526040902060010154600160a81b900460ff16156110425760405162461bcd60e51b815260206004820152601c60248201527f496e7374697475746520616c726561647920726567697374657265640000000060448201526064016103fd565b6001600160a01b038116600090815260036020526040902060020154610100900460ff166110c15760405162461bcd60e51b815260206004820152602660248201527f496e76616c6964206f7220756e617070726f7665642068696768657220617574604482015265686f7269747960d01b60648201526084016103fd565b604080516080810182528381526001600160a01b0383166020808301919091526000828401819052600160608401523381526004909152919091208151819061110a90826115e7565b506020820151600190910180546040808501516060909501511515600160a81b0260ff60a81b19951515600160a01b026001600160a81b03199093166001600160a01b0395861617929092179490941617905590519082169033907fe60873268875df677ee34d4b87c3398a04fc36606400cc53b4de00b3ff4045f090600090a35050565b6111976111cd565b6001600160a01b0381166111c157604051631e4fbdf760e01b8152600060048201526024016103fd565b6111ca816111fa565b50565b6000546001600160a01b031633146109525760405163118cdaa760e01b81523360048201526024016103fd565b600080546001600160a01b038381166001600160a01b0319831681178455604051919092169283917f8be0079c531659141344cd1fd0a4f28419497f9722a3daafe3b4186f6b6457e09190a35050565b508054611256906114ca565b6000825580601f10611266575050565b601f0160209004906000526020600020908101906111ca91905b808211156112945760008155600101611280565b5090565b80356001600160a01b03811681146112af57600080fd5b919050565b6000602082840312156112c657600080fd5b6112cf82611298565b9392505050565b6000815180845260005b818110156112fc576020818501810151868301820152016112e0565b506000602082860101526020601f19601f83011685010191505092915050565b6001600160a01b038616815260a060208201819052600090611340908301876112d6565b60ff959095166040830152509115156060830152151560809091015292915050565b60808152600061137560808301876112d6565b6001600160a01b039590951660208301525091151560408301521515606090910152919050565b634e487b7160e01b600052604160045260246000fd5b600082601f8301126113c357600080fd5b813567ffffffffffffffff808211156113de576113de61139c565b604051601f8301601f19908116603f011681019082821181831017156114065761140661139c565b8160405283815286602085880101111561141f57600080fd5b836020870160208301376000602085830101528094505050505092915050565b60006020828403121561145157600080fd5b813567ffffffffffffffff81111561146857600080fd5b611474848285016113b2565b949350505050565b6000806040838503121561148f57600080fd5b823567ffffffffffffffff8111156114a657600080fd5b6114b2858286016113b2565b9250506114c160208401611298565b90509250929050565b600181811c908216806114de57607f821691505b6020821081036114fe57634e487b7160e01b600052602260045260246000fd5b50919050565b634e487b7160e01b600052601160045260246000fd5b600060ff82168061152d5761152d611504565b6000190192915050565b600060ff821660ff810361154d5761154d611504565b60010192915050565b60208082526022908201527f496e73746974757465206e6f7420756e64657220796f757220617574686f7269604082015261747960f01b606082015260800190565b601f8211156115e257600081815260208120601f850160051c810160208610156115bf5750805b601f850160051c820191505b818110156115de578281556001016115cb565b5050505b505050565b815167ffffffffffffffff8111156116015761160161139c565b6116158161160f84546114ca565b84611598565b602080601f83116001811461164a57600084156116325750858301515b600019600386901b1c1916600185901b1785556115de565b600085815260208120601f198616915b828110156116795788860151825594840194600190910190840161165a565b50858210156116975787850151600019600388901b60f8161c191681555b5050505050600190811b0190555056fea2646970667358221220a42eca599ece241528b0b9098bc5be140f771411119ab050a6450682672097c964736f6c63430008140033",
  "linkReferences": {},
  "deployedLinkReferences": {}
}