{
  "_format": "hh-sol-artifact-1",
  "contractName": "IdentityRegistry",
  "sourceName": "contracts/IdentityRegistry.sol",
  "abi": [
    {
      "inputs": [],
      "stateMutability": "nonpayable",
      "type": "constructor"
    },
    {
      "inputs": [
        {
          "internalType": "address",
          "name": "owner",
          "type": "address"
        }
      ],
      "name": "OwnableInvalidOwner",
      "type": "error"
    },
    {
      "inputs": [
        {
          "internalType": "address",
          "name": "account",
          "type": "address"
        }
      ],
      "name": "OwnableUnauthorizedAccount",
      "type": "error"
    },
    {
      "anonymous": false,
      "inputs": [
        {
          "indexed": true,
          "internalType": "address",
          "name": "admin",
          "type": "address"
        }
      ],
      "name": "AdminAdded",
      "type": "event"
    },
    {
      "anonymous": false,
      "inputs": [
        {
          "indexed": true,
          "internalType": "address",
          "name": "admin",
          "type": "address"
        }
      ],
      "name": "AdminRemoved",
      "type": "event"
    },
    {
      "anonymous": false,
      "inputs": [
        {
          "indexed": true,
          "internalType": "address",
          "name": "authority",
          "type": "address"
        }
      ],
      "name": "HigherAuthorityApproved",
      "type": "event"
    },
    {
      "anonymous": false,
      "inputs": [
        {
          "indexed": true,
          "internalType": "address",
          "name": "authority",
          "type": "address"
        }
      ],
      "name": "HigherAuthorityRegistered",
      "type": "event"
    },
    {
      "anonymous": false,
      "inputs": [
        {
          "indexed": true,
          "internalType": "address",
          "name": "authority",
          "type": "address"
        }
      ],
      "name": "HigherAuthorityRejected",
      "type": "event"
    },
    {
      "anonymous": false,
      "inputs": [
        {
          "indexed": true,
          "internalType": "address",
          "name": "institute",
          "type": "address"
        }
      ],
      "name": "InstituteApproved",
      "type": "event"
    },
    {
      "anonymous": false,
      "inputs": [
        {
          "indexed": true,
          "internalType": "address",
          "name": "institute",
          "type": "address"
        },
        {
          "indexed": true,
          "internalType": "address",
          "name": "authority",
          "type": "address"
        }
      ],
      "name": "InstituteRegistered",
      "type": "event"
    },
    {
      "anonymous": false,
      "inputs": [
        {
          "indexed": true,
          "internalType": "address",
          "name": "institute",
          "type": "address"
        }
      ],
      "name": "InstituteRejected",
      "type": "event"
    },
    {
      "anonymous": false,
      "inputs": [
        {
          "indexed": true,
          "internalType": "address",
          "name": "previousOwner",
          "type": "address"
        },
        {
          "indexed": true,
          "internalType": "address",
          "name": "newOwner",
          "type": "address"
        }
      ],
      "name": "OwnershipTransferred",
      "type": "event"
    },
    {
      "inputs": [],
      "name": "MAX_ADMINS",
      "outputs": [
        {
          "internalType": "uint8",
          "name": "",
          "type": "uint8"
        }
      ],
      "stateMutability": "view",
      "type": "function"
    },
    {
      "inputs": [],
      "name": "REQUIRED_APPROVALS",
      "outputs": [
        {
          "internalType": "uint8",
          "name": "",
          "type": "uint8"
        }
      ],
      "stateMutability": "view",
      "type": "function"
    },
    {
      "inputs": [
        {
          "internalType": "address",
          "name": "_newAdmin",
          "type": "address"
        }
      ],
      "name": "addAdmin",
      "outputs": [],
      "stateMutability": "nonpayable",
      "type": "function"
    },
    {
      "inputs": [],
      "name": "adminCount",
      "outputs": [
        {
          "internalType": "uint8",
          "name": "",
          "type": "uint8"
        }
      ],
      "stateMutability": "view",
      "type": "function"
    },
    {
      "inputs": [
        {
          "internalType": "address",
          "name": "",
          "type": "address"
        }
      ],
      "name": "admins",
      "outputs": [
        {
          "internalType": "bool",
          "name": "isAdmin",
          "type": "bool"
        },
        {
          "internalType": "bool",
          "name": "exists",
          "type": "bool"
        }
      ],
      "stateMutability": "view",
      "type": "function"
    },
    {
      "inputs": [
        {
          "internalType": "address",
          "name": "_authority",
          "type": "address"
        }
      ],
      "name": "approveHigherAuthority",
      "outputs": [],
      "stateMutability": "nonpayable",
      "type": "function"
    },
    {
      "inputs": [
        {
          "internalType": "address",
          "name": "_institute",
          "type": "address"
        }
      ],
      "name": "approveInstitute",
      "outputs": [],
      "stateMutability": "nonpayable",
      "type": "function"
    },
    {
      "inputs": [],
      "name": "factoryAddress",
      "outputs": [
        {
          "internalType": "address",
          "name": "",
          "type": "address"
        }
      ],
      "stateMutability": "view",
      "type": "function"
    },
    {
      "inputs": [
        {
          "internalType": "address",
          "name": "",
          "type": "address"
        }
      ],
      "name": "higherAuthorities",
      "outputs": [
        {
          "internalType": "address",
          "name": "walletAddress",
          "type": "address"
        },
        {
          "internalType": "string",
          "name": "authorityName",
          "type": "string"
        },
        {
          "internalType": "uint8",
          "name": "approvalCount",
          "type": "uint8"
        },
        {
          "internalType": "bool",
          "name": "isApproved",
          "type": "bool"
        },
        {
          "internalType": "bool",
          "name": "exists",
          "type": "bool"
        }
      ],
      "stateMutability": "view",
      "type": "function"
    },
    {
      "inputs": [
        {
          "internalType": "address",
          "name": "",
          "type": "address"
        },
        {
          "internalType": "address",
          "name": "",
          "type": "address"
        }
      ],
      "name": "higherAuthorityAdminApprovals",
      "outputs": [
        {
          "internalType": "bool",
          "name": "",
          "type": "bool"
        }
      ],
      "stateMutability": "view",
      "type": "function"
    },
    {
      "inputs": [
        {
          "internalType": "address",
          "name": "",
          "type": "address"
        }
      ],
      "name": "institutes",
      "outputs": [
        {
          "internalType": "string",
          "name": "institudeName",
          "type": "string"
        },
        {
          "internalType": "address",
          "name": "higherAuthority",
          "type": "address"
        },
        {
          "internalType": "bool",
          "name": "isApproved",
          "type": "bool"
        },
        {
          "internalType": "bool",
          "name": "exists",
          "type": "bool"
        }
      ],
      "stateMutability": "view",
      "type": "function"
    },
    {
      "inputs": [],
      "name": "owner",
      "outputs": [
        {
          "internalType": "address",
          "name": "",
          "type": "address"
        }
      ],
      "stateMutability": "view",
      "type": "function"
    },
    {
      "inputs": [
        {
          "internalType": "string",
          "name": "_authorityName",
          "type": "string"
        }
      ],
      "name": "registerHigherAuthority",
      "outputs": [],
      "stateMutability": "nonpayable",
      "type": "function"
    },
    {
      "inputs": [
        {
          "internalType": "string",
          "name": "_instituteName",
          "type": "string"
        },
        {
          "internalType": "address",
          "name": "_higherAuthority",
          "type": "address"
        }
      ],
      "name": "registerInstitute",
      "outputs": [],
      "stateMutability": "nonpayable",
      "type": "function"
    },
    {
      "inputs": [
        {
          "internalType": "address",
          "name": "_authority",
          "type": "address"
        }
      ],
      "name": "rejectHigherAuthority",
      "outputs": [],
      "stateMutability": "nonpayable",
      "type": "function"
    },
    {
      "inputs": [
        {
          "internalType": "address",
          "name": "_institute",
          "type": "address"
        }
      ],
      "name": "rejectInstitute",
      "outputs": [],
      "stateMutability": "nonpayable",
      "type": "function"
    },
    {
      "inputs": [
        {
          "internalType": "address",
          "name": "_admin",
          "type": "address"
        }
      ],
      "name": "removeAdmin",
      "outputs": [],
      "stateMutability": "nonpayable",
      "type": "function"
    },
    {
      "inputs": [],
      "name": "renounceOwnership",
      "outputs": [],
      "stateMutability": "nonpayable",
      "type": "function"
    },
    {
      "inputs": [
        {
          "internalType": "address",
          "name": "_factoryAddress",
          "type": "address"
        }
      ],
      "name": "setFactory",
      "outputs": [],
      "stateMutability": "nonpayable",
      "type": "function"
    },
    {
      "inputs": [
        {
          "internalType": "address",
          "name": "newOwner",
          "type": "address"
        }
      ],
      "name": "transferOwnership",
      "outputs": [],
      "stateMutability": "nonpayable",
      "type": "function"
    }
  ],
  "bytecode": "0x608060405234801561001057600080fd5b50338061003757604051631e4fbdf760e01b81526000600482015260240160405180910390fd5b6100408161009c565b50604080518082018252600180825260208083018281523360009081529183905293902091518254935161ffff1990941690151561ff00191617610100931515939093029290921790556002805460ff191690911790556100ec565b600080546001600160a01b038381166001600160a01b0319831681178455604051919092169283917f8be0079c531659141344cd1fd0a4f28419497f9722a3daafe3b4186f6b6457e09190a35050565b611a00806100fb6000396000f3fe608060405234801561001057600080fd5b506004361061012c5760003560e01c8063715018a6116100ad578063966dae0e11610071578063966dae0e146102a757806398cbae19146102ba578063b188cc65146102f8578063d79eae941461030b578063f2fde38b1461031e57600080fd5b8063715018a6146102315780637e0e46b7146102395780638da5cb5b1461025c5780639112c6f61461028157806395206c1d1461029457600080fd5b8063429b62e5116100f4578063429b62e5146101ad578063599c5533146101f05780635bb47808146101f85780636d3c148e1461020b578063704802751461021e57600080fd5b806302be1ecf146101315780631785f53c1461015e57806318b9b3751461017357806324bf7f2a146101865780632b7832b3146101a0575b600080fd5b61014461013f366004611512565b610331565b60405161015595949392919061157a565b60405180910390f35b61017161016c366004611512565b6103fc565b005b610171610181366004611512565b61055d565b61018e600581565b60405160ff9091168152602001610155565b60025461018e9060ff1681565b6101d96101bb366004611512565b60016020526000908152604090205460ff8082169161010090041682565b604080519215158352901515602083015201610155565b61018e600381565b610171610206366004611512565b610703565b610171610219366004611512565b61077c565b61017161022c366004611512565b610a29565b610171610ba2565b61024c610247366004611512565b610bb6565b60405161015594939291906115c0565b6000546001600160a01b03165b6040516001600160a01b039091168152602001610155565b61017161028f366004611512565b610c79565b6101716102a2366004611512565b610e85565b600654610269906001600160a01b031681565b6102e86102c83660046115fa565b600460209081526000928352604080842090915290825290205460ff1681565b6040519015158152602001610155565b6101716103063660046116d0565b6110e8565b61017161031936600461170d565b611239565b61017161032c366004611512565b6113f0565b600360205260009081526040902080546001820180546001600160a01b03909216929161035d90611752565b80601f016020809104026020016040519081016040528092919081815260200182805461038990611752565b80156103d65780601f106103ab576101008083540402835291602001916103d6565b820191906000526020600020905b8154815290600101906020018083116103b957829003601f168201915b5050506002909301549192505060ff808216916101008104821691620100009091041685565b61040461142b565b6001600160a01b038116600090815260016020526040902054610100900460ff1661046d5760405162461bcd60e51b815260206004820152601460248201527310591b5a5b88191bd95cc81b9bdd08195e1a5cdd60621b60448201526064015b60405180910390fd5b6000546001600160a01b03166001600160a01b0316816001600160a01b0316036104d95760405162461bcd60e51b815260206004820152601960248201527f43616e6e6f742072656d6f76652073757065722061646d696e000000000000006044820152606401610464565b6001600160a01b0381166000908152600160205260408120805461ffff191690556002805460ff169161050b836117a2565b91906101000a81548160ff021916908360ff16021790555050806001600160a01b03167fa3b62bc36326052d97ea62d63c3d60308ed4c3ea8ac079dd8499f1e9c4f80c0f60405160405180910390a250565b3360009081526001602052604090205460ff1661058c5760405162461bcd60e51b8152600401610464906117bf565b6001600160a01b03811660009081526003602052604090206002015462010000900460ff166105fd5760405162461bcd60e51b815260206004820152601f60248201527f48696768657220617574686f7269747920646f6573206e6f74206578697374006044820152606401610464565b6001600160a01b038116600090815260036020526040902060020154610100900460ff161561063e5760405162461bcd60e51b815260040161046490611800565b6001600160a01b038116600090815260036020526040812080546001600160a01b03191681559061067260018301826114a8565b50600201805462ffffff1916905560005b60058110156106cb576001600160a01b038083166000908152600460209081526040808320938516835292905220805460ff19169055806106c381611841565b915050610683565b506040516001600160a01b038216907f77c71d969287ba0a9aff88b125b77b0e4170d0a5fbceee73e2bc8dc2edfb2cbc90600090a250565b61070b61142b565b6006546001600160a01b03161561075a5760405162461bcd60e51b8152602060048201526013602482015272119858dd1bdc9e48185b1c9958591e481cd95d606a1b6044820152606401610464565b600680546001600160a01b0319166001600160a01b0392909216919091179055565b3360009081526001602052604090205460ff166107ab5760405162461bcd60e51b8152600401610464906117bf565b6001600160a01b03811660009081526003602052604090206002015462010000900460ff1661081c5760405162461bcd60e51b815260206004820152601f60248201527f48696768657220617574686f7269747920646f6573206e6f74206578697374006044820152606401610464565b6001600160a01b038116600090815260036020526040902060020154610100900460ff161561085d5760405162461bcd60e51b815260040161046490611800565b6001600160a01b038116600090815260046020908152604080832033845290915290205460ff16156108e35760405162461bcd60e51b815260206004820152602960248201527f41646d696e2068617320616c726561647920617070726f766564207468697320604482015268617574686f7269747960b81b6064820152608401610464565b6001600160a01b03811660008181526004602090815260408083203384528252808320805460ff1916600117905592825260039052908120600201805460ff169161092d8361185a565b82546101009290920a60ff8181021990931691831602179091556001600160a01b038316600090815260036020819052604090912060020154909116109050610a26576001600160a01b0381811660008181526003602052604090819020600201805461ff00191661010017905560065490516360b0a74960e11b815260048101929092529091169063c1614e9290602401600060405180830381600087803b1580156109d957600080fd5b505af11580156109ed573d6000803e3d6000fd5b50506040516001600160a01b03841692507f52318d3a826841d977f7a495ab633eb9e7dfe98d711f3c4d766f80cae5865d289150600090a25b50565b610a3161142b565b6001600160a01b038116600090815260016020526040902054610100900460ff1615610a965760405162461bcd60e51b815260206004820152601460248201527341646d696e20616c72656164792065786973747360601b6044820152606401610464565b600254600560ff90911610610aed5760405162461bcd60e51b815260206004820152601b60248201527f4d6178696d756d2061646d696e206c696d6974207265616368656400000000006044820152606401610464565b604080518082018252600180825260208083018281526001600160a01b03861660009081529290915292812091518254935161ffff1990941690151561ff00191617610100931515939093029290921790556002805460ff1691610b508361185a565b91906101000a81548160ff021916908360ff16021790555050806001600160a01b03167f44d6d25963f097ad14f29f06854a01f575648a1ef82f30e562ccd3889717e33960405160405180910390a250565b610baa61142b565b610bb46000611458565b565b600560205260009081526040902080548190610bd190611752565b80601f0160208091040260200160405190810160405280929190818152602001828054610bfd90611752565b8015610c4a5780601f10610c1f57610100808354040283529160200191610c4a565b820191906000526020600020905b815481529060010190602001808311610c2d57829003601f168201915b505050600190930154919250506001600160a01b0381169060ff600160a01b8204811691600160a81b90041684565b33600090815260036020526040902060020154610100900460ff16610cfd5760405162461bcd60e51b815260206004820152603460248201527f4f6e6c7920617070726f7665642068696768657220617574686f726974792063604482015273616e2072656a65637420696e737469747574657360601b6064820152608401610464565b6001600160a01b038116600090815260056020526040902060010154600160a81b900460ff16610d6a5760405162461bcd60e51b8152602060048201526018602482015277125b9cdd1a5d1d5d1948191bd95cc81b9bdd08195e1a5cdd60421b6044820152606401610464565b6001600160a01b03818116600090815260056020526040902060010154163314610da65760405162461bcd60e51b815260040161046490611879565b6001600160a01b038116600090815260056020526040902060010154600160a01b900460ff1615610e195760405162461bcd60e51b815260206004820152601a60248201527f496e7374697475746520616c726561647920617070726f7665640000000000006044820152606401610464565b6001600160a01b038116600090815260056020526040812090610e3c82826114a8565b5060010180546001600160b01b03191690556040516001600160a01b038216907f2a3e119902447ebca3ab8ae4e1c6f9786c9b0502c7b6a265162dd05c430cc44c90600090a250565b33600090815260036020526040902060020154610100900460ff16610f0a5760405162461bcd60e51b815260206004820152603560248201527f4f6e6c7920617070726f7665642068696768657220617574686f726974792063604482015274616e20617070726f766520696e737469747574657360581b6064820152608401610464565b6001600160a01b038116600090815260056020526040902060010154600160a81b900460ff16610f775760405162461bcd60e51b8152602060048201526018602482015277125b9cdd1a5d1d5d1948191bd95cc81b9bdd08195e1a5cdd60421b6044820152606401610464565b6001600160a01b03818116600090815260056020526040902060010154163314610fb35760405162461bcd60e51b815260040161046490611879565b6001600160a01b038116600090815260056020526040902060010154600160a01b900460ff16156110265760405162461bcd60e51b815260206004820152601a60248201527f496e7374697475746520616c726561647920617070726f7665640000000000006044820152606401610464565b6001600160a01b0381811660008181526005602052604090819020600101805460ff60a01b1916600160a01b1790556006549051633594906960e11b8152600481019290925233602483015290911690636b2920d290604401600060405180830381600087803b15801561109957600080fd5b505af11580156110ad573d6000803e3d6000fd5b50506040516001600160a01b03841692507f5449e13b04f2ddf670875d04d03641101181c898218e1ada66039a28750ec4499150600090a250565b3360009081526003602052604090206002015462010000900460ff161561115d5760405162461bcd60e51b815260206004820152602360248201527f48696768657220617574686f7269747920616c726561647920726567697374656044820152621c995960ea1b6064820152608401610464565b6040805160a0810182523380825260208083018581526000848601819052606085018190526001608086018190529381526003909252939020825181546001600160a01b0319166001600160a01b039091161781559251919291908201906111c5908261190a565b506040828101516002909201805460608501516080909501511515620100000262ff0000199515156101000261ffff1990921660ff909516949094171793909316919091179091555133907f5f0ee17caf68757eadc6e0e994e6bb61b717aefe5192df6b4cfcb63107238c3c90600090a250565b33600090815260056020526040902060010154600160a81b900460ff16156112a35760405162461bcd60e51b815260206004820152601c60248201527f496e7374697475746520616c72656164792072656769737465726564000000006044820152606401610464565b6001600160a01b038116600090815260036020526040902060020154610100900460ff166113225760405162461bcd60e51b815260206004820152602660248201527f496e76616c6964206f7220756e617070726f7665642068696768657220617574604482015265686f7269747960d01b6064820152608401610464565b604080516080810182528381526001600160a01b0383166020808301919091526000828401819052600160608401523381526005909152919091208151819061136b908261190a565b506020820151600190910180546040808501516060909501511515600160a81b0260ff60a81b19951515600160a01b026001600160a81b03199093166001600160a01b0395861617929092179490941617905590519082169033907fe60873268875df677ee34d4b87c3398a04fc36606400cc53b4de00b3ff4045f090600090a35050565b6113f861142b565b6001600160a01b03811661142257604051631e4fbdf760e01b815260006004820152602401610464565b610a2681611458565b6000546001600160a01b03163314610bb45760405163118cdaa760e01b8152336004820152602401610464565b600080546001600160a01b038381166001600160a01b0319831681178455604051919092169283917f8be0079c531659141344cd1fd0a4f28419497f9722a3daafe3b4186f6b6457e09190a35050565b5080546114b490611752565b6000825580601f106114c4575050565b601f016020900490600052602060002090810190610a2691905b808211156114f257600081556001016114de565b5090565b80356001600160a01b038116811461150d57600080fd5b919050565b60006020828403121561152457600080fd5b61152d826114f6565b9392505050565b6000815180845260005b8181101561155a5760208185018101518683018201520161153e565b506000602082860101526020601f19601f83011685010191505092915050565b6001600160a01b038616815260a06020820181905260009061159e90830187611534565b60ff959095166040830152509115156060830152151560809091015292915050565b6080815260006115d36080830187611534565b6001600160a01b039590951660208301525091151560408301521515606090910152919050565b6000806040838503121561160d57600080fd5b611616836114f6565b9150611624602084016114f6565b90509250929050565b634e487b7160e01b600052604160045260246000fd5b600082601f83011261165457600080fd5b813567ffffffffffffffff8082111561166f5761166f61162d565b604051601f8301601f19908116603f011681019082821181831017156116975761169761162d565b816040528381528660208588010111156116b057600080fd5b836020870160208301376000602085830101528094505050505092915050565b6000602082840312156116e257600080fd5b813567ffffffffffffffff8111156116f957600080fd5b61170584828501611643565b949350505050565b6000806040838503121561172057600080fd5b823567ffffffffffffffff81111561173757600080fd5b61174385828601611643565b925050611624602084016114f6565b600181811c9082168061176657607f821691505b60208210810361178657634e487b7160e01b600052602260045260246000fd5b50919050565b634e487b7160e01b600052601160045260246000fd5b600060ff8216806117b5576117b561178c565b6000190192915050565b60208082526021908201527f4f6e6c792061646d696e2063616e2063616c6c20746869732066756e6374696f6040820152603760f91b606082015260800190565b60208082526021908201527f48696768657220617574686f7269747920616c726561647920617070726f76656040820152601960fa1b606082015260800190565b6000600182016118535761185361178c565b5060010190565b600060ff821660ff81036118705761187061178c565b60010192915050565b60208082526022908201527f496e73746974757465206e6f7420756e64657220796f757220617574686f7269604082015261747960f01b606082015260800190565b601f82111561190557600081815260208120601f850160051c810160208610156118e25750805b601f850160051c820191505b81811015611901578281556001016118ee565b5050505b505050565b815167ffffffffffffffff8111156119245761192461162d565b611938816119328454611752565b846118bb565b602080601f83116001811461196d57600084156119555750858301515b600019600386901b1c1916600185901b178555611901565b600085815260208120601f198616915b8281101561199c5788860151825594840194600190910190840161197d565b50858210156119ba5787850151600019600388901b60f8161c191681555b5050505050600190811b0190555056fea264697066735822122037ef72b07cf92ca8c50c77926f261cbe98effac948681749a2c0f4a705c58c9a64736f6c63430008140033",
  "linkReferences": {},
  "deployedLinkReferences": {}
}