{
  "_format": "hh-sol-artifact-1",
  "contractName": "DocumentVerification",
  "sourceName": "contracts/02_DocumentVerification.sol",
  "abi": [
    {
      "inputs": [
        {
          "internalType": "address",
          "name": "_identityContractAddress",
          "type": "address"
        }
      ],
      "stateMutability": "nonpayable",
      "type": "constructor"
    },
    {
      "anonymous": false,
      "inputs": [
        {
          "indexed": true,
          "internalType": "uint256",
          "name": "documentId",
          "type": "uint256"
        },
        {
          "indexed": true,
          "internalType": "address",
          "name": "owner",
          "type": "address"
        },
        {
          "indexed": false,
          "internalType": "string",
          "name": "documentHash",
          "type": "string"
        }
      ],
      "name": "DocumentSubmitted",
      "type": "event"
    },
    {
      "anonymous": false,
      "inputs": [
        {
          "indexed": true,
          "internalType": "uint256",
          "name": "documentId",
          "type": "uint256"
        },
        {
          "indexed": true,
          "internalType": "address",
          "name": "verifiedBy",
          "type": "address"
        },
        {
          "indexed": false,
          "internalType": "bool",
          "name": "isVerified",
          "type": "bool"
        }
      ],
      "name": "DocumentVerified",
      "type": "event"
    },
    {
      "inputs": [],
      "name": "documentCount",
      "outputs": [
        {
          "internalType": "uint256",
          "name": "",
          "type": "uint256"
        }
      ],
      "stateMutability": "view",
      "type": "function"
    },
    {
      "inputs": [
        {
          "internalType": "uint256",
          "name": "",
          "type": "uint256"
        }
      ],
      "name": "documents",
      "outputs": [
        {
          "internalType": "uint256",
          "name": "documentId",
          "type": "uint256"
        },
        {
          "internalType": "address",
          "name": "owner",
          "type": "address"
        },
        {
          "internalType": "string",
          "name": "documentHash",
          "type": "string"
        },
        {
          "internalType": "bool",
          "name": "isVerified",
          "type": "bool"
        },
        {
          "internalType": "address",
          "name": "verifiedBy",
          "type": "address"
        }
      ],
      "stateMutability": "view",
      "type": "function"
    },
    {
      "inputs": [
        {
          "internalType": "uint256",
          "name": "_documentId",
          "type": "uint256"
        }
      ],
      "name": "getDocumentDetails",
      "outputs": [
        {
          "internalType": "uint256",
          "name": "",
          "type": "uint256"
        },
        {
          "internalType": "address",
          "name": "",
          "type": "address"
        },
        {
          "internalType": "string",
          "name": "",
          "type": "string"
        },
        {
          "internalType": "bool",
          "name": "",
          "type": "bool"
        },
        {
          "internalType": "address",
          "name": "",
          "type": "address"
        }
      ],
      "stateMutability": "view",
      "type": "function"
    },
    {
      "inputs": [
        {
          "internalType": "string",
          "name": "_documentHash",
          "type": "string"
        }
      ],
      "name": "submitDocument",
      "outputs": [],
      "stateMutability": "nonpayable",
      "type": "function"
    },
    {
      "inputs": [
        {
          "internalType": "uint256",
          "name": "_documentId",
          "type": "uint256"
        },
        {
          "internalType": "bool",
          "name": "_isVerified",
          "type": "bool"
        }
      ],
      "name": "verifyDocument",
      "outputs": [],
      "stateMutability": "nonpayable",
      "type": "function"
    }
  ],
  "bytecode": "0x60806040523480156200001157600080fd5b50604051620013e7380380620013e78339818101604052810190620000379190620000e8565b806000806101000a81548173ffffffffffffffffffffffffffffffffffffffff021916908373ffffffffffffffffffffffffffffffffffffffff160217905550506200011a565b600080fd5b600073ffffffffffffffffffffffffffffffffffffffff82169050919050565b6000620000b08262000083565b9050919050565b620000c281620000a3565b8114620000ce57600080fd5b50565b600081519050620000e281620000b7565b92915050565b6000602082840312156200010157620001006200007e565b5b60006200011184828501620000d1565b91505092915050565b6112bd806200012a6000396000f3fe608060405234801561001057600080fd5b50600436106100575760003560e01c806324e96df61461005c57806380ede3291461007857806393dc3f1a146100ac578063a5b16b2e146100c8578063c2ed2b05146100e6575b600080fd5b61007660048036038101906100719190610973565b61011a565b005b610092600480360381019061008d91906109b3565b6103a2565b6040516100a3959493929190610acf565b60405180910390f35b6100c660048036038101906100c19190610c5e565b61055c565b005b6100d06107e0565b6040516100dd9190610ca7565b60405180910390f35b61010060048036038101906100fb91906109b3565b6107e6565b604051610111959493929190610acf565b60405180910390f35b60008054906101000a900473ffffffffffffffffffffffffffffffffffffffff1673ffffffffffffffffffffffffffffffffffffffff166323e9da46336040518263ffffffff1660e01b81526004016101739190610cc2565b602060405180830381865afa158015610190573d6000803e3d6000fd5b505050506040513d601f19601f820116820180604052508101906101b49190610cf2565b6101f3576040517f08c379a00000000000000000000000000000000000000000000000000000000081526004016101ea90610d91565b60405180910390fd5b6000600160008481526020019081526020016000209050600073ffffffffffffffffffffffffffffffffffffffff168160010160009054906101000a900473ffffffffffffffffffffffffffffffffffffffff1673ffffffffffffffffffffffffffffffffffffffff160361029d576040517f08c379a000000000000000000000000000000000000000000000000000000000815260040161029490610dfd565b60405180910390fd5b8060030160009054906101000a900460ff16156102ef576040517f08c379a00000000000000000000000000000000000000000000000000000000081526004016102e690610e69565b60405180910390fd5b818160030160006101000a81548160ff021916908315150217905550338160030160016101000a81548173ffffffffffffffffffffffffffffffffffffffff021916908373ffffffffffffffffffffffffffffffffffffffff1602179055503373ffffffffffffffffffffffffffffffffffffffff16837fc5bb223ce0d51d18e1f3e38e72801062d1963248e430624add810251ea73f6ab846040516103959190610e89565b60405180910390a3505050565b60008060606000806000600160008881526020019081526020016000206040518060a0016040529081600082015481526020016001820160009054906101000a900473ffffffffffffffffffffffffffffffffffffffff1673ffffffffffffffffffffffffffffffffffffffff1673ffffffffffffffffffffffffffffffffffffffff16815260200160028201805461043a90610ed3565b80601f016020809104026020016040519081016040528092919081815260200182805461046690610ed3565b80156104b35780601f10610488576101008083540402835291602001916104b3565b820191906000526020600020905b81548152906001019060200180831161049657829003601f168201915b505050505081526020016003820160009054906101000a900460ff161515151581526020016003820160019054906101000a900473ffffffffffffffffffffffffffffffffffffffff1673ffffffffffffffffffffffffffffffffffffffff1673ffffffffffffffffffffffffffffffffffffffff1681525050905080600001518160200151826040015183606001518460800151955095509550955095505091939590929450565b60008054906101000a900473ffffffffffffffffffffffffffffffffffffffff1673ffffffffffffffffffffffffffffffffffffffff1663163f7522336040518263ffffffff1660e01b81526004016105b59190610cc2565b602060405180830381865afa1580156105d2573d6000803e3d6000fd5b505050506040513d601f19601f820116820180604052508101906105f69190610cf2565b610635576040517f08c379a000000000000000000000000000000000000000000000000000000000815260040161062c90610f50565b60405180910390fd5b6002600081548092919061064890610f9f565b91905055506040518060a0016040528060025481526020013373ffffffffffffffffffffffffffffffffffffffff168152602001828152602001600015158152602001600073ffffffffffffffffffffffffffffffffffffffff168152506001600060025481526020019081526020016000206000820151816000015560208201518160010160006101000a81548173ffffffffffffffffffffffffffffffffffffffff021916908373ffffffffffffffffffffffffffffffffffffffff16021790555060408201518160020190816107219190611193565b5060608201518160030160006101000a81548160ff02191690831515021790555060808201518160030160016101000a81548173ffffffffffffffffffffffffffffffffffffffff021916908373ffffffffffffffffffffffffffffffffffffffff1602179055509050503373ffffffffffffffffffffffffffffffffffffffff166002547fdfd85dcecfa356757c4a7d152fb6744f8353e3548e46f7460eff01c741536122836040516107d59190611265565b60405180910390a350565b60025481565b60016020528060005260406000206000915090508060000154908060010160009054906101000a900473ffffffffffffffffffffffffffffffffffffffff169080600201805461083590610ed3565b80601f016020809104026020016040519081016040528092919081815260200182805461086190610ed3565b80156108ae5780601f10610883576101008083540402835291602001916108ae565b820191906000526020600020905b81548152906001019060200180831161089157829003601f168201915b5050505050908060030160009054906101000a900460ff16908060030160019054906101000a900473ffffffffffffffffffffffffffffffffffffffff16905085565b6000604051905090565b600080fd5b600080fd5b6000819050919050565b61091881610905565b811461092357600080fd5b50565b6000813590506109358161090f565b92915050565b60008115159050919050565b6109508161093b565b811461095b57600080fd5b50565b60008135905061096d81610947565b92915050565b6000806040838503121561098a576109896108fb565b5b600061099885828601610926565b92505060206109a98582860161095e565b9150509250929050565b6000602082840312156109c9576109c86108fb565b5b60006109d784828501610926565b91505092915050565b6109e981610905565b82525050565b600073ffffffffffffffffffffffffffffffffffffffff82169050919050565b6000610a1a826109ef565b9050919050565b610a2a81610a0f565b82525050565b600081519050919050565b600082825260208201905092915050565b60005b83811015610a6a578082015181840152602081019050610a4f565b60008484015250505050565b6000601f19601f8301169050919050565b6000610a9282610a30565b610a9c8185610a3b565b9350610aac818560208601610a4c565b610ab581610a76565b840191505092915050565b610ac98161093b565b82525050565b600060a082019050610ae460008301886109e0565b610af16020830187610a21565b8181036040830152610b038186610a87565b9050610b126060830185610ac0565b610b1f6080830184610a21565b9695505050505050565b600080fd5b600080fd5b7f4e487b7100000000000000000000000000000000000000000000000000000000600052604160045260246000fd5b610b6b82610a76565b810181811067ffffffffffffffff82111715610b8a57610b89610b33565b5b80604052505050565b6000610b9d6108f1565b9050610ba98282610b62565b919050565b600067ffffffffffffffff821115610bc957610bc8610b33565b5b610bd282610a76565b9050602081019050919050565b82818337600083830152505050565b6000610c01610bfc84610bae565b610b93565b905082815260208101848484011115610c1d57610c1c610b2e565b5b610c28848285610bdf565b509392505050565b600082601f830112610c4557610c44610b29565b5b8135610c55848260208601610bee565b91505092915050565b600060208284031215610c7457610c736108fb565b5b600082013567ffffffffffffffff811115610c9257610c91610900565b5b610c9e84828501610c30565b91505092915050565b6000602082019050610cbc60008301846109e0565b92915050565b6000602082019050610cd76000830184610a21565b92915050565b600081519050610cec81610947565b92915050565b600060208284031215610d0857610d076108fb565b5b6000610d1684828501610cdd565b91505092915050565b7f4f6e6c792068696768657220617574686f7269746965732063616e207065726660008201527f6f726d207468697320616374696f6e0000000000000000000000000000000000602082015250565b6000610d7b602f83610a3b565b9150610d8682610d1f565b604082019050919050565b60006020820190508181036000830152610daa81610d6e565b9050919050565b7f446f63756d656e7420646f6573206e6f74206578697374000000000000000000600082015250565b6000610de7601783610a3b565b9150610df282610db1565b602082019050919050565b60006020820190508181036000830152610e1681610dda565b9050919050565b7f446f63756d656e7420697320616c726561647920766572696669656400000000600082015250565b6000610e53601c83610a3b565b9150610e5e82610e1d565b602082019050919050565b60006020820190508181036000830152610e8281610e46565b9050919050565b6000602082019050610e9e6000830184610ac0565b92915050565b7f4e487b7100000000000000000000000000000000000000000000000000000000600052602260045260246000fd5b60006002820490506001821680610eeb57607f821691505b602082108103610efe57610efd610ea4565b5b50919050565b7f55736572206973206e6f74207265676973746572656400000000000000000000600082015250565b6000610f3a601683610a3b565b9150610f4582610f04565b602082019050919050565b60006020820190508181036000830152610f6981610f2d565b9050919050565b7f4e487b7100000000000000000000000000000000000000000000000000000000600052601160045260246000fd5b6000610faa82610905565b91507fffffffffffffffffffffffffffffffffffffffffffffffffffffffffffffffff8203610fdc57610fdb610f70565b5b600182019050919050565b60008190508160005260206000209050919050565b60006020601f8301049050919050565b600082821b905092915050565b6000600883026110497fffffffffffffffffffffffffffffffffffffffffffffffffffffffffffffffff8261100c565b611053868361100c565b95508019841693508086168417925050509392505050565b6000819050919050565b600061109061108b61108684610905565b61106b565b610905565b9050919050565b6000819050919050565b6110aa83611075565b6110be6110b682611097565b848454611019565b825550505050565b600090565b6110d36110c6565b6110de8184846110a1565b505050565b5b81811015611102576110f76000826110cb565b6001810190506110e4565b5050565b601f8211156111475761111881610fe7565b61112184610ffc565b81016020851015611130578190505b61114461113c85610ffc565b8301826110e3565b50505b505050565b600082821c905092915050565b600061116a6000198460080261114c565b1980831691505092915050565b60006111838383611159565b9150826002028217905092915050565b61119c82610a30565b67ffffffffffffffff8111156111b5576111b4610b33565b5b6111bf8254610ed3565b6111ca828285611106565b600060209050601f8311600181146111fd57600084156111eb578287015190505b6111f58582611177565b86555061125d565b601f19841661120b86610fe7565b60005b828110156112335784890151825560018201915060208501945060208101905061120e565b86831015611250578489015161124c601f891682611159565b8355505b6001600288020188555050505b505050505050565b6000602082019050818103600083015261127f8184610a87565b90509291505056fea2646970667358221220416a07b3b37b52a40c89a566a31f23252165e5fe85aa3f31580c58f0c2ddfe0664736f6c63430008140033",
  "linkReferences": {},
  "deployedLinkReferences": {}
}