{
  "_format": "hh-sol-artifact-1",
  "contractName": "Authority",
  "sourceName": "contracts/Authority.sol",
  "abi": [
    {
      "inputs": [
        {
          "internalType": "address",
          "name": "_higherAuthority",
          "type": "address"
        },
        {
          "internalType": "address",
          "name": "_identityRegistry",
          "type": "address"
        },
        {
          "internalType": "bool",
          "name": "_isSuperAuthority",
          "type": "bool"
        }
      ],
      "stateMutability": "nonpayable",
      "type": "constructor"
    },
    {
      "inputs": [
        {
          "internalType": "address",
          "name": "owner",
          "type": "address"
        }
      ],
      "name": "OwnableInvalidOwner",
      "type": "error"
    },
    {
      "inputs": [
        {
          "internalType": "address",
          "name": "account",
          "type": "address"
        }
      ],
      "name": "OwnableUnauthorizedAccount",
      "type": "error"
    },
    {
      "anonymous": false,
      "inputs": [
        {
          "indexed": true,
          "internalType": "address",
          "name": "institute",
          "type": "address"
        },
        {
          "indexed": true,
          "internalType": "bytes32",
          "name": "documentHash",
          "type": "bytes32"
        }
      ],
      "name": "DocumentRequestApproved",
      "type": "event"
    },
    {
      "anonymous": false,
      "inputs": [
        {
          "indexed": true,
          "internalType": "address",
          "name": "institute",
          "type": "address"
        },
        {
          "indexed": true,
          "internalType": "bytes32",
          "name": "documentHash",
          "type": "bytes32"
        }
      ],
      "name": "DocumentRequestRejected",
      "type": "event"
    },
    {
      "anonymous": false,
      "inputs": [
        {
          "indexed": true,
          "internalType": "address",
          "name": "institute",
          "type": "address"
        }
      ],
      "name": "InstituteAccessRevoked",
      "type": "event"
    },
    {
      "anonymous": false,
      "inputs": [
        {
          "indexed": true,
          "internalType": "address",
          "name": "previousOwner",
          "type": "address"
        },
        {
          "indexed": true,
          "internalType": "address",
          "name": "newOwner",
          "type": "address"
        }
      ],
      "name": "OwnershipTransferred",
      "type": "event"
    },
    {
      "inputs": [
        {
          "internalType": "address",
          "name": "_institute",
          "type": "address"
        },
        {
          "internalType": "address",
          "name": "_instituteContract",
          "type": "address"
        }
      ],
      "name": "addInstitute",
      "outputs": [],
      "stateMutability": "nonpayable",
      "type": "function"
    },
    {
      "inputs": [
        {
          "internalType": "address",
          "name": "_institute",
          "type": "address"
        },
        {
          "internalType": "bytes32",
          "name": "_documentHash",
          "type": "bytes32"
        }
      ],
      "name": "approveDocumentRequest",
      "outputs": [],
      "stateMutability": "nonpayable",
      "type": "function"
    },
    {
      "inputs": [],
      "name": "higherAuthority",
      "outputs": [
        {
          "internalType": "address",
          "name": "",
          "type": "address"
        }
      ],
      "stateMutability": "view",
      "type": "function"
    },
    {
      "inputs": [],
      "name": "identityRegistry",
      "outputs": [
        {
          "internalType": "contract IdentityRegistry",
          "name": "",
          "type": "address"
        }
      ],
      "stateMutability": "view",
      "type": "function"
    },
    {
      "inputs": [
        {
          "internalType": "address",
          "name": "",
          "type": "address"
        }
      ],
      "name": "institutes",
      "outputs": [
        {
          "internalType": "address",
          "name": "",
          "type": "address"
        }
      ],
      "stateMutability": "view",
      "type": "function"
    },
    {
      "inputs": [],
      "name": "isSuperAuthority",
      "outputs": [
        {
          "internalType": "bool",
          "name": "",
          "type": "bool"
        }
      ],
      "stateMutability": "view",
      "type": "function"
    },
    {
      "inputs": [],
      "name": "owner",
      "outputs": [
        {
          "internalType": "address",
          "name": "",
          "type": "address"
        }
      ],
      "stateMutability": "view",
      "type": "function"
    },
    {
      "inputs": [
        {
          "internalType": "address",
          "name": "_institute",
          "type": "address"
        },
        {
          "internalType": "bytes32",
          "name": "_documentHash",
          "type": "bytes32"
        }
      ],
      "name": "rejectDocumentRequest",
      "outputs": [],
      "stateMutability": "nonpayable",
      "type": "function"
    },
    {
      "inputs": [],
      "name": "renounceOwnership",
      "outputs": [],
      "stateMutability": "nonpayable",
      "type": "function"
    },
    {
      "inputs": [
        {
          "internalType": "address",
          "name": "_institute",
          "type": "address"
        }
      ],
      "name": "revokeInstituteAccess",
      "outputs": [],
      "stateMutability": "nonpayable",
      "type": "function"
    },
    {
      "inputs": [
        {
          "internalType": "address",
          "name": "newOwner",
          "type": "address"
        }
      ],
      "name": "transferOwnership",
      "outputs": [],
      "stateMutability": "nonpayable",
      "type": "function"
    }
  ],
  "bytecode": "0x608060405234801561001057600080fd5b5060405161094b38038061094b83398101604081905261002f9161011b565b826001600160a01b03811661005e57604051631e4fbdf760e01b81526000600482015260240160405180910390fd5b610067816100af565b50600180546001600160a01b03199081166001600160a01b03958616179091556002805490911692909316919091179091556004805460ff1916911515919091179055610167565b600080546001600160a01b038381166001600160a01b0319831681178455604051919092169283917f8be0079c531659141344cd1fd0a4f28419497f9722a3daafe3b4186f6b6457e09190a35050565b80516001600160a01b038116811461011657600080fd5b919050565b60008060006060848603121561013057600080fd5b610139846100ff565b9250610147602085016100ff565b91506040840151801515811461015c57600080fd5b809150509250925092565b6107d5806101766000396000f3fe608060405234801561001057600080fd5b50600436106100a95760003560e01c80638c102a6c116100715780638c102a6c146101415780638da5cb5b14610154578063b096885e14610165578063ba47f2ec14610178578063f2fde38b1461018b578063f31e20cf1461019e57600080fd5b8063134e18f4146100ae5780635149bce7146100de5780635e2861e6146100f3578063715018a6146101105780637e0e46b714610118575b600080fd5b6002546100c1906001600160a01b031681565b6040516001600160a01b0390911681526020015b60405180910390f35b6100f16100ec3660046106ac565b6101b1565b005b6004546101009060ff1681565b60405190151581526020016100d5565b6100f16102ec565b6100c16101263660046106d8565b6003602052600090815260409020546001600160a01b031681565b6001546100c1906001600160a01b031681565b6000546001600160a01b03166100c1565b6100f16101733660046106fc565b610300565b6100f16101863660046106ac565b610405565b6100f16101993660046106d8565b61054e565b6100f16101ac3660046106d8565b61058c565b6101b961061a565b6001600160a01b03828116600090815260036020526040902054166101f95760405162461bcd60e51b81526004016101f090610735565b60405180910390fd5b60045460ff16156102ac576001600160a01b0382811660009081526003602052604090819020549051632596828d60e21b81526004810184905291169063965a0a34906024015b600060405180830381600087803b15801561025a57600080fd5b505af115801561026e573d6000803e3d6000fd5b50506040518392506001600160a01b03851691507fe14a4298c3de15e01f60584916c83db6dcdd9d5715899a79b9f7fc5b17f9d25e90600090a35050565b6001600160a01b0382811660009081526003602052604090819020549051632596828d60e21b81526004810184905291169063965a0a3490602401610240565b6102f461061a565b6102fe6000610647565b565b600260009054906101000a90046001600160a01b03166001600160a01b031663966dae0e6040518163ffffffff1660e01b8152600401602060405180830381865afa158015610353573d6000803e3d6000fd5b505050506040513d601f19601f820116820180604052508101906103779190610782565b6001600160a01b0316336001600160a01b0316146103d75760405162461bcd60e51b815260206004820152601f60248201527f4f6e6c7920666163746f72792063616e2061646420696e73746974757465730060448201526064016101f0565b6001600160a01b03918216600090815260036020526040902080546001600160a01b03191691909216179055565b61040d61061a565b6001600160a01b03828116600090815260036020526040902054166104445760405162461bcd60e51b81526004016101f090610735565b60045460ff16156104a75760405162461bcd60e51b815260206004820152602760248201527f537570657220417574686f726974792063616e6e6f742072656a65637420646f60448201526663756d656e747360c81b60648201526084016101f0565b6001600160a01b03828116600090815260036020526040908190205490516319a81ceb60e11b81526004810184905291169063335039d690602401600060405180830381600087803b1580156104fc57600080fd5b505af1158015610510573d6000803e3d6000fd5b50506040518392506001600160a01b03851691507f08cacd49efad21085db9e3e20425396794ea682d6c597bac21a25129130863b690600090a35050565b61055661061a565b6001600160a01b03811661058057604051631e4fbdf760e01b8152600060048201526024016101f0565b61058981610647565b50565b61059461061a565b6001600160a01b03818116600090815260036020526040902054166105cb5760405162461bcd60e51b81526004016101f090610735565b6001600160a01b03811660008181526003602052604080822080546001600160a01b0319169055517fe5dd7339ec4cd76530b4cc5650777adea0b488adbfed43c5b6a867c10d08861b9190a250565b6000546001600160a01b031633146102fe5760405163118cdaa760e01b81523360048201526024016101f0565b600080546001600160a01b038381166001600160a01b0319831681178455604051919092169283917f8be0079c531659141344cd1fd0a4f28419497f9722a3daafe3b4186f6b6457e09190a35050565b6001600160a01b038116811461058957600080fd5b600080604083850312156106bf57600080fd5b82356106ca81610697565b946020939093013593505050565b6000602082840312156106ea57600080fd5b81356106f581610697565b9392505050565b6000806040838503121561070f57600080fd5b823561071a81610697565b9150602083013561072a81610697565b809150509250929050565b6020808252602d908201527f496e73746974757465206e6f74207265676973746572656420756e646572207460408201526c68697320617574686f7269747960981b606082015260800190565b60006020828403121561079457600080fd5b81516106f58161069756fea2646970667358221220041f5f87dfc76eaf0a1e1cafabc2d8496508665ada5f3854fc34d7ebfcce1f6c64736f6c63430008140033",
  "linkReferences": {},
  "deployedLinkReferences": {}
}