{
  "_format": "hh-sol-artifact-1",
  "contractName": "Authority",
  "sourceName": "contracts/Authority.sol",
  "abi": [
    {
      "inputs": [
        {
          "internalType": "address",
          "name": "_higherAuthority",
          "type": "address"
        },
        {
          "internalType": "address",
          "name": "_identityRegistry",
          "type": "address"
        },
        {
          "internalType": "bool",
          "name": "_isSuperAuthority",
          "type": "bool"
        }
      ],
      "stateMutability": "nonpayable",
      "type": "constructor"
    },
    {
      "inputs": [
        {
          "internalType": "address",
          "name": "owner",
          "type": "address"
        }
      ],
      "name": "OwnableInvalidOwner",
      "type": "error"
    },
    {
      "inputs": [
        {
          "internalType": "address",
          "name": "account",
          "type": "address"
        }
      ],
      "name": "OwnableUnauthorizedAccount",
      "type": "error"
    },
    {
      "anonymous": false,
      "inputs": [
        {
          "indexed": true,
          "internalType": "address",
          "name": "institute",
          "type": "address"
        },
        {
          "indexed": true,
          "internalType": "bytes32",
          "name": "documentHash",
          "type": "bytes32"
        }
      ],
      "name": "DocumentRequestApproved",
      "type": "event"
    },
    {
      "anonymous": false,
      "inputs": [
        {
          "indexed": true,
          "internalType": "address",
          "name": "institute",
          "type": "address"
        },
        {
          "indexed": true,
          "internalType": "bytes32",
          "name": "documentHash",
          "type": "bytes32"
        }
      ],
      "name": "DocumentRequestRejected",
      "type": "event"
    },
    {
      "anonymous": false,
      "inputs": [
        {
          "indexed": true,
          "internalType": "address",
          "name": "institute",
          "type": "address"
        }
      ],
      "name": "InstituteAccessRevoked",
      "type": "event"
    },
    {
      "anonymous": false,
      "inputs": [
        {
          "indexed": true,
          "internalType": "address",
          "name": "previousOwner",
          "type": "address"
        },
        {
          "indexed": true,
          "internalType": "address",
          "name": "newOwner",
          "type": "address"
        }
      ],
      "name": "OwnershipTransferred",
      "type": "event"
    },
    {
      "inputs": [
        {
          "internalType": "address",
          "name": "_institute",
          "type": "address"
        },
        {
          "internalType": "address",
          "name": "_instituteContract",
          "type": "address"
        }
      ],
      "name": "addInstitute",
      "outputs": [],
      "stateMutability": "nonpayable",
      "type": "function"
    },
    {
      "inputs": [
        {
          "internalType": "address",
          "name": "_institute",
          "type": "address"
        },
        {
          "internalType": "bytes32",
          "name": "_documentHash",
          "type": "bytes32"
        }
      ],
      "name": "approveDocumentRequest",
      "outputs": [],
      "stateMutability": "nonpayable",
      "type": "function"
    },
    {
      "inputs": [],
      "name": "higherAuthority",
      "outputs": [
        {
          "internalType": "address",
          "name": "",
          "type": "address"
        }
      ],
      "stateMutability": "view",
      "type": "function"
    },
    {
      "inputs": [],
      "name": "identityRegistry",
      "outputs": [
        {
          "internalType": "contract IdentityRegistry",
          "name": "",
          "type": "address"
        }
      ],
      "stateMutability": "view",
      "type": "function"
    },
    {
      "inputs": [
        {
          "internalType": "address",
          "name": "",
          "type": "address"
        }
      ],
      "name": "institutes",
      "outputs": [
        {
          "internalType": "address",
          "name": "",
          "type": "address"
        }
      ],
      "stateMutability": "view",
      "type": "function"
    },
    {
      "inputs": [],
      "name": "isSuperAuthority",
      "outputs": [
        {
          "internalType": "bool",
          "name": "",
          "type": "bool"
        }
      ],
      "stateMutability": "view",
      "type": "function"
    },
    {
      "inputs": [],
      "name": "owner",
      "outputs": [
        {
          "internalType": "address",
          "name": "",
          "type": "address"
        }
      ],
      "stateMutability": "view",
      "type": "function"
    },
    {
      "inputs": [
        {
          "internalType": "address",
          "name": "_institute",
          "type": "address"
        },
        {
          "internalType": "bytes32",
          "name": "_documentHash",
          "type": "bytes32"
        }
      ],
      "name": "rejectDocumentRequest",
      "outputs": [],
      "stateMutability": "nonpayable",
      "type": "function"
    },
    {
      "inputs": [],
      "name": "renounceOwnership",
      "outputs": [],
      "stateMutability": "nonpayable",
      "type": "function"
    },
    {
      "inputs": [
        {
          "internalType": "address",
          "name": "_institute",
          "type": "address"
        }
      ],
      "name": "revokeInstituteAccess",
      "outputs": [],
      "stateMutability": "nonpayable",
      "type": "function"
    },
    {
      "inputs": [
        {
          "internalType": "address",
          "name": "newOwner",
          "type": "address"
        }
      ],
      "name": "transferOwnership",
      "outputs": [],
      "stateMutability": "nonpayable",
      "type": "function"
    }
  ],
  "bytecode": "0x60806040523480156200001157600080fd5b50604051620014ae380380620014ae8339818101604052810190620000379190620002cf565b82600073ffffffffffffffffffffffffffffffffffffffff168173ffffffffffffffffffffffffffffffffffffffff1603620000ad5760006040517f1e4fbdf7000000000000000000000000000000000000000000000000000000008152600401620000a491906200033c565b60405180910390fd5b620000be816200016460201b60201c565b5082600160006101000a81548173ffffffffffffffffffffffffffffffffffffffff021916908373ffffffffffffffffffffffffffffffffffffffff16021790555081600260006101000a81548173ffffffffffffffffffffffffffffffffffffffff021916908373ffffffffffffffffffffffffffffffffffffffff16021790555080600460006101000a81548160ff02191690831515021790555050505062000359565b60008060009054906101000a900473ffffffffffffffffffffffffffffffffffffffff169050816000806101000a81548173ffffffffffffffffffffffffffffffffffffffff021916908373ffffffffffffffffffffffffffffffffffffffff1602179055508173ffffffffffffffffffffffffffffffffffffffff168173ffffffffffffffffffffffffffffffffffffffff167f8be0079c531659141344cd1fd0a4f28419497f9722a3daafe3b4186f6b6457e060405160405180910390a35050565b600080fd5b600073ffffffffffffffffffffffffffffffffffffffff82169050919050565b60006200025a826200022d565b9050919050565b6200026c816200024d565b81146200027857600080fd5b50565b6000815190506200028c8162000261565b92915050565b60008115159050919050565b620002a98162000292565b8114620002b557600080fd5b50565b600081519050620002c9816200029e565b92915050565b600080600060608486031215620002eb57620002ea62000228565b5b6000620002fb868287016200027b565b93505060206200030e868287016200027b565b92505060406200032186828701620002b8565b9150509250925092565b62000336816200024d565b82525050565b60006020820190506200035360008301846200032b565b92915050565b61114580620003696000396000f3fe608060405234801561001057600080fd5b50600436106100a95760003560e01c80638c102a6c116100715780638c102a6c146101405780638da5cb5b1461015e578063b096885e1461017c578063ba47f2ec14610198578063f2fde38b146101b4578063f31e20cf146101d0576100a9565b8063134e18f4146100ae5780635149bce7146100cc5780635e2861e6146100e8578063715018a6146101065780637e0e46b714610110575b600080fd5b6100b66101ec565b6040516100c39190610d61565b60405180910390f35b6100e660048036038101906100e19190610df5565b610212565b005b6100f0610523565b6040516100fd9190610e50565b60405180910390f35b61010e610536565b005b61012a60048036038101906101259190610e6b565b61054a565b6040516101379190610ea7565b60405180910390f35b61014861057d565b6040516101559190610ea7565b60405180910390f35b6101666105a3565b6040516101739190610ea7565b60405180910390f35b61019660048036038101906101919190610ec2565b6105cc565b005b6101b260048036038101906101ad9190610df5565b610753565b005b6101ce60048036038101906101c99190610e6b565b61098b565b005b6101ea60048036038101906101e59190610e6b565b610a11565b005b600260009054906101000a900473ffffffffffffffffffffffffffffffffffffffff1681565b61021a610b8f565b600073ffffffffffffffffffffffffffffffffffffffff16600360008473ffffffffffffffffffffffffffffffffffffffff1673ffffffffffffffffffffffffffffffffffffffff16815260200190815260200160002060009054906101000a900473ffffffffffffffffffffffffffffffffffffffff1673ffffffffffffffffffffffffffffffffffffffff16036102e8576040517f08c379a00000000000000000000000000000000000000000000000000000000081526004016102df90610f85565b60405180910390fd5b600460009054906101000a900460ff161561041057600360008373ffffffffffffffffffffffffffffffffffffffff1673ffffffffffffffffffffffffffffffffffffffff16815260200190815260200160002060009054906101000a900473ffffffffffffffffffffffffffffffffffffffff1673ffffffffffffffffffffffffffffffffffffffff1663965a0a34826040518263ffffffff1660e01b81526004016103959190610fb4565b600060405180830381600087803b1580156103af57600080fd5b505af11580156103c3573d6000803e3d6000fd5b50505050808273ffffffffffffffffffffffffffffffffffffffff167fe14a4298c3de15e01f60584916c83db6dcdd9d5715899a79b9f7fc5b17f9d25e60405160405180910390a361051f565b600360008373ffffffffffffffffffffffffffffffffffffffff1673ffffffffffffffffffffffffffffffffffffffff16815260200190815260200160002060009054906101000a900473ffffffffffffffffffffffffffffffffffffffff1673ffffffffffffffffffffffffffffffffffffffff1663965a0a34826040518263ffffffff1660e01b81526004016104a89190610fb4565b600060405180830381600087803b1580156104c257600080fd5b505af11580156104d6573d6000803e3d6000fd5b50505050808273ffffffffffffffffffffffffffffffffffffffff167fe14a4298c3de15e01f60584916c83db6dcdd9d5715899a79b9f7fc5b17f9d25e60405160405180910390a35b5050565b600460009054906101000a900460ff1681565b61053e610b8f565b6105486000610c16565b565b60036020528060005260406000206000915054906101000a900473ffffffffffffffffffffffffffffffffffffffff1681565b600160009054906101000a900473ffffffffffffffffffffffffffffffffffffffff1681565b60008060009054906101000a900473ffffffffffffffffffffffffffffffffffffffff16905090565b600260009054906101000a900473ffffffffffffffffffffffffffffffffffffffff1673ffffffffffffffffffffffffffffffffffffffff1663966dae0e6040518163ffffffff1660e01b8152600401602060405180830381865afa158015610639573d6000803e3d6000fd5b505050506040513d601f19601f8201168201806040525081019061065d9190610fe4565b73ffffffffffffffffffffffffffffffffffffffff1661067b610cda565b73ffffffffffffffffffffffffffffffffffffffff16146106d1576040517f08c379a00000000000000000000000000000000000000000000000000000000081526004016106c89061105d565b60405180910390fd5b80600360008473ffffffffffffffffffffffffffffffffffffffff1673ffffffffffffffffffffffffffffffffffffffff16815260200190815260200160002060006101000a81548173ffffffffffffffffffffffffffffffffffffffff021916908373ffffffffffffffffffffffffffffffffffffffff1602179055505050565b61075b610b8f565b600073ffffffffffffffffffffffffffffffffffffffff16600360008473ffffffffffffffffffffffffffffffffffffffff1673ffffffffffffffffffffffffffffffffffffffff16815260200190815260200160002060009054906101000a900473ffffffffffffffffffffffffffffffffffffffff1673ffffffffffffffffffffffffffffffffffffffff1603610829576040517f08c379a000000000000000000000000000000000000000000000000000000000815260040161082090610f85565b60405180910390fd5b600460009054906101000a900460ff1615610879576040517f08c379a0000000000000000000000000000000000000000000000000000000008152600401610870906110ef565b60405180910390fd5b600360008373ffffffffffffffffffffffffffffffffffffffff1673ffffffffffffffffffffffffffffffffffffffff16815260200190815260200160002060009054906101000a900473ffffffffffffffffffffffffffffffffffffffff1673ffffffffffffffffffffffffffffffffffffffff1663335039d6826040518263ffffffff1660e01b81526004016109119190610fb4565b600060405180830381600087803b15801561092b57600080fd5b505af115801561093f573d6000803e3d6000fd5b50505050808273ffffffffffffffffffffffffffffffffffffffff167f08cacd49efad21085db9e3e20425396794ea682d6c597bac21a25129130863b660405160405180910390a35050565b610993610b8f565b600073ffffffffffffffffffffffffffffffffffffffff168173ffffffffffffffffffffffffffffffffffffffff1603610a055760006040517f1e4fbdf70000000000000000000000000000000000000000000000000000000081526004016109fc9190610ea7565b60405180910390fd5b610a0e81610c16565b50565b610a19610b8f565b600073ffffffffffffffffffffffffffffffffffffffff16600360008373ffffffffffffffffffffffffffffffffffffffff1673ffffffffffffffffffffffffffffffffffffffff16815260200190815260200160002060009054906101000a900473ffffffffffffffffffffffffffffffffffffffff1673ffffffffffffffffffffffffffffffffffffffff1603610ae7576040517f08c379a0000000000000000000000000000000000000000000000000000000008152600401610ade90610f85565b60405180910390fd5b600360008273ffffffffffffffffffffffffffffffffffffffff1673ffffffffffffffffffffffffffffffffffffffff16815260200190815260200160002060006101000a81549073ffffffffffffffffffffffffffffffffffffffff02191690558073ffffffffffffffffffffffffffffffffffffffff167fe5dd7339ec4cd76530b4cc5650777adea0b488adbfed43c5b6a867c10d08861b60405160405180910390a250565b610b97610cda565b73ffffffffffffffffffffffffffffffffffffffff16610bb56105a3565b73ffffffffffffffffffffffffffffffffffffffff1614610c1457610bd8610cda565b6040517f118cdaa7000000000000000000000000000000000000000000000000000000008152600401610c0b9190610ea7565b60405180910390fd5b565b60008060009054906101000a900473ffffffffffffffffffffffffffffffffffffffff169050816000806101000a81548173ffffffffffffffffffffffffffffffffffffffff021916908373ffffffffffffffffffffffffffffffffffffffff1602179055508173ffffffffffffffffffffffffffffffffffffffff168173ffffffffffffffffffffffffffffffffffffffff167f8be0079c531659141344cd1fd0a4f28419497f9722a3daafe3b4186f6b6457e060405160405180910390a35050565b600033905090565b600073ffffffffffffffffffffffffffffffffffffffff82169050919050565b6000819050919050565b6000610d27610d22610d1d84610ce2565b610d02565b610ce2565b9050919050565b6000610d3982610d0c565b9050919050565b6000610d4b82610d2e565b9050919050565b610d5b81610d40565b82525050565b6000602082019050610d766000830184610d52565b92915050565b600080fd5b6000610d8c82610ce2565b9050919050565b610d9c81610d81565b8114610da757600080fd5b50565b600081359050610db981610d93565b92915050565b6000819050919050565b610dd281610dbf565b8114610ddd57600080fd5b50565b600081359050610def81610dc9565b92915050565b60008060408385031215610e0c57610e0b610d7c565b5b6000610e1a85828601610daa565b9250506020610e2b85828601610de0565b9150509250929050565b60008115159050919050565b610e4a81610e35565b82525050565b6000602082019050610e656000830184610e41565b92915050565b600060208284031215610e8157610e80610d7c565b5b6000610e8f84828501610daa565b91505092915050565b610ea181610d81565b82525050565b6000602082019050610ebc6000830184610e98565b92915050565b60008060408385031215610ed957610ed8610d7c565b5b6000610ee785828601610daa565b9250506020610ef885828601610daa565b9150509250929050565b600082825260208201905092915050565b7f496e73746974757465206e6f74207265676973746572656420756e646572207460008201527f68697320617574686f7269747900000000000000000000000000000000000000602082015250565b6000610f6f602d83610f02565b9150610f7a82610f13565b604082019050919050565b60006020820190508181036000830152610f9e81610f62565b9050919050565b610fae81610dbf565b82525050565b6000602082019050610fc96000830184610fa5565b92915050565b600081519050610fde81610d93565b92915050565b600060208284031215610ffa57610ff9610d7c565b5b600061100884828501610fcf565b91505092915050565b7f4f6e6c7920666163746f72792063616e2061646420696e737469747574657300600082015250565b6000611047601f83610f02565b915061105282611011565b602082019050919050565b600060208201905081810360008301526110768161103a565b9050919050565b7f537570657220417574686f726974792063616e6e6f742072656a65637420646f60008201527f63756d656e747300000000000000000000000000000000000000000000000000602082015250565b60006110d9602783610f02565b91506110e48261107d565b604082019050919050565b60006020820190508181036000830152611108816110cc565b905091905056fea264697066735822122097a97df57cd2320c8304bee47314a125159df4fa0a42ed28c250a4c3d7d89bff64736f6c63430008140033",
  "linkReferences": {},
  "deployedLinkReferences": {}
}