{
  "_format": "hh-sol-artifact-1",
  "contractName": "IdentityAuthorization",
  "sourceName": "contracts/01_IdentityAuthorization.sol",
  "abi": [
    {
      "inputs": [],
      "stateMutability": "nonpayable",
      "type": "constructor"
    },
    {
      "anonymous": false,
      "inputs": [
        {
          "indexed": true,
          "internalType": "address",
          "name": "userAddress",
          "type": "address"
        },
        {
          "indexed": true,
          "internalType": "uint256",
          "name": "userId",
          "type": "uint256"
        },
        {
          "indexed": false,
          "internalType": "string",
          "name": "name",
          "type": "string"
        }
      ],
      "name": "UserRegistered",
      "type": "event"
    },
    {
      "anonymous": false,
      "inputs": [
        {
          "indexed": true,
          "internalType": "address",
          "name": "userAddress",
          "type": "address"
        },
        {
          "indexed": false,
          "internalType": "bool",
          "name": "isAdmin",
          "type": "bool"
        },
        {
          "indexed": false,
          "internalType": "bool",
          "name": "isHigherAuthority",
          "type": "bool"
        }
      ],
      "name": "UserRoleUpdated",
      "type": "event"
    },
    {
      "inputs": [],
      "name": "admin",
      "outputs": [
        {
          "internalType": "address",
          "name": "",
          "type": "address"
        }
      ],
      "stateMutability": "view",
      "type": "function"
    },
    {
      "inputs": [
        {
          "internalType": "address",
          "name": "_higherAuthority",
          "type": "address"
        }
      ],
      "name": "authorizeHigherAuthority",
      "outputs": [],
      "stateMutability": "nonpayable",
      "type": "function"
    },
    {
      "inputs": [
        {
          "internalType": "address",
          "name": "_userAddress",
          "type": "address"
        }
      ],
      "name": "getUserDetails",
      "outputs": [
        {
          "internalType": "uint256",
          "name": "",
          "type": "uint256"
        },
        {
          "internalType": "string",
          "name": "",
          "type": "string"
        },
        {
          "internalType": "address",
          "name": "",
          "type": "address"
        },
        {
          "internalType": "address",
          "name": "",
          "type": "address"
        },
        {
          "internalType": "bool",
          "name": "",
          "type": "bool"
        },
        {
          "internalType": "bool",
          "name": "",
          "type": "bool"
        },
        {
          "internalType": "bool",
          "name": "",
          "type": "bool"
        }
      ],
      "stateMutability": "view",
      "type": "function"
    },
    {
      "inputs": [
        {
          "internalType": "address",
          "name": "_userAddress",
          "type": "address"
        }
      ],
      "name": "isUserHigherAuthority",
      "outputs": [
        {
          "internalType": "bool",
          "name": "",
          "type": "bool"
        }
      ],
      "stateMutability": "view",
      "type": "function"
    },
    {
      "inputs": [
        {
          "internalType": "address",
          "name": "_userAddress",
          "type": "address"
        }
      ],
      "name": "isUserRegistered",
      "outputs": [
        {
          "internalType": "bool",
          "name": "",
          "type": "bool"
        }
      ],
      "stateMutability": "view",
      "type": "function"
    },
    {
      "inputs": [
        {
          "internalType": "string",
          "name": "_name",
          "type": "string"
        }
      ],
      "name": "registerUser",
      "outputs": [],
      "stateMutability": "nonpayable",
      "type": "function"
    },
    {
      "inputs": [
        {
          "internalType": "address",
          "name": "_userAddress",
          "type": "address"
        },
        {
          "internalType": "bool",
          "name": "_isAdmin",
          "type": "bool"
        },
        {
          "internalType": "bool",
          "name": "_isHigherAuthority",
          "type": "bool"
        }
      ],
      "name": "updateRole",
      "outputs": [],
      "stateMutability": "nonpayable",
      "type": "function"
    },
    {
      "inputs": [
        {
          "internalType": "address",
          "name": "",
          "type": "address"
        }
      ],
      "name": "users",
      "outputs": [
        {
          "internalType": "uint256",
          "name": "userId",
          "type": "uint256"
        },
        {
          "internalType": "string",
          "name": "name",
          "type": "string"
        },
        {
          "internalType": "address",
          "name": "walletAddress",
          "type": "address"
        },
        {
          "internalType": "address",
          "name": "higherAuthority",
          "type": "address"
        },
        {
          "internalType": "bool",
          "name": "isRegistered",
          "type": "bool"
        },
        {
          "internalType": "bool",
          "name": "isAdmin",
          "type": "bool"
        },
        {
          "internalType": "bool",
          "name": "isHigherAuthority",
          "type": "bool"
        }
      ],
      "stateMutability": "view",
      "type": "function"
    }
  ],
  "bytecode": "0x608060405234801561001057600080fd5b5033600160006101000a81548173ffffffffffffffffffffffffffffffffffffffff021916908373ffffffffffffffffffffffffffffffffffffffff16021790555061199d806100616000396000f3fe608060405234801561001057600080fd5b50600436106100885760003560e01c8063a87430ba1161005b578063a87430ba14610125578063cc3d967b1461015b578063e7ccdfa114610191578063f851a440146101ad57610088565b8063163f75221461008d57806323e9da46146100bd578063704f1b94146100ed57806381cf338914610109575b600080fd5b6100a760048036038101906100a29190610ea6565b6101cb565b6040516100b49190610eee565b60405180910390f35b6100d760048036038101906100d29190610ea6565b610223565b6040516100e49190610eee565b60405180910390f35b6101076004803603810190610102919061104f565b610309565b005b610123600480360381019061011e91906110c4565b6105e1565b005b61013f600480360381019061013a9190610ea6565b610806565b60405161015297969594939291906111be565b60405180910390f35b61017560048036038101906101709190610ea6565b610937565b60405161018897969594939291906111be565b60405180910390f35b6101ab60048036038101906101a69190610ea6565b610b65565b005b6101b5610e0e565b6040516101c29190611234565b60405180910390f35b60008060008373ffffffffffffffffffffffffffffffffffffffff1673ffffffffffffffffffffffffffffffffffffffff16815260200190815260200160002060030160149054906101000a900460ff169050919050565b60008060003373ffffffffffffffffffffffffffffffffffffffff1673ffffffffffffffffffffffffffffffffffffffff16815260200190815260200160002060030160149054906101000a900460ff166102b3576040517f08c379a00000000000000000000000000000000000000000000000000000000081526004016102aa9061129b565b60405180910390fd5b6000808373ffffffffffffffffffffffffffffffffffffffff1673ffffffffffffffffffffffffffffffffffffffff16815260200190815260200160002060030160169054906101000a900460ff169050919050565b6000803373ffffffffffffffffffffffffffffffffffffffff1673ffffffffffffffffffffffffffffffffffffffff16815260200190815260200160002060030160149054906101000a900460ff1615610398576040517f08c379a000000000000000000000000000000000000000000000000000000000815260040161038f90611307565b60405180910390fd5b6000620f424042336040516020016103b1929190611390565b6040516020818303038152906040528051906020012060001c6103d491906113eb565b90506040518060e001604052808281526020018381526020013373ffffffffffffffffffffffffffffffffffffffff168152602001600073ffffffffffffffffffffffffffffffffffffffff168152602001600115158152602001600015158152602001600015158152506000803373ffffffffffffffffffffffffffffffffffffffff1673ffffffffffffffffffffffffffffffffffffffff16815260200190815260200160002060008201518160000155602082015181600101908161049c9190611628565b5060408201518160020160006101000a81548173ffffffffffffffffffffffffffffffffffffffff021916908373ffffffffffffffffffffffffffffffffffffffff16021790555060608201518160030160006101000a81548173ffffffffffffffffffffffffffffffffffffffff021916908373ffffffffffffffffffffffffffffffffffffffff16021790555060808201518160030160146101000a81548160ff02191690831515021790555060a08201518160030160156101000a81548160ff02191690831515021790555060c08201518160030160166101000a81548160ff021916908315150217905550905050803373ffffffffffffffffffffffffffffffffffffffff167fbc6cd93a5a69dae46517fc4b81c3c705973b0fabb816aae5d0ff7a077c4d5d18846040516105d591906116fa565b60405180910390a35050565b600160009054906101000a900473ffffffffffffffffffffffffffffffffffffffff1673ffffffffffffffffffffffffffffffffffffffff163373ffffffffffffffffffffffffffffffffffffffff1614610671576040517f08c379a00000000000000000000000000000000000000000000000000000000081526004016106689061178e565b60405180910390fd5b6000808473ffffffffffffffffffffffffffffffffffffffff1673ffffffffffffffffffffffffffffffffffffffff16815260200190815260200160002060030160149054906101000a900460ff166106ff576040517f08c379a00000000000000000000000000000000000000000000000000000000081526004016106f6906117fa565b60405180910390fd5b816000808573ffffffffffffffffffffffffffffffffffffffff1673ffffffffffffffffffffffffffffffffffffffff16815260200190815260200160002060030160156101000a81548160ff021916908315150217905550806000808573ffffffffffffffffffffffffffffffffffffffff1673ffffffffffffffffffffffffffffffffffffffff16815260200190815260200160002060030160166101000a81548160ff0219169083151502179055508273ffffffffffffffffffffffffffffffffffffffff167f36dcdc3242c16980cf85b9e411c386bbd632143bcfc5c4edce9e5b47dc57a44683836040516107f992919061181a565b60405180910390a2505050565b600060205280600052604060002060009150905080600001549080600101805461082f9061144b565b80601f016020809104026020016040519081016040528092919081815260200182805461085b9061144b565b80156108a85780601f1061087d576101008083540402835291602001916108a8565b820191906000526020600020905b81548152906001019060200180831161088b57829003601f168201915b5050505050908060020160009054906101000a900473ffffffffffffffffffffffffffffffffffffffff16908060030160009054906101000a900473ffffffffffffffffffffffffffffffffffffffff16908060030160149054906101000a900460ff16908060030160159054906101000a900460ff16908060030160169054906101000a900460ff16905087565b600060606000806000806000806000808a73ffffffffffffffffffffffffffffffffffffffff1673ffffffffffffffffffffffffffffffffffffffff1681526020019081526020016000206040518060e0016040529081600082015481526020016001820180546109a79061144b565b80601f01602080910402602001604051908101604052809291908181526020018280546109d39061144b565b8015610a205780601f106109f557610100808354040283529160200191610a20565b820191906000526020600020905b815481529060010190602001808311610a0357829003601f168201915b505050505081526020016002820160009054906101000a900473ffffffffffffffffffffffffffffffffffffffff1673ffffffffffffffffffffffffffffffffffffffff1673ffffffffffffffffffffffffffffffffffffffff1681526020016003820160009054906101000a900473ffffffffffffffffffffffffffffffffffffffff1673ffffffffffffffffffffffffffffffffffffffff1673ffffffffffffffffffffffffffffffffffffffff1681526020016003820160149054906101000a900460ff161515151581526020016003820160159054906101000a900460ff161515151581526020016003820160169054906101000a900460ff1615151515815250509050806000015181602001518260400151836060015184608001518560a001518660c00151975097509750975097509750975050919395979092949650565b600160009054906101000a900473ffffffffffffffffffffffffffffffffffffffff1673ffffffffffffffffffffffffffffffffffffffff163373ffffffffffffffffffffffffffffffffffffffff1614610bf5576040517f08c379a0000000000000000000000000000000000000000000000000000000008152600401610bec9061178e565b60405180910390fd5b6000808273ffffffffffffffffffffffffffffffffffffffff1673ffffffffffffffffffffffffffffffffffffffff16815260200190815260200160002060030160149054906101000a900460ff16610c83576040517f08c379a0000000000000000000000000000000000000000000000000000000008152600401610c7a906118b5565b60405180910390fd5b6000808273ffffffffffffffffffffffffffffffffffffffff1673ffffffffffffffffffffffffffffffffffffffff16815260200190815260200160002060030160169054906101000a900460ff1615610d12576040517f08c379a0000000000000000000000000000000000000000000000000000000008152600401610d0990611947565b60405180910390fd5b60016000808373ffffffffffffffffffffffffffffffffffffffff1673ffffffffffffffffffffffffffffffffffffffff16815260200190815260200160002060030160166101000a81548160ff0219169083151502179055508073ffffffffffffffffffffffffffffffffffffffff167f36dcdc3242c16980cf85b9e411c386bbd632143bcfc5c4edce9e5b47dc57a4466000808473ffffffffffffffffffffffffffffffffffffffff1673ffffffffffffffffffffffffffffffffffffffff16815260200190815260200160002060030160159054906101000a900460ff166001604051610e0392919061181a565b60405180910390a250565b600160009054906101000a900473ffffffffffffffffffffffffffffffffffffffff1681565b6000604051905090565b600080fd5b600080fd5b600073ffffffffffffffffffffffffffffffffffffffff82169050919050565b6000610e7382610e48565b9050919050565b610e8381610e68565b8114610e8e57600080fd5b50565b600081359050610ea081610e7a565b92915050565b600060208284031215610ebc57610ebb610e3e565b5b6000610eca84828501610e91565b91505092915050565b60008115159050919050565b610ee881610ed3565b82525050565b6000602082019050610f036000830184610edf565b92915050565b600080fd5b600080fd5b6000601f19601f8301169050919050565b7f4e487b7100000000000000000000000000000000000000000000000000000000600052604160045260246000fd5b610f5c82610f13565b810181811067ffffffffffffffff82111715610f7b57610f7a610f24565b5b80604052505050565b6000610f8e610e34565b9050610f9a8282610f53565b919050565b600067ffffffffffffffff821115610fba57610fb9610f24565b5b610fc382610f13565b9050602081019050919050565b82818337600083830152505050565b6000610ff2610fed84610f9f565b610f84565b90508281526020810184848401111561100e5761100d610f0e565b5b611019848285610fd0565b509392505050565b600082601f83011261103657611035610f09565b5b8135611046848260208601610fdf565b91505092915050565b60006020828403121561106557611064610e3e565b5b600082013567ffffffffffffffff81111561108357611082610e43565b5b61108f84828501611021565b91505092915050565b6110a181610ed3565b81146110ac57600080fd5b50565b6000813590506110be81611098565b92915050565b6000806000606084860312156110dd576110dc610e3e565b5b60006110eb86828701610e91565b93505060206110fc868287016110af565b925050604061110d868287016110af565b9150509250925092565b6000819050919050565b61112a81611117565b82525050565b600081519050919050565b600082825260208201905092915050565b60005b8381101561116a57808201518184015260208101905061114f565b60008484015250505050565b600061118182611130565b61118b818561113b565b935061119b81856020860161114c565b6111a481610f13565b840191505092915050565b6111b881610e68565b82525050565b600060e0820190506111d3600083018a611121565b81810360208301526111e58189611176565b90506111f460408301886111af565b61120160608301876111af565b61120e6080830186610edf565b61121b60a0830185610edf565b61122860c0830184610edf565b98975050505050505050565b600060208201905061124960008301846111af565b92915050565b7f55736572206973206e6f74207265676973746572656400000000000000000000600082015250565b600061128560168361113b565b91506112908261124f565b602082019050919050565b600060208201905081810360008301526112b481611278565b9050919050565b7f5573657220697320616c72656164792072656769737465726564000000000000600082015250565b60006112f1601a8361113b565b91506112fc826112bb565b602082019050919050565b60006020820190508181036000830152611320816112e4565b9050919050565b6000819050919050565b61134261133d82611117565b611327565b82525050565b60008160601b9050919050565b600061136082611348565b9050919050565b600061137282611355565b9050919050565b61138a61138582610e68565b611367565b82525050565b600061139c8285611331565b6020820191506113ac8284611379565b6014820191508190509392505050565b7f4e487b7100000000000000000000000000000000000000000000000000000000600052601260045260246000fd5b60006113f682611117565b915061140183611117565b925082611411576114106113bc565b5b828206905092915050565b7f4e487b7100000000000000000000000000000000000000000000000000000000600052602260045260246000fd5b6000600282049050600182168061146357607f821691505b6020821081036114765761147561141c565b5b50919050565b60008190508160005260206000209050919050565b60006020601f8301049050919050565b600082821b905092915050565b6000600883026114de7fffffffffffffffffffffffffffffffffffffffffffffffffffffffffffffffff826114a1565b6114e886836114a1565b95508019841693508086168417925050509392505050565b6000819050919050565b600061152561152061151b84611117565b611500565b611117565b9050919050565b6000819050919050565b61153f8361150a565b61155361154b8261152c565b8484546114ae565b825550505050565b600090565b61156861155b565b611573818484611536565b505050565b5b818110156115975761158c600082611560565b600181019050611579565b5050565b601f8211156115dc576115ad8161147c565b6115b684611491565b810160208510156115c5578190505b6115d96115d185611491565b830182611578565b50505b505050565b600082821c905092915050565b60006115ff600019846008026115e1565b1980831691505092915050565b600061161883836115ee565b9150826002028217905092915050565b61163182611130565b67ffffffffffffffff81111561164a57611649610f24565b5b611654825461144b565b61165f82828561159b565b600060209050601f8311600181146116925760008415611680578287015190505b61168a858261160c565b8655506116f2565b601f1984166116a08661147c565b60005b828110156116c8578489015182556001820191506020850194506020810190506116a3565b868310156116e557848901516116e1601f8916826115ee565b8355505b6001600288020188555050505b505050505050565b600060208201905081810360008301526117148184611176565b905092915050565b7f4f6e6c792061646d696e2063616e20706572666f726d2074686973206163746960008201527f6f6e000000000000000000000000000000000000000000000000000000000000602082015250565b600061177860228361113b565b91506117838261171c565b604082019050919050565b600060208201905081810360008301526117a78161176b565b9050919050565b7f55736572206d7573742062652061207265676973746572656420757365720000600082015250565b60006117e4601e8361113b565b91506117ef826117ae565b602082019050919050565b60006020820190508181036000830152611813816117d7565b9050919050565b600060408201905061182f6000830185610edf565b61183c6020830184610edf565b9392505050565b7f48696768657220617574686f72697479206d757374206265206120726567697360008201527f7465726564207573657200000000000000000000000000000000000000000000602082015250565b600061189f602a8361113b565b91506118aa82611843565b604082019050919050565b600060208201905081810360008301526118ce81611892565b9050919050565b7f4164647265737320697320616c7265616479206120686967686572206175746860008201527f6f72697479000000000000000000000000000000000000000000000000000000602082015250565b600061193160258361113b565b915061193c826118d5565b604082019050919050565b6000602082019050818103600083015261196081611924565b905091905056fea2646970667358221220c7d320cb25be668fcef7c3f49fa8472c5926d272e09aa7367a2a8d3829dbd05564736f6c63430008140033",
  "linkReferences": {},
  "deployedLinkReferences": {}
}